:400000000010002011000000BB010000BB01000008B500F0A9F900F0D1F8000038B572B680220021D2002F4801F041F980222E480021D20001F03BF900232C4A2C48995C81
:40004000D2185278091802330A700E2BF5D12949294A022011609921284A0904116094213C25274AC90311602649274C0A7802430A702278AA43283D2A432270162480252A
:400080000A78ED0222430A70204A214C1360214A214B1A60214B186023682E302B43236000F028FD1E4A1F4B1F491A6020221F4B09201A601E4B103A1A6080221D4B120630
:4000C0001A601D4A1D4B25601A601D4A1D4B1A6000F09AFC092000F0C1FC00221A4B1A6038BDC04600300F4000400F40CC12000000430F40993300000C00014030500F40B1
:4001000038500F4000700F4001700F400003044000010B40B10D000008030440180304400600008004010B40BD0C00000C0202402002024008010B400F00008000000240F2
:4001400052000080400002400C020B4010B5064C2378002B07D1054B002B02D0044800E000BF0123237010BDF000002000000000C812000008B5084B002B03D007480849C9
:4001800000E000BF07480368002B00D108BD064B002BFBD09847F9E700000000C8120000F4000020D00000200000000008B562B600F06EFE00F01CFBFEE7FEE770B51049C1
:4001C000104B01394A1C15D000221E685C689D68A018AA4203D0B058A0500432F8E7021CDC68151AA54202D0002520C2F9E710330139E7E701F02CF8FFF7D8FFFEE7C046E1
:40020000010000003813000008B500239A000D49032B01D80C4989580C4801338150302BF4D1FFF7FBFE0022094B1A60094B1A68002A00D11A6080220121D20513680B435E
:40024000136008BDBB0100000000000000000020C8000020C0000020004770B5051C0E1C141C002802D0002000F016FC0020002C05D0013CAB191B5DC018C0B2F7E770BDB0
:40028000F0B57F23051C9D432E1C2B1CA3B00191C40980361A789446614602AA571BF9540133B342F6D17F2318406B461B79111C1354A0B200F0D0FA23B0F0BD013808B53A
:4002C0000B282FD8C901494200F0AEFF06080A0C0E10141216191B20174B13E0174B16E0174B0AE0174B12E0174B0BE0174B09E0174B02E0174B00E0174BC91816E0174BFA
:4003000005E0174BC9180878C0B213E0154BC9180A7848788B7800021B041843CB7810431B0606E0002000F0B7FB00210B7848780002184308BDC046C07F0000C17F000044
:40034000C57F0000C97F0000D07F0000D17F0000D67F0000D27F0000D47F0000D87F0000DC7F0000E07F00000C4B10B51A68102313400B4A00D113601368802B0DD1002463
:400380000220211C1460FFF799FFA04205D0211C0220FFF793FFFFF75FFF10BD00030B40C0000020F8B5041C0320211CFFF786FF211C061C0420FFF781FF211C071C0620C8
:4003C000FFF77CFF0025012828D00320211CFFF775FF0136F601F7192E1C0130C001B84209D203785A1ED2B2FD2A00D801265D19EDB20130F3E70120211CFFF75FFF6D420F
:40040000EBB20625834209D1002E07D0044BE4016042C0180121FFF733FF0025281CF8BDD17F0000F0B5C34CA544019000F096FC62B600250A23009503950293019AFF2351
:40044000002A00D0131C962128AC05AE201C4900321C00F08BFC019B002B03D0029B013BDBB20293029B002B02D00028E6D102E0002800D08CE03188062900D896E02278A7
:400480000423012A54D1E678A07836020643F21D8A4200D98CE0962149008A4200D987E0A419A07961792279172841D10020F3189BB2002B09D0BEAC9F4FE418E41924789D
:4004C000013B001980B29BB2F3E74042090280B20A43083382422BD16CE0342B00D0D0E0009B012B62D1032E60D173A80021802200F0DDFE8025972173AB581904ABAD19B6
:40050000F21EC918ADB200F0C9FE832D00D02EE1962204AB9B181D78013A04AB9B1818782D020543FF2D00D826E1012300930A23002404AAD480012128AA5370230AD37096
:40054000002311709470221D92B2002A09D0BEA97948891809180978013A5B189BB292B2F3E7BEAA754912195B4251189BB20B7073491B0A51180B70724B0734D2181723C9
:40058000137004AB9A1DA1B228A8962300F021FC019B002B00D151E7009B012B00D01EE1012300934AE7009B012B46D00423BFE70323BDE728AF7B783C79181C31380A2859
:4005C0002ED9614A1468002C26D0009A012A25D104AA568108AE137229AF00210C22301C079700F064FEB76006A8311CA0472623B488FF339C4202D9B368BB4207D0B2685B
:40060000002A01D1002C04D13368DBB291E70E238EE70E23141C8CE705238AE7052387E700F00CFEC1FF1400CFFF5BFF3500CFFF39004B005BFF5C009800002EB6D1301CA8
:40064000FFF7B0FE434243413B7170E0009B012BACD1012EAAD1002CA8D13C4B1B681B68DA0BD2B2DB09DBB2002A01D080235B003B711B0A7B71FF23BB7100230424FB711C
:4006800057E7009B012B91D1022E8FD933E7009B012B8BD19DE0009B012B87D12C33AC19FF339C4284DC73AB581929A9321C00F0F5FD0023A5B21C1C3BE7002E00D075E70F
:4006C00008AB191C224A351C11CA11C129AA03CB03C2012308240093331C2AE7009B012B00D063E7032E00D060E7BE797B7936021E43FF2E00D91AE721027118C901002075
:400700008022FFF7AAFD071C002C0DD1FF2E0BD1211C0520FFF7D2FD211C3F1A0620FFF7CDFDFFB23F1AFFB27F4228AB1F7100230124FEE604FDFFFFA7FDFFFFACFDFFFF4E
:40074000ADFDFFFFAEFDFFFF0C010020D4000020DC1200000020FFF725FE002802D18022214B1A6000F0FEFA00F098F91EE7012300250093023325E01C4B1B681A68D30991
:400780009BB2520601D001339BB224022D19ADB29D4219D3039B002B0AD1191C802208A800F085FDFF2008A900F056F801230393281C73A900F050F8002805D10123051C6C
:4007C0000093031C2C1CB4E60123002500930933F8E70025019BAB4200D12FE6E0E6BF239B009D44F0BDC046C0000020D400002038B50020FFF7D6FD431E98410625144C94
:400800004042236805401A680020C03AC021FFF724FD63681B78181AC0B2984203D123681B68002B02D1002000F036F9094C2368402B01D0002D03D000202060FFF7F2FD36
:400840001E20FFF7EFFD8023236000F027F938BDD4000020C0000020F0B50024ADB008940994FF2800D9AEE0A14200D1ABE0039080220CA800F012FD0222211C01940AAB9A
:400880009000C058002802D00918044301920132222AF4D1002903D1002C00D096E000E0002402947F224E494E4D0A914E4F5A604E4A2B603A60C0462B6805911B0F0692DB
:4008C0000F2B02D12B68DBB205E02A680023120F0A2A00D02B680893089E002E00D07CE000F0F0FA424A434B116809961960089B04900792002B19D13F4A03990A920A9A0F
:4009000009040A430AA90A9229603C49354A3960C0462968090F0F2902D11368DBB204E01168090F0A2900D013680893089E002E3DD1002C3BD00CA8311C802200F0B7FC39
:40094000019B029A0AAC9B001A51059B069A0A937F2363602C60234B3A60C0462A68120F0F2A02D11E68F6B204E01A68120F0A2A00D01E680896089B002B18D1204A03994E
:400980000A920A9A08041F4910430A90154A2C603960C0462968090F0F2902D11368DBB204E01168090F0A2900D013680893099B002B04D10F4A079912680A600993049809
:4009C00000F084FA09E00423089306E0019A0124920098589950029064E708982DB0F0BDB6D7000008000040040000400400008008010B4010010020B6D800000500008091
:400A0000B6D90000060000801F2800D901BE034B8000C318186819607047C0464000002038B5041C0D1E032D00D901BE1F2C00D901BE00F047FAA308074A9B009B18032280
:400A4000144094400634A240A540196891432943196000F03BFA38BD00E400E01F2318401E3B8340181C014B1860704700E100E01F2318401E3B8340181C014B18607047AA
:400A800080E100E01F2318401E3B8340181C014B1860704780E200E001BE7047034A044913689BB20B4313607047C0460CED00E00400FA0510B5041C8022074B1202944259
:400AC00005D9186800F0F4F9044BE418F4E75868604300F0EDF910BDDC0000200080FFFF08B5034B1B7A584300F0E2F908BDC046DC000020F0B5051C87B000F0E3F9EB1E76
:400B0000049003932D2B5CD8314B1B789D4204D8304B1C78304BE4B21EE0304B1B789D4204D82F4B1C782F4BE4B215E02E4B1B789D4204D82D4B1C782D4BE4B20CE02D4BF6
:400B40001B789D4204D82C4B1C782C4BE4B203E02B4B1C782B4BE4B21B78039ADBB20193294B2A4F9A5C059302922F2A04D92A2D02D919263E6008E03F233E681E40029B86
:400B8000B34205D2214B029A1A60052000F090F91C4B1F4AED182B780520DBB213601D4B019A1C601C4B1A60FFF79AFF029BB34208D9059B039A05209B5C3B6000F078F9F5
:400BC00000E001BE049800F081F907B0F0BDC046C0F1FF0FC1F1FF0FC2F1FF0FC3F1FF0FC4F1FF0FC5F1FF0FC6F1FF0FC7F1FF0FC8F1FF0FC9F1FF0FCAF1FF0FCBF1FF0FB0
:400C0000CCF1FF0FCDF1FF0FE41200002CFF0B4028FF0B401CFF0B4020FF0B4008B500F051F9C021034A090213680B43136000F04DF908BD00010B4010B5802400F042F928
:400C40000749084B0A68E4011A4022430A600A6813408022120213430B6000F037F910BD00010B40FF3FFFFF70B5051C00F02AF90E4B041C1A68C0231B02134011D10C48C3
:400C80000C490540281C0E680B4A3240104308600A68012B01D1FFF7C1FF201C00F016F970BDFFF7C9FF0123E9E7C04600010B400404040010020B40FBFBFBFF042238B560
:400CC000224C2368134213D021490B6813420CD0204BDD6908681540A8430860D9699143D9611B69002B00D098470420FFF7BCFF80232268DB001A4215D015490A681A42F4
:400D00000DD0144AD56908682B4098430860D169114B0B40D3615369002B00D098478020C000FFF7A1FF80232268DB021A420CD0074A12681A4204D0064B9B69002B00D0EE
:400D400098478020C002FFF78FFF38BD10020B40EC00002014010020FFFBFFFF08B500F0CBF808BD08B500F0D5F808BDF8B5012700282CD000292AD0161C0D1C041C0937D8
:400D80005F4300F0F7F8002811D000F0F3F8071CAD204000FFF7A4FE00F0ECF88742F4D13B1EAB4200D92B1C3380002707E00120013FFFF77FFE002FE3D13B1C1037E5182B
:400DC000AC4204D000F0BCF820700134F8E7381CF8BD38B50C1C151C0123002805D0002903D000F00DF900232C80181C38BD000080220021E0200D4BD2041A601A68C000E2
:400E00001A600B4A11601A6802431A60C322094B92001A603122084B1960084B1A60084A084B1A60084A094B1A607047000105400801054024010540380105402801054020
:400E4000E216000014010540710B00000C01054038B50D1C041CAC4000F034F8024B1C6000F034F838BDC0460800054010B5012400F028F8054A13682343136000F026F83C
:400E8000201C1821FFF7E4FF10BDC0460000054010B5054C2378002B03D1FFF7A9FF01232370FFF7E3FF10BD34010020000000000230800804D0C0460138FDD1C046C04626
:400EC000C0467047EFF3108072B6704780F310887047C046C046C0468021064A08B5136809060B4313600B20FFF7B8FD00F006F908BDC0460000074010B5054C2378002B64
:400F000003D100F089F801232370FFF7E5FF10BD3801002008B50B20FFF7AAFD00F000F9054A0B2013685B005B0813600022034B1A60FFF7A7FD08BD00000740880F0740B3
:400F4000094B0A491A680B6800209A420AD00B685A1C403B581E83415B421A40044B985C0A60C0B27047C046D40100204C01002090010020044B1868044B1A681B68904286
:400F800000D24130C01A7047D40100204C01002030B5144A144C11682368994208D1134B19680F230B40082B02D0114B186017E01368591C3F3B5D1EAB415B421940236822
:400FC0009942FCD002240B4BC0B21C600A4B58540A4B11601A68224202D11A6822431A6030BDC04648010020440100200802074040020740800F074050010020880F07403F
:4010000038B5041C4518AC4204D02078FFF7C0FF0134F8E738BD000010B500241E4A1F4B1F491A601F4B204A1C60012313601F4A0B20116007211E4A11601E4A14601E4A60
:4010400013601E4A1E4B1A601E4B1C60FFF710FD0B200321FFF7E4FC1B490B20FFF7D4FC04221A4B1C601A4B1C601A4B1C601A4B1C601A4B1A601A4B1C601A68194B1A8066
:40108000194B1C60194B1C60194B1C70194B1C60194B1C6010BDC04609000002000007400702008040000740480007400003074004030740100307404400074007000080F8
:4010C000000207400402074049110000880E0740C80E0740480F0740080F0740C80F0740880F074040010020D40100204C010020D10100204801002044010020F021054A2B
:4011000013688B4360390B431360034B1A88034B1A6070470C00014040010020880F0740F021064A13688B431360054B1A68E423DB001340034A13807047C0460C00014003
:40114000880F07404001002008B5264B1B68002B00D09847244B1B685B071CD523490B685A1C403B581E83415B421A40204B1868204B1B68824203D120221F4B1A7003E0D5
:401180001E48DBB283540A601D4B1B681B07E5D104221C4B1A601C4B1B689B0721D51B4B1B491A680B689A4213D00B685A1C3F3B581E83415B421A40164B17489B5CDBB259
:4011C0000360164B0A601A680F231340082BE6D104E00221124A13688B4313600222114B1A6008BD3C010020CC0F0740D40100204C01002040030740D101002090010020E4
:4012000008030740C00F07408C0F07404801002044010020500100204002074008020740880F0740800F074002B4714649084900095C49008E4402BC7047C04603B4714627
:40124000490840004900095E49008E4403BC70470E4B70B500251E1C0D4CE41AA410A54204D0AB00F35898470135F8E700F052F8084B00251E1C084CE41AA410A54204D062
:40128000AB00F35898470135F8E770BD20130000201300002013000028130000002310B5934203D0CC5CC4540133F9E710BD031C8218934202D019700133FAE770470000DD
:4012C00080130000FE000000000000001820200850105404C608C808D40600009311A60411320101030405060708090A0B0C0E0F101112131415161718191B1C1D1E1F2054
:4013000021222325262728292A2B2E2F3031323334350000F8B5C046F8BC08BC9E4670477501000009020000F8B5C046F8BC08BC9E4670474D01000048130000D0000020FD
:4013400020000000E800000000000000C0120000C41200000000C05D80BB000030000000006CDC0204040400000000000000000000000000000000000000000000000000DF
:401380000010002091130000451C0000451C000008B5024B83F3088800F056FC00100020F0B5474680B472B601225B4B00211A7080225A48D20001F0BEFB802258480021F0
:4013C000D20001F0B8FB28239846564DD733A84400279C464646634628682A789843002A0ED0511E7C1CCAB27B00A7187C00F31834191A785978121802331170A342F8D1E0
:4014000004354545E7D130259922474BC0211D60464B09031A609923454A1B041360454A454C1360454A04261160454A02211360444A802713600122434BFF021A60434BF9
:401440000132187801433C20197021788143283801432170162118783D4C01431970CB213C4B302019603C493C4B1960DB213C4B49001A603B4B19603B4B3739FF39196024
:401480003A4B643919609021394B89011960394B39491E60394B1A60394B1960394B1A6023683B43236001F05FF8374A374B38491A602122374B09201A60374B103A1A605C
:4014C000364B374A1D6010231360364A13602022354B1A608222354B12061A60344B354A27601360344A11608021344A09061160334A34491360344A344B1A6001F0FAF895
:40150000092001F023F90022314B1A60314B1E6004BC9046F0BDC0461C700F4000300F4000400F40E02D0000040001400C00014000500F4010500F4001700F4018500F40CD
:4015400020500F4030500F402000004000700F4000010B40000004401205480008000440000104400801044018010440000204400802044018020440B10D0000000304409D
:4015800008030440180304400600008004010B40030000C00C0202401C0202402002024024020240340202403C02024008010B400300008000000240400002408000024013
:4015C0000400024081280000F9000080440002400C020B4000031A4010B5064C2378002B07D1054B002B02D0044800E000BF0123237010BD5001002000000000842C0000B5
:4016000008B5084B002B03D00748084900E000BF07480368002B00D108BD064B002BFBD09847F9E700000000842C000054010020D00000200000000008B500F0D1FD012229
:40164000014B1A7008BDC046C401002008B5012000F0A6FB0122014B1A7008BDAC01002010B5002918DB302303700E4BCA174B43920F51188910591A841D431C0A0F090142
:40168000303209091A708A00511801334900A342F4D10023837110BD2D234942037009B2E3E7C046DC680000F0B55F4656464D4644460023F0B48BB006AAD38000F0F4FC29
:4016C000002801D101F030F9012000F0F5FC00F017FE00F041FC00F00DFC00F037FD00F085FD012000F06EFB00F01CFBCD4800F001FD0022CC4BCD481A6000F05FFDCC4867
:4017000000F032FEFA20800001F038F8012001F015F962B6002000F007FE0023002600249B46C44DC44F05930293019304932B78002BFCD000232B7023B298463B8898450C
:4017400000DDCCE03B885B42984500DAC7E0BB4BBB4A1B88934200D9A7E1B84A013313800023029301F006F9029B04940593002802D00023B14A138000F032FB002800D13F
:40178000BAE000F035FB002800D1C4E000F08CFC002800D1CEE0002000F0C8FB401083B29A4652463B7911B29B00CB1ADB105B449AB213B2DB43DB171340A2491AB28A426B
:4017C00001DDA14B1B889BB29B4600F0B3FD6A4690819389041B9946029B8046A1B2002B00D1AFE04B461CB2984B9E4200DA1E1C974B9E4200DD1E1CF8883B894443734302
:401800007A89DB11E318141C09B24C431C1B019B2412002B3CD13B7B002B00D196E0002C00DA65E1012000F0C1FA8A4B9C4200DD1C1C5B4619B2641A002C00DC33E1029B58
:40184000002B25D1201C00F0A3FA834B1B78012B25D0824B1B78002B7FD0814B1B78002B0AD000237E4A13707B7B002B04D07B4B1B78DBB2002B01D04C4658E701227749C5
:401880004C460A70774A13600222674B1A604EE7012000F07DFA704B1B78012BD9D1724BA4461B78DBB20393002308246E4A0133D15C06A85A1E00198154052BF5D108A838
:4018C000644601F003F906AB80B2D880039B2B3BDBB24A2B5BD8654A9B00D3589F46002000F0EAFB012001F037F80123019300F077FA002800D044E700F0DEFB002001F037
:401900001DF8012001F028F80123019300F070FA002800D03AE700F0CFFB002001F00EF8012001F019F80123019300F0BDFB002800D030E700F0C0FB012001F00DF80123EC
:40194000019328E74B461CB236194DE7002C00DACCE0002000F02AFA67E74146F531FF3109B24348FFF77CFE7B889B0700D4B4E021B24048FFF774FE6FE77B7B984206D04F
:40198000391C06AB0D31981D012200F031FC0023314A13705DE700F0CDFC06ABDB88C01A80B200F0C1FCF2E700F0C4FC06ABDB88C01880B200F0B8FCE9E73B899842E6D094
:4019C000391C06AB0831981D022200F011FCDEE73B889842DBD006AB981D391C022200F007FCD4E77B899842D1D0391C06AB0A31981D022200F0FCFBC9E73B799842C6D0E4
:401A000006AB391D981D012200F0F2FBBFE7FB889842BCD006ABB91D981D022200F0E8FBB5E7C046951B0000880F0740391600004D160000AC010020D02D0000AE010020AD
:401A4000CF070000FE0F0000882C000000F0D8FF00102700FF0F0000C50100206C010020C4010020C00100209C0100208C2C0000B0010020B80100207B88984200D186E750
:401A800006ABB91C981D022200F0B2FB7FE73B7B984200D17BE7391C06AB0C31981D012200F0A6FB73E70124C9E67B88DB0705D5059B002B02D10123029353E600F05AFF8F
:401AC000002800D055E66B4610229B5E42469B1A0333062B00D84FE64BE6534699005144490009B20548FFF7BBFDB6E6644299E60020644200F05AF997E6C046B801002009
:401B000010B51E4A1378DBB2052B10D81C499B00CB589F461B4C2368052B0DD823681A4AD05CC0B200F03CFA23680133236010BD144C2368052B1ED9002323601378013300
:401B4000DBB21370F3E700243B20147000F028FA0E4B1C60EBE7137824200133DBB2137000F01EFAE3E7137820200133DBB2137000F016FADBE72368054AD1E76C010020EA
:401B8000B82D0000C0010020B0010020880F0740B8010020244B70B51A68082A0AD01B68042B00D070BD214B1C68A3072AD41F4B1C60F7E71E4B1C68630707D4A30602D5F8
:401BC00001221C4B5A701A4B1C60EBE71A4E3578EDB2002DF4D100F051FA164AC0B25378DBB2002B11D13B2815D0144B1A780E2AE9D81A781249D2B288541A780132D2B2FE
:401C00001A70E0E7FFF77CFFD1E73B28DBD10B4B55701D70D7E70949094D0A78D2B2A8540B7001333370CEE7000E0740800F0740C00F07406C010020C5010020C601002069
:401C40009C010020FEE7C046F8B5104E002E18D000200F4DA9682C686A68002905D00023E758043380C29942FAD1E9680023002903D0D05004339942FBD1013E1035002E09
:401C8000E8D100F029FFFFF70FFDFEE701000000A831000038B500220023114C1148124D04E00133A1500432302B08D0011C032BF7D851590133A1500432302BF6D1FFF7A2
:401CC0006FFB0022094B1A60094B1A68002A00D11A6080220123D20511680B43136038BD00000020451C000080130000C8000020C000002008B500F04DFE0123074A1168B1
:401D00000B43136000F04AFE00F044FE8022044B52041A6000F042FE08BDC046000005400800054010B5124A117800291DD180208024104BC00418601868A402204318608D
:401D40000D48016019681E201960C3210B4B8900196001230A490B600A49086080200A494001086009490B601370FFF7C3FF10BD6E010020000105400801054024010540AE
:401D80003801054028010540140105400C010540024B0004000C18607047C0460C010540014B18607047C046300105400121044A084013688B43DBB2184310607047C0469A
:401DC00000010440031C042004499B000A688243D2B21840104308607047C04600010440024B1868C006C00F7047C04604020440024B18680007C00F7047C0460402044090
:401E000008B50E20032100F081FC0E20204900F071FC01221F4B1A601F4B1B68002B34DB1E491F4A13680B4313601E4A1E4B80211A601E4A1E4B49021A6080221D4B120654
:401E40001A601D4B1D4A13601D4A13601D4A13680B431360002201211B4B1A601B4B1A601B4B19601B4B013119601B491B4B08680340C020800403430B60194B1A60194B61
:401E80001A80194A194B1A6008BD1949C9E7C0464D1F000020001A4080031A40C002005000001A40AC000A8004001A400000DC0518001A401C001A400400040010001A406C
:401EC00014001A4000031A4028021A4038021A4018021A40000F1A4030001A40FFFFFFDF80001A40CC010020204E0000C8010020C002105010B50B4C2378002B0CD00A4B69
:401F00001A68002A07DB80211A6809060A431A600A2000F057FC10BDFFF772FF01232370EDE7C0466F01002000001A4008B5002804D1054B186880B200B208BD002000F0BB
:401F40000FFC0020F8E7C04680011A40014B1A681A60704710021A4010B5084C2378002B03D100F02BF8012323708021044A090613680B43136000F06FF810BD700100209F
:401F800000000740014B18687047C046400307400F20024B1B6818407047C046080307400F2204490B681340082BFBD0024B18607047C0460802074040020740144A154B05
:401FC00010B51A60002301210724134A13481360134A1160134A026013480460134803601348016013490A60134A1360134A1360134A1360134A1360134A13600422134BE7
:402000001A60134B023A1A601A68124B1A8010BD0900000200000740400007400003074048000740070000800403074010030740440007400002074004020740880E0740ED
:40204000C80E0740480F0740080F0740C80F0740880F074072010020F02205490B689343603A13430B60034B1A88034B1A6070470C00014072010020880F074008B5FFF7D4
:4020800087FF031C0020002B08D1D822054B92001968114201D000201A6008BDFFF772FFF3E7C046C00F0740024B18680007C00F7047C04604000440031C042004499B0047
:4020C0000A688243D2B21840104308607047C0460000044010B5041C00F05CFC044AA40713689B009B082343136000F057FC10BD08E400E010B58024054B24011C60054BD3
:40210000D8660120FFF7E6FF034B1C6010BDC04680E100E00000002000E100E008B500F039FC0223074A11680B43136000F036FC00F030FC8022044B92041A6000F02EFCBB
:4021400008BDC046000005400800054008B50B4A1378002B0ED10A480A4908600C200A4908600A490A480B600A4908600A490B6001331370FFF7D2FF08BDC0467401002000
:402180000006000240010540640105407801054053070000540105404801054010B5041C00F0F8FBC021044AA40113688B432343136000F0F3FB10BD00E400E010B5012490
:4021C000044B1C60044B18640220FFF7E7FF034B1C6010BD80E100E00000002000E100E00122014B1A60704780E200E07047C046F0B54D4644465F465646F0B480248D1803
:40220000031CA1B001202402A54232D84804000E8246CC0B24025444E401002A30D099466B4690460F1CEB4600251E1B221C803208E0A84508D94B465B5D0135335501342E
:40224000944206D0A742F4D92378335501349442F8D15046594600F09BF801239C46E244454502D2803E0028E0D0012801D90120404221B03CBC90469946A246AB46F0BD83
:402280000020F6E7072108B5154B1A788A4302390A431A701A7802398A431A70114A13785B0605D510483D31038813781942FBD102230E4A5B4213800D4A138000220D4B12
:4022C0001A70084B013A1B780B4B1A8000F062FB10230A4A11780B43137000F05FFB08BD73000F4063000F4084100F4044100F4004100F4083000F4064100F4093000F4032
:4023000010B5074C2378002B03D1FFF7BBFF012323708023034A11780B43137010BDC0467501002073000F40014B18807047C04604100F40024B1B78024B188880B2704755
:4023400002000F4084100F4010B5041C00F022FBC021044AA40113688B432343136000F01DFB10BD10E400E010B58024054B64021C608023044AD0500320FFF7E5FF034BA1
:402380001C6010BD80E100E00000002000E100E0F0B55F4656464D4644460023F0B4A5B000930193FF2865D8002963D0071C802204A800F0B7FB002502230021002602AC5A
:4023C0009A00A258002A02D01E1C891815430133222BF5D1002957D0002398469946584B584902937F23584A6360584B1C601160C0461A68120F0F2A51D01A68120F0A2A59
:402400004BD01B680093009D002D35D100F0C2FA4F4B504A1B6801951360009B83469246002B15D14C4B3A040293029B4B4913430293454A454B1C601160C0461A68120FA7
:402440000F2A30D01A68120F0A2A67D01B680093009B002B02D14346002B29D1019B002B04D1524611683A4A11600193584600F095FA01E004230093009825B03CBC90468F
:402480009946A246AB46F0BD002DA5D0B300E258E150012391469846A1E70023B2E71B68F0321340AEE71B68F03213400093CFE704A80021802200F03EFB4B46B600A35139
:4024C0001F4B204902937F231F4A63601F4B1C601160C0461A68120F0F2A22D01A68120F0A2A22D01B680093009B002BB6D11C4B3F040293029B1B491F43134A134B029759
:402500001C601160C0461A68120F0F2A12D01A68120F0A2A0BD01B6800939FE70023009396E71B68F0321340DDE70023DBE70023009393E71B68F032134000938EE7C04692
:40254000B6D7000004000080040000400800004008010B4078010020B6D8000005000080B6D9000006000080F8B55F464D4644465646F0B4041C00F00DFAE51E071C2D2D63
:402580003BD8484B1B789C4241D8474B1B78DBB29A46464B1B78DBB29946454B9B465B5D98462F2B01D92A2C4BD83F26414B1A681640B04504D2424605201A6000F0E0F991
:4025C0003D4B3E4A9C4664442378DBB2136052463B4B1A604A463B4B1A603B4B1B789800C01800F0CDF9B04508D95B465A5D314B05201A6000F0C4F900E001BE381C00F066
:40260000CDF93CBC90469946A246AB46F8BD2F4B1B789C420CD92E4B1B789C422BD82D4B1B78DBB29A462C4B1B78DBB29946B4E72A4B1B78DBB29A46294B1B78DBB299466B
:40264000ABE719221B4B05201A6000F099F91A4B1A4A9C4664442378DBB213605246184B1A604A46174B1A60174B1B789800C01800F086F9B9E71B4B1B789C4208D81A4BA7
:402680001B78DBB29A46194B1B78DBB2994684E7174B1B78DBB29A46074B1B78DBB299467BE7C046C0F1FF0FC1F1FF0FC2F1FF0F503000002CFF0B40CDF1FF0F28FF0B40BD
:4026C0001CFF0B4020FF0B40D4000020C3F1FF0FC6F1FF0FC7F1FF0FC8F1FF0FC4F1FF0FC5F1FF0FC9F1FF0FCAF1FF0FCBF1FF0FCCF1FF0F1F2800D901BE034B8000C318CD
:40270000186819607047C0464000002038B5041C0D1E032D00D901BE1F2C00D901BE00F039F9094AA308944603221440E4000634A2409B0063441968A54091430A1C2A431E
:402740001A6000F02BF938BD00E400E01F2318401E3B8340181C014B1860704700E100E001BE7047034A044913681B041B0C0B43136070470CED00E00400FA05F8B5802575
:40278000071C2D02A84214D9041C0B4E706800F0F7F80A4B9C466444AC42F7D8084BFB18DB0BDB036744FF1AB068784300F0E8F8F8BD014EF8E7C046D40000200080FFFF38
:4027C000FF7FFFFF08B5034B1B78584300F0D8F808BDC046D400002008B500F0DBF8C021034A090213680B43136000F0D7F808BD00010B4010B5802400F0CCF80749084B20
:402800000A68E4011A4022430A600A6813408022120213430B6000F0C1F810BD00010B40FF3FFFFF38B5051C00F0B4F8104B041C1A68C0231B021A4210D0FFF7DBFF0D4AD4
:402840000D4811680D4B28400B40184310601368FFF7C2FF201C00F0A1F838BD054A06481168064B28400B40184310601368F1E700010B4010020B4004040400FBFBFBFFEB
:40288000254B10B51A680423134206D0234A11680B4233D10420FFF7C5FF1F4B1A688023DB001A4207D01D4A1168194217D18020C000FFF7B7FF184B1A688023DB021A426D
:4028C0000CD0164A12681A4204D0154B9B69002B00D098478020C002FFF7A4FF10BD1049CC691068234098431060CA690D4B1340CB614B69002BDAD09847D8E70849CC6981
:4029000010681C40A0431060CA699A430B69CA61002BBFD09847BDE710020B40E40000207C010020FFFBFFFF402208B5024B1A60FFF718FF08BDC046C0000020031C0420AD
:4029400004499B000A688243D2B21840104308607047C04600030440031C08200449DB000A688243D2B21840104308607047C04600030440014B1878C0B2704762000F40A6
:402980000230800804D0C0460138FDD1C046C046C0467047EFF3108072B6704780F310887047C046C046C046002243088B4274D303098B425FD3030A8B4244D3030B8B4236
:4029C00028D3030C8B420DD3FF22090212BA030C8B4202D31212090265D0030B8B4219D300E0090AC30B8B4201D3CB03C01A5241830B8B4201D38B03C01A5241430B8B426A
:402A000001D34B03C01A5241030B8B4201D30B03C01A5241C30A8B4201D3CB02C01A5241830A8B4201D38B02C01A5241430A8B4201D34B02C01A5241030A8B4201D30B02AA
:402A4000C01A5241CDD2C3098B4201D3CB01C01A524183098B4201D38B01C01A524143098B4201D34B01C01A524103098B4201D30B01C01A5241C3088B4201D3CB00C01AA1
:402A8000524183088B4201D38B00C01A524143088B4201D34B00C01A5241411A00D20146524110467047FFE701B5002000F00CF802BDC0460029F7D003B5FFF775FF0EBC56
:402AC0004243891A1847C0467047C04608B500210A2200F0C9F808BD0E4B70B500251E1C0D4CE41AA410A54204D0AB00F35898470135F8E700F046FB084B00251E1C084C48
:402B0000E41AA410A54204D0AB00F35898470135F8E770BD90310000903100009031000098310000002310B5934203D0CC5CC4540133F9E710BD031C8218934202D019706B
:402B40000133FAE770470000F0B51E1C444B87B01B68059002930B1C039101921C78029A5D1C121950780822104001D02B1CF5E72D2C04D19D1C5C780123009304E00090F9
:402B80002B2C01D15C789D1C002E02D0102E0AD160E0302C5CD120222B789343582B52D110266C780235009F311C7B1E9F412D4BFF18381CFFF77EFF381C0491311CFFF7E4
:402BC000F3FE0022071C131C029909194978480701D5303C07E00320084017D03721012800D02031641AB44210DA511C0BD0BB4207D802D1049A944203DC73430122E3180A
:402C000001E0012252422C780135DDE7181C511C0BD10098059A431E9841124BC01822231360019B002B0AD117E00099002900D05842019B002B10D0039B002A00D06B1EF6
:402C4000019A136009E03024002EACD10826AAE70A26A8E7302CA6D19DE707B0F0BDC0464C010020FFFFFF7F38B5051C0C1C131C034A291C1068221CFFF766FF38BDC04633
:402C80004801002000000000FE0F0000A81900008E190000961900008E1900008E1900008E1900008E1900008E1900008E1900008E1900008E1900008E1900008E19000001
:402CC0008E1900008E1900008E1900008E1900008E1900008E1900008E1900008E1900008E1900008E1900008E1900008E1900008E1900008E1900008E1900008E19000064
:402D00008E1900008E1900008E1900008E1900008E1900008E1900008E1900008E1900008E1900008E1900008E1900008E1900008E1900008E1900008E1900008E19000023
:402D40008E1900008E1900008E1900008E1900008E1900008E1900008E1900008E1900008E1900008E1900008E190000FA190000E41900008E190000D01900008E190000DF
:402D80008E190000BA1900008E1900008E1900008E1900008E1900008E190000781A00000E1A00008E1900008E1A00008E1900008E1900007A1900002E1B0000561B0000B2
:402DC000141B0000661B0000301B0000461B0000FF000100FF00C409000000000001000001000F403C300F402F310F405E320F4038330F4009400F400E410F4002420F408E
:402E000006430F4002600F40836F05190766097F0A020B800D4B0F3413FF1D801E042201238029072B782D2A2F553001340235FF36043B033F10580459045C135F01811052
:402E40008202830A8720891A8B208F019201930295029B049C049F01A102A204A501A90AAB10B004B106B201B338B402B701BA08BE01BF40D608D804D904DB04DC11DD305A
:402E8000DF01020407400B010D020F021040144019601A801B811C101E401F102102222226082741284029602D202F903102324035043622374038103A443C103F455C48CC
:402EC0005E015F2064406504664467058A01C012C291C418CAEDCCF9CEFED6F0D8F0E48003011E012C01310136013E404040410649FF4AFF4BFF4DA04F01501854015804DC
:402F000059045A045B045C105D115F016040628064406540668068406A806C406D206E8080068211841F85078708881889018A038B128D068E208F11951897039D109F0430
:402F4000A010A204A320A407A520A608A801AA12B220B320B51FB61FBE40BF04C040C106C525C6C4C73EC83FC9FFCAFFCBFFCDAFCE07CF01D018D287D40FD804D904DA0428
:402F8000DB04DC11DD11DF01E040E280E440E540E680E840EA80EC40ED20EE80002602010F0110A8178019481E0120042204278029082A013080310439543F01430147017A
:402FC000481049044A084B014E0850805108521159405A095B205E40610862106829695473408321924097409B01A208AF20B008B440C00FC280C48ECA03CC0ACE8ED081FA
:40300000D224D61FD806E004E280E8C00380050809200F046F048920C030C2C0DA801B0227045E2083028A109F04AF04B108B780C610C820D620E020E8406A40DA02200276
:40304000824088019640C808E201010A100A0000030405060708090A0B0C0E0F101112131415161718191B1C1D1E1F2021222325262728292A2B2E2F303132333435000067
:4030800043000020202020202020202028282828282020202020202020202020202020202020208810101010101010101010101010101004040404040404040404101010D5
:4030C00010101010414141414141010101010101010101010101010101010101010110101010101042424242424202020202020202020202020202020202020202021010C2
:40310000101020000000000000000000000000000000000000000000000000000000000000000000000000000000000000000000000000000000000000000000000000004F
:40314000000000000000000000000000000000000000000000000000000000000000000000000000000000000000000000000000000000000000000000000000000000004F
:4031800000000000F8B5C046F8BC08BC9E46704701160000951C0000F8B5C046F8BC08BC9E467047D9150000B8310000D000002080000000800000000000000030000000C4
:4031C0000000C05D80BB0000006CDC020404040000000000000000000000000000000000000000000000000000000000000000008030000000000000000000000000000071
:40320000000000000000000000000000000000000000000000000000000000000000000000000000000000000000000000000000E8000020823000000000000000000000D4
:40324000000000000000000000000000000000000000000000000000000000000000000000000000000000000000000000000000000000000000000000000000000000004E
:40328000000000000000000000000000000000000000000000000000000000000000000000000000000000000000000000000000000000000000000000000000000000000E
:4032C00000000000000000000000000000000000000000000000000000000000000000000000000000000000000000000000000000000000000000000000000000000000CE
:40330000000000000000000000000000000000000000000000000000000000000000000000000000000000000000000000000000000000000000000000000000000000008D
:407FC000DD9113000026000000001F0000000000000000000000000000000000000000000000000000000000000000000000000000000000000000000000000000000000BB
:0200000490303A
:02000000BA8EB6
:0200000490402A
:200000000000000000000000000000000000000000000000000000000000000000000000E0
:0200000490501A
:0C000000000204A61193110004B5CC21ED
:0200000490600A
:0100000001FE
:00000001FF