:400000000010002011000000C5010000C501000008B500F049FA00F0D7F8C04638B5144C23688025ED022B432360302000F06CFE104A114B1A602022104B1A60103A104B4B
:400040001A60802212060F4B1A6025600E4A0F4B1A600F4A0F4B1A6009200F4900F0EEFD092000F0CBFD00220C4B1A6038BDC04600010B400600008004010B400C020240FD
:400080002002024008010B400F000080000002405200008040000240190F00000C020B4010B572B6002410E01F4863001A195200821891881B195B001A5AC318588800041D
:4000C000104300F0EBF80134E4B2012CECD91649081C0C30103100F0C7F8144A144B1A6099221204134B1A609422D203124B1A60124B197802220A431A70114802783C2113
:400100008A4328390A430270197816220A431A700E220C4B1A600C4A0C4B1A600C4B02221A60FFF77BFF10BD80150000993300000C00014030500F4038500F4000700F40C5
:4001400001700F4000030440B10D0000080304401803044010B5064C2378002B07D1054B002B02D0044800E000BF0123237010BDF0000020000000007C15000008B5084BEA
:40018000002B03D00748084900E000BF07480368002B00D108BD064B002BFBD09847F9E7000000007C150000F4000020D00000200000000008B562B600F0BEFF00F0E6FB99
:4001C000FEE7C046FEE7C04670B50F4E0F4D13E029686B68AC68002202E001C901C30432A242FAD1E868002202E0002102C304328242FAD11035013E002EE9D101F082F992
:40020000FFF7D8FFFEE7C046010000005C16000008B500230AE0032B03D89A000D49505800E00D4899000D4A885001332F2BF2D9FFF736FF00220A4B1A600A4B1B68002BB3
:4002400001D1084B1A608022D205116801230B43136008BD00000000C501000000000020C8000020C0000020F0B50025002711E0BB00C658F3B2FF22964308E06A008A1847
:400280001478A419527822700135013BDBB2002BF4D10137002FEBD0F0BDC04608B50A1C002101F05EF908BD002306E04218013A12789B189BB2013989B20029F6D158429D
:4002C00080B270470047C04608B58022024B1A6000F0ECFC08BDC046C0000020F0B583B00D1C6B469E1DDA8001230B704870141CAA70130ACB70171DB9B2281CFFF7D4FFB3
:40030000E855631D000AE854A31D1722EA540734A1B2281C321C962300F096FE03B0F0BD70B5051C0E1C141C002802D0002000F083FC002004E0013CAB191B5D1818C0B27E
:40034000002CF8D170BDC04670B5A0B0051CC0097F232C1C9C43002304E01A5D6E46F25401339BB27F2BF8D97F231D406B4659550004000C694600F055FB20B070BDC04659
:4003800008B50C2857D880003A4B1B589F46C9014942394B9C466144012351E0C9014942364B9C46614404234AE0C9014942344B9C466144022343E0C9014942314B9C4607
:4003C000614404233CE0C90149422F4B9C466144012335E0C90149422C4B9C46614401232EE0C90149422A4B9C466144022327E0C9014942274B9C466144022320E0C90147
:400400004942254B9C466144022319E0C9014942224B9C466144042312E0C9014942204B9C46614401230BE0C90149421D4B9C466144042304E0002000F0FEFB02230021C6
:40044000012B02D10878C0B200E00020022B03D10A78487800021043042B0AD10A784B781B021A4388780004031C1343C8780006184308BDA0150000C07F0000C17F000017
:40048000C57F0000C97F0000D07F0000D17F0000D67F0000D27F0000D47F0000D87F0000DC7F0000E07F000008B50D4B1B68DB0602D400220B4B1A600A4B1B68802B0ED164
:4004C0000022084B1A6002200021FFF759FF002805D002200021FFF753FFFFF7F3FE08BD00030B40C000002070B5051C0320291CFFF746FF441CE4010420291CFFF740FF4E
:4005000024180620291CFFF73BFF012826D00320291CFFF735FF0130C0010023002608E001784A1ED2B2FD2A00D801265B18DBB20130A042F4D35B42DCB20120291CFFF724
:400540001FFF84420CD1002E0CD0ED016D42064BE8180121FFF7F8FE002004E0002002E0062000E0062070BDD17F0000F0B55F4656464D464446F0B4BB4CA544051C00F05D
:400580001DFD62B600239B46984600930A240027002D01D1FF2300E02B1C70A896214900B24A02AEB446624400F010FD002D01D0013CE4B2002C01D00028E9D1002800D0EE
:4005C000D2E1AA4B02AA944663441B88062B24D970AA1278012A22D170A9CA78120289780A43171C111C07329A421AD896235B009A4218D87A1D70AB9E5C3202381D1E5CE0
:40060000164306315B5C172B0FD181B270A8FFF74BFEB0420BD100260AE0042608E0042606E0032604E0032602E0042600E00826002E00D04FE170AB1A7992465A78131CC2
:40064000313BD9B20A2900D91AE18B008849CB589F464346012B00D03FE1002F00D03FE10020FFF741FF4342434170AA1371012273E14346012B00D035E1012F00D035E12F
:400680005346002B00D034E17A4B1B681B68DA0BD2B2924502D15B041B0E05E0924501D9002301E080235B0070AA13711B0A5371FF2393710023D37104224EE1342A0DD1EE
:4006C0004346012B00D017E1032F00D017E125A800214C3200F045FF80239B464346012B00D00FE1022F00D80FE125A85844FA1EC021FF3102AB9C46614400F029FF3B1CBC
:400700005B449BB2832B00D002E170AA93791B02527913439B46FF2B00D90A26002E00D0FCE053461F025F44BFB2524B1B681A68D3099BB2520601D001339BB29F4200D224
:40074000EFE0009B002B0AD105A80021802200F008FFFF2005A900F065F901230093381C25A900F05FF9002800D00A2600239B4680270022F1E04346012B00D1F2E004261E
:400780000022EAE04346012B00D0D0E05B46DB1996225200934200D9CCE025A8584471A93A1C00F0D5FE5B46DB199BB29B460022D3E0002F00D0C0E005AA2F4B03CB03C290
:4007C00071AA05AB03CB03C200239B46013398460822C2E04346012B00D0B1E0032F00D0B1E070AA93791B02527913439946534619024944C9014B46FF2B00D90A26002ED0
:4008000000D0A3E000208022FFF78AFD031C0190524612024A4492B2514600290FD1FF2A0DD10520FFF7ACFD019B1B1ADBB2994606200021FFF7A4FD4B461B1ADBB25B4282
:4008400070AA1371012288E00020FFF74DFE002802D18022094B1A6000F0B4FB00F026FA0426002279E0C0460CFDFFFFE6020000D4150000D400002000160000C000002067
:40088000414B1B68002B63D04146012963D102A90A71CF8071AA049200210591069105AE079203A8311C9847B2882623FF339A4203D971AB0799994207D0079B002B01D1D5
:4008C000002A05D1059BDEB247E00E26002244E00E26002241E000223FE0042600223CE00426002239E00426002236E00426002233E00426002230E0042600222DE0042602
:4009000000222AE00426002227E00426002224E000239B468027032600221EE0802700221BE000239B4680270A26002215E00426002212E0032600220FE0042600220CE08E
:400940000426002209E00426002206E0002204E00526002201E005260022301C70A9FFF7BDFC01E000239B46002D00D110E64346012B00D10CE6BD239B009D443CBC904600
:400980009946A246AB46F0BD0C01002038B50020FFF7AAFD002801D0062400E00024154D2B681A68C03A0020C021FFF7B9FC6B681B78C01AC0B24042C0B2834204D10D4B1F
:4009C0001B681B68002B02D1002000F035F90A4B1B68402B01D0002C05D00022064B1A600020FFF7C3FD1E20FFF7C0FDFFF76CFC38BDC046D4000020C0000020024B1A68F0
:400A0000024B1A600020704708010B4010010020024B1A68024B1A60002070471001002008010B40F0B5A7B0002325932493FF2800D9CDE0002900D1CAE0051C04A8802253
:400A400000F086FD022300200021002408E09A0002AE9259002A02D0891810431C1C0133212BF4D9002903D1002803D1002602E0002600E00126002E06D0A30002AA9F586F
:400A8000002202A95A5000E00027544B02937F230393534B02AA1A605249534A1160C0461B681B0F0F2B04D14D4B1B68FF22134008E04B4B1B681B0F0A2B02D0484B1B6846
:400AC00000E000232593259B002B00D082E000F04DFB0190FFF792FF2490259B002B1FD1424B0293029A2B04134302933C4B02AA1A603F493C4A1160C0461B681B0F0F2B4E
:400B000004D1374B1B68FF22134008E0344B1B681B0F0A2B02D0324B1B6800E000232593259B002B4AD1002E48D004A80021802200F017FDA40002ABE750284B02937F23A0
:400B40000393274B02AA1A602649274A1160C0461B681B0F0F2B04D1214B1B68FF22134008E01F4B1B681B0F0A2B02D01C4B1B6800E000232593259B002B1FD11D4B02934E
:400B8000029B2D041D430295154B02AA1A601A49154A1160C0461B681B0F0F2B04D1104B1B68FF22134008E00D4B1B681B0F0A2B02D00B4B1B6800E000232593249B002B31
:400BC00002D1FFF725FF2490019800F0D3FA01E004232593259827B0F0BDC046B6D70000080000400400008004000040B6D8000005000080B6D90000060000801F23184098
:400C00001E3B8340181C014B1860704700E100E01F2318401E3B8340181C014B1860704780E100E01F2318401E3B8340181C014B1860704780E200E001BE704738B5041C58
:400C40000D1C1F2802D90020FFF7F6FFA400034B9C4664442068256038BDC0464000002070B5041C0E1E032E02D90020FFF7E4FF1F2C02D90020FFF7DFFF03252540ED0030
:400C8000063500F073FAA408A400074B9C46644423680322AA409343AE40351C1D43256000F068FA70BDC04600E400E0034A13681B041B0C02490B43136070470CED00E0E9
:400CC0000400FA0510B5041C06E0084B186800F043FA074B9C46644480231B029C42F4D8024B5868604300F037FA10BDDC0000200080FFFF08B5034B1B7A584300F02CFA77
:400D000008BDC046DC000020F0B557464E46C0B483B0041C00F02AFA0190E71E2D2F74D83F4B1B78DBB2A34208D33E4B1B78DBB29A463D4B1B78DBB2994631E03B4B1B7859
:400D4000DBB2A34208D33A4B1B78DBB29A46394B1B78DBB2994623E0374B1B78DBB2A34208D3364B1B78DBB29A46354B1B78DBB2994615E0334B1B78DBB2A34208D3324BE9
:400D80001B78DBB29A46314B1B78DBB2994607E02F4B1B78DBB29A462E4B1B78DBB299462D4BDE5D2F2E09D92A2C07D919222B4B1A60052000F0D0F9192503E0274B1D6896
:400DC0003F231D40AE4206D2234BDA5D234B1A60052000F0C1F91F4B9C4664442378DBB21F4A13601F4B52461A601F4B4A461A600520FFF77FFFAE420AD9174BDA5D174BC1
:400E00001A60052000F0A8F902E00020FFF714FF019800F0AFF903B00CBC91469A46F0BDC0F1FF0FC1F1FF0FC2F1FF0FC3F1FF0FC4F1FF0FC5F1FF0FC6F1FF0FC7F1FF0F53
:400E4000C8F1FF0FC9F1FF0FCAF1FF0FCBF1FF0FCCF1FF0FCDF1FF0F081600002CFF0B4028FF0B401CFF0B4020FF0B40034B1868C0231B02184000D00120704700010B40C9
:400E800008B500F073F9044A1368C02109020B43136000F06FF908BD00010B4010B500F065F908490A68084B1A408024E40122430A600A6813408022120213430B6000F033
:400EC00059F910BD00010B40FF3FFFFF70B5061C00F04CF9041CFFF7C9FF002803D0FFF7DDFF012500E000250848331C0340084A106808490840184310601368012D01D16E
:400F0000FFF7BEFF201C00F035F970BD0404040010020B40FBFBFBFF10B5244B1B685B0715D5234B1B685B070ED5224BD969042001401F4C22688A432260DA698243DA614A
:400F40001B69002B00D098470420FFF7BFFF174B1B685B0518D5164B1B685B0510D5154BD9698022D2001140114802688A430260D969114A0A40DA615B69002B00D09847C7
:400F80008020C000FFF7A2FF084B1B685B030CD5074B1B685B0304D5064B9B69002B00D098478020C002FFF791FF10BD10020B40EC00002014010020FFFBFFFF08B500F0F2
:400FC000FFF808BD08B500F00BF908BDF0B583B0002830D0002931D0161C0D1C071C9C00E418640000F02CF9002811D000F028F9041CAD204000FFF77DFE00F021F9A04262
:40100000F4D1A54200D9251C35800023019308E00120FFF757FE013C002CE3D1002510230193002404E03E1900F0F0F830700134AC42F8D304E00123019301E00123019327
:40104000019803B0F0BDC04638B50C1C151C002806D0002906D000F03FF92C80002002E0012000E0012038BD0004000C014B18607047C046080105400004000C014B18608E
:401080007047C046140105400004000C014B18607047C0460C01054038B5041C0D1C00F065F8AC40024B1C6000F064F838BDC0460800054008B500F059F8064A116801237F
:4010C0000B43136000F056F801201821FFF7E4FF08BDC04600000540014B18607047C0463801054010B50F4C8023DB042360236823600020FFF7B8FF2368E022D2001343FA
:401100002360C3229200084B1A600020FFF7E4FF3122064B1A600648FFF7AEFF0548FFF7B3FF10BD000105402401054028010540E2160000710B000008B5064B1B78002BC0
:4011400004D1FFF7CFFF0122024B1A70FFF7B2FF08BDC046340100200230800804D0C0460138FDD1C046C046C0467047EFF3108072B6704780F310887047C046C046C0468C
:4011800008B50B20FFF73AFD08BDC04608B500F021F908BD08B500F02FF908BD08B500F0A7F808BD08B5054A1368802109060B431360FFF7E5FFFFF7E9FF08BD000007405C
:4011C00008B5064B1B78002B04D1FFF7E7FF0122024B1A70FFF7E6FF08BDC0463801002008B50B20FFF714FDFFF7D4FF054A13685B005B0813600022034B1A600B20FFF7BB
:4012000011FD08BD00000740880F0740094B1A68094B1B689A420BD0074B1B680133412B00D10023054AD05CC0B2034A136000E000207047D40100204C0100209001002072
:40124000074B1B68074A1268934203D3054A1068181A04E0034A10681B1A4133181C7047D40100204C010020144B1A68144B1B689A4208D1134B1B680F221340082B02D0A9
:40128000114B186019E00D4B1A680132402A00D100220B4B1B689A42FBD002230B490B60C0B20B49885405490A600A4A1268134203D1084A11680B43136070474801002096
:4012C000440100200802074040020740800F074050010020880F074070B5061C0D1C002403E0305DFFF7C0FF0134AC42F9D370BD10B51F4A1F4B1A6000241F4B1C60012375
:401300001E4A13601E491F4A116007211E4A11601E4A14601E4A13601E4A1F4B1A601F4B1C600B20FFF774FC0B200321FFF798FC0B201B49FFF782FC1A4B1C601A4B1C6078
:401340001A4B1C601A4B1C6004221A4B1A601A4B1C601A68194B1A80194B1C60194B1C60194B1C70194B1C60194B1C6010BDC046090000020000074040000740480007409A
:40138000070200800003074004030740100307404400074007000080000207400402074021140000880E0740C80E0740480F0740080F0740C80F0740880F07404001002082
:4013C000D40100204C010020D1010020480100204401002005490B68F0229343603A13430B60034B1A88034B1A6070470C00014040010020880F0740064A1368F0218B4322
:401400001360054B1A68E423DB001340034A13807047C0460C000140880F07404001002008B5274B1B68002B00D09847254B1B685B071DD5244B1B680133412B00D10023B0
:40144000224A1268934205D1214B1B682022214B1A7006E01E4A1268D2B21F49CA541A4A13601E4B1B681B07E4D104221C4B1A601C4B1B689B0721D51B4B1A681B4B1B68EE
:401480009A4213D0194B1B680133402B00D10023174AD25CD2B217490A60144A1360164B1B680F221340082BE6D104E0134A136802218B4313600222114B1A6008BDC0460E
:4014C0003C010020CC0F0740D40100204C01002040030740D10100209001002008030740C00F07408C0F07404801002044010020500100204002074008020740880F07409D
:40150000800F07400E4B70B500251E1C0D4CE41AA410A54204D0AB00F35898470135F8E700F08AF8084B00251E1C084CE41AA410A54204D0AB00F35898470135F8E770BD4C
:401540004416000044160000441600004C160000002310B5934203D0CC5CC4540133F9E710BD031C8218934202D019700133FAE770470000001700009A00000000000000E4
:4015800000300F40000400400F40000407430F401820200850105404C608C808D4060000360400008E0300009C030000AA030000B8030000C6030000D4030000F003000087
:4015C000E2030000FE0300000C0400001A04000028040000520600007206000080080000BC060000760700008008000084070000B2070000BC060000D4070000480800005B
:401600009311A60411320101030405060708090A0B0C0E0F101112131415161718191B1C1D1E1F2021222325262728292A2B2E2F3031323334350000F8B5C046F8BC08BCFC
:401640009E4670477D01000011020000F8B5C046F8BC08BC9E4670475501000070160000D000002020000000E8000000000000000000000074150000781500000000C05D71
:4016800080BB000030000000006CDC020404040000000000000000000000000000000000000000000000000000000000000000000000000000000000000000000000000069
:4016C00000000000000000000000000000000000000000000000000000000000000000000000000000000000000000000000000000000000000000000000000000000000EA
:4017000000000000000000000000000000000000000000000000000000000000000000000000000000000000000000000000000000000000000000000000000000000000A9
:401740000000000000000000000000000000000000000000000000000000000000000000000000000000000000000000000000000000000000000000000000000000000069
:401780000000000000000000000000000000000000000000000000000000000000000000000000000000000000000000000000000000000000000000000000000000000029
:407FC0000000000000000000000000000000000000000000010000000000000000000000000000000000000000000000000000000000000000000000000000000000000080
:0200000490303A
:02000000481C9A
:0200000490402A
:200000000000000000000000000000000000000000000000000000000000000000000000E0
:0200000490501A
:0C000000000204A61193110004AD59AFDA
:0200000490600A
:0100000001FE
:00000001FF