:400000000010002011000000BB010000BB01000008B500F0A9F900F0D1F8000038B572B680220021D2002F4801F041F980222E480021D20001F03BF900232C4A2C48995C81
:40004000D2185278091802330A700E2BF5D12949294A022011609921284A0904116094213C25274AC90311602649274C0A7802430A702278AA43283D2A432270162480252A
:400080000A78ED0222430A70204A214C1360214A214B1A60214B186023682E302B43236000F028FD1E4A1F4B1F491A6020221F4B09201A601E4B103A1A6080221D4B120630
:4000C0001A601D4A1D4B25601A601D4A1D4B1A6000F09AFC092000F0C1FC00221A4B1A6038BDC04600300F4000400F40CC12000000430F40993300000C00014030500F40B1
:4001000038500F4000700F4001700F400003044000010B40B10D000008030440180304400600008004010B40BD0C00000C0202402002024008010B400F00008000000240F2
:4001400052000080400002400C020B4010B5064C2378002B07D1054B002B02D0044800E000BF0123237010BDF000002000000000C812000008B5084B002B03D007480849C9
:4001800000E000BF07480368002B00D108BD064B002BFBD09847F9E700000000C8120000F4000020D00000200000000008B562B600F06EFE00F01CFBFEE7FEE770B51049C1
:4001C000104B01394A1C15D000221E685C689D68A018AA4203D0B058A0500432F8E7021CDC68151AA54202D0002520C2F9E710330139E7E701F02CF8FFF7D8FFFEE7C046E1
:40020000010000003813000008B500239A000D49032B01D80C4989580C4801338150302BF4D1FFF7FBFE0022094B1A60094B1A68002A00D11A6080220121D20513680B435E
:40024000136008BDBB0100000000000000000020C8000020C0000020004770B5051C0E1C141C002802D0002000F016FC0020002C05D0013CAB191B5DC018C0B2F7E770BDB0
:40028000F0B57F23051C9D432E1C2B1CA3B00191C40980361A789446614602AA571BF9540133B342F6D17F2318406B461B79111C1354A0B200F0D0FA23B0F0BD013808B53A
:4002C0000B282FD8C901494200F0AEFF06080A0C0E10141216191B20174B13E0174B16E0174B0AE0174B12E0174B0BE0174B09E0174B02E0174B00E0174BC91816E0174BFA
:4003000005E0174BC9180878C0B213E0154BC9180A7848788B7800021B041843CB7810431B0606E0002000F0B7FB00210B7848780002184308BDC046C07F0000C17F000044
:40034000C57F0000C97F0000D07F0000D17F0000D67F0000D27F0000D47F0000D87F0000DC7F0000E07F00000C4B10B51A68102313400B4A00D113601368802B0DD1002463
:400380000220211C1460FFF799FFA04205D0211C0220FFF793FFFFF75FFF10BD00030B40C0000020F8B5041C0320211CFFF786FF211C061C0420FFF781FF211C071C0620C8
:4003C000FFF77CFF0025012828D00320211CFFF775FF0136F601F7192E1C0130C001B84209D203785A1ED2B2FD2A00D801265D19EDB20130F3E70120211CFFF75FFF6D420F
:40040000EBB20625834209D1002E07D0044BE4016042C0180121FFF733FF0025281CF8BDD17F0000F0B5C34CA544019000F096FC62B600250A23009503950293019AFF2351
:40044000002A00D0131C962128AC05AE201C4900321C00F08BFC019B002B03D0029B013BDBB20293029B002B02D00028E6D102E0002800D08CE03188062900D896E02278A7
:400480000423012A54D1E678A07836020643F21D8A4200D98CE0962149008A4200D987E0A419A07961792279172841D10020F3189BB2002B09D0BEAC9F4FE418E41924789D
:4004C000013B001980B29BB2F3E74042090280B20A43083382422BD16CE0342B00D0D0E0009B012B62D1032E60D173A80021802200F0DDFE8025972173AB581904ABAD19B6
:40050000F21EC918ADB200F0C9FE832D00D02EE1962204AB9B181D78013A04AB9B1818782D020543FF2D00D826E1012300930A23002404AAD480012128AA5370230AD37096
:40054000002311709470221D92B2002A09D0BEA97948891809180978013A5B189BB292B2F3E7BEAA754912195B4251189BB20B7073491B0A51180B70724B0734D2181723C9
:40058000137004AB9A1DA1B228A8962300F021FC019B002B00D151E7009B012B00D01EE1012300934AE7009B012B46D00423BFE70323BDE728AF7B783C79181C31380A2859
:4005C0002ED9614A1468002C26D0009A012A25D104AA568108AE137229AF00210C22301C079700F064FEB76006A8311CA0472623B488FF339C4202D9B368BB4207D0B2685B
:40060000002A01D1002C04D13368DBB291E70E238EE70E23141C8CE705238AE7052387E700F00CFEC1FF1400CFFF5BFF3500CFFF39004B005BFF5C009800002EB6D1301CA8
:40064000FFF7B0FE434243413B7170E0009B012BACD1012EAAD1002CA8D13C4B1B681B68DA0BD2B2DB09DBB2002A01D080235B003B711B0A7B71FF23BB7100230424FB711C
:4006800057E7009B012B91D1022E8FD933E7009B012B8BD19DE0009B012B87D12C33AC19FF339C4284DC73AB581929A9321C00F0F5FD0023A5B21C1C3BE7002E00D075E70F
:4006C00008AB191C224A351C11CA11C129AA03CB03C2012308240093331C2AE7009B012B00D063E7032E00D060E7BE797B7936021E43FF2E00D91AE721027118C901002075
:400700008022FFF7AAFD071C002C0DD1FF2E0BD1211C0520FFF7D2FD211C3F1A0620FFF7CDFDFFB23F1AFFB27F4228AB1F7100230124FEE604FDFFFFA7FDFFFFACFDFFFF4E
:40074000ADFDFFFFAEFDFFFF0C010020D4000020DC1200000020FFF725FE002802D18022214B1A6000F0FEFA00F098F91EE7012300250093023325E01C4B1B681A68D30991
:400780009BB2520601D001339BB224022D19ADB29D4219D3039B002B0AD1191C802208A800F085FDFF2008A900F056F801230393281C73A900F050F8002805D10123051C6C
:4007C0000093031C2C1CB4E60123002500930933F8E70025019BAB4200D12FE6E0E6BF239B009D44F0BDC046C0000020D400002038B50020FFF7D6FD431E98410625144C94
:400800004042236805401A680020C03AC021FFF724FD63681B78181AC0B2984203D123681B68002B02D1002000F036F9094C2368402B01D0002D03D000202060FFF7F2FD36
:400840001E20FFF7EFFD8023236000F027F938BDD4000020C0000020F0B50024ADB008940994FF2800D9AEE0A14200D1ABE0039080220CA800F012FD0222211C01940AAB9A
:400880009000C058002802D00918044301920132222AF4D1002903D1002C00D096E000E0002402947F224E494E4D0A914E4F5A604E4A2B603A60C0462B6805911B0F0692DB
:4008C0000F2B02D12B68DBB205E02A680023120F0A2A00D02B680893089E002E00D07CE000F0F0FA424A434B116809961960089B04900792002B19D13F4A03990A920A9A0F
:4009000009040A430AA90A9229603C49354A3960C0462968090F0F2902D11368DBB204E01168090F0A2900D013680893089E002E3DD1002C3BD00CA8311C802200F0B7FC39
:40094000019B029A0AAC9B001A51059B069A0A937F2363602C60234B3A60C0462A68120F0F2A02D11E68F6B204E01A68120F0A2A00D01E680896089B002B18D1204A03994E
:400980000A920A9A08041F4910430A90154A2C603960C0462968090F0F2902D11368DBB204E01168090F0A2900D013680893099B002B04D10F4A079912680A600993049809
:4009C00000F084FA09E00423089306E0019A0124920098589950029064E708982DB0F0BDB6D7000008000040040000400400008008010B4010010020B6D800000500008091
:400A0000B6D90000060000801F2800D901BE034B8000C318186819607047C0464000002038B5041C0D1E032D00D901BE1F2C00D901BE00F047FAA308074A9B009B18032280
:400A4000144094400634A240A540196891432943196000F03BFA38BD00E400E01F2318401E3B8340181C014B1860704700E100E01F2318401E3B8340181C014B18607047AA
:400A800080E100E01F2318401E3B8340181C014B1860704780E200E001BE7047034A044913689BB20B4313607047C0460CED00E00400FA0510B5041C8022074B1202944259
:400AC00005D9186800F0F4F9044BE418F4E75868604300F0EDF910BDDC0000200080FFFF08B5034B1B7A584300F0E2F908BDC046DC000020F0B5051C87B000F0E3F9EB1E76
:400B0000049003932D2B5CD8314B1B789D4204D8304B1C78304BE4B21EE0304B1B789D4204D82F4B1C782F4BE4B215E02E4B1B789D4204D82D4B1C782D4BE4B20CE02D4BF6
:400B40001B789D4204D82C4B1C782C4BE4B203E02B4B1C782B4BE4B21B78039ADBB20193294B2A4F9A5C059302922F2A04D92A2D02D919263E6008E03F233E681E40029B86
:400B8000B34205D2214B029A1A60052000F090F91C4B1F4AED182B780520DBB213601D4B019A1C601C4B1A60FFF79AFF029BB34208D9059B039A05209B5C3B6000F078F9F5
:400BC00000E001BE049800F081F907B0F0BDC046C0F1FF0FC1F1FF0FC2F1FF0FC3F1FF0FC4F1FF0FC5F1FF0FC6F1FF0FC7F1FF0FC8F1FF0FC9F1FF0FCAF1FF0FCBF1FF0FB0
:400C0000CCF1FF0FCDF1FF0FE41200002CFF0B4028FF0B401CFF0B4020FF0B4008B500F051F9C021034A090213680B43136000F04DF908BD00010B4010B5802400F042F928
:400C40000749084B0A68E4011A4022430A600A6813408022120213430B6000F037F910BD00010B40FF3FFFFF70B5051C00F02AF90E4B041C1A68C0231B02134011D10C48C3
:400C80000C490540281C0E680B4A3240104308600A68012B01D1FFF7C1FF201C00F016F970BDFFF7C9FF0123E9E7C04600010B400404040010020B40FBFBFBFF042238B560
:400CC000224C2368134213D021490B6813420CD0204BDD6908681540A8430860D9699143D9611B69002B00D098470420FFF7BCFF80232268DB001A4215D015490A681A42F4
:400D00000DD0144AD56908682B4098430860D169114B0B40D3615369002B00D098478020C000FFF7A1FF80232268DB021A420CD0074A12681A4204D0064B9B69002B00D0EE
:400D400098478020C002FFF78FFF38BD10020B40EC00002014010020FFFBFFFF08B500F0CBF808BD08B500F0D5F808BDF8B5012700282CD000292AD0161C0D1C041C0937D8
:400D80005F4300F0F7F8002811D000F0F3F8071CAD204000FFF7A4FE00F0ECF88742F4D13B1EAB4200D92B1C3380002707E00120013FFFF77FFE002FE3D13B1C1037E5182B
:400DC000AC4204D000F0BCF820700134F8E7381CF8BD38B50C1C151C0123002805D0002903D000F00DF900232C80181C38BD000080220021E0200D4BD2041A601A68C000E2
:400E00001A600B4A11601A6802431A60C322094B92001A603122084B1960084B1A60084A084B1A60084A094B1A607047000105400801054024010540380105402801054020
:400E4000E216000014010540710B00000C01054038B50D1C041CAC4000F034F8024B1C6000F034F838BDC0460800054010B5012400F028F8054A13682343136000F026F83C
:400E8000201C1821FFF7E4FF10BDC0460000054010B5054C2378002B03D1FFF7A9FF01232370FFF7E3FF10BD34010020000000000230800804D0C0460138FDD1C046C04626
:400EC000C0467047EFF3108072B6704780F310887047C046C046C0468021064A08B5136809060B4313600B20FFF7B8FD00F006F908BDC0460000074010B5054C2378002B64
:400F000003D100F089F801232370FFF7E5FF10BD3801002008B50B20FFF7AAFD00F000F9054A0B2013685B005B0813600022034B1A60FFF7A7FD08BD00000740880F0740B3
:400F4000094B0A491A680B6800209A420AD00B685A1C403B581E83415B421A40044B985C0A60C0B27047C046D40100204C01002090010020044B1868044B1A681B68904286
:400F800000D24130C01A7047D40100204C01002030B5144A144C11682368994208D1134B19680F230B40082B02D0114B186017E01368591C3F3B5D1EAB415B421940236822
:400FC0009942FCD002240B4BC0B21C600A4B58540A4B11601A68224202D11A6822431A6030BDC04648010020440100200802074040020740800F074050010020880F07403F
:4010000038B5041C4518AC4204D02078FFF7C0FF0134F8E738BD000010B500241E4A1F4B1F491A601F4B204A1C60012313601F4A0B20116007211E4A11601E4A14601E4A60
:4010400013601E4A1E4B1A601E4B1C60FFF710FD0B200321FFF7E4FC1B490B20FFF7D4FC04221A4B1C601A4B1C601A4B1C601A4B1C601A4B1A601A4B1C601A68194B1A8066
:40108000194B1C60194B1C60194B1C70194B1C60194B1C6010BDC04609000002000007400702008040000740480007400003074004030740100307404400074007000080F8
:4010C000000207400402074049110000880E0740C80E0740480F0740080F0740C80F0740880F074040010020D40100204C010020D10100204801002044010020F021054A2B
:4011000013688B4360390B431360034B1A88034B1A6070470C00014040010020880F0740F021064A13688B431360054B1A68E423DB001340034A13807047C0460C00014003
:40114000880F07404001002008B5264B1B68002B00D09847244B1B685B071CD523490B685A1C403B581E83415B421A40204B1868204B1B68824203D120221F4B1A7003E0D5
:401180001E48DBB283540A601D4B1B681B07E5D104221C4B1A601C4B1B689B0721D51B4B1B491A680B689A4213D00B685A1C3F3B581E83415B421A40164B17489B5CDBB259
:4011C0000360164B0A601A680F231340082BE6D104E00221124A13688B4313600222114B1A6008BD3C010020CC0F0740D40100204C01002040030740D101002090010020E4
:4012000008030740C00F07408C0F07404801002044010020500100204002074008020740880F0740800F074002B4714649084900095C49008E4402BC7047C04603B4714627
:40124000490840004900095E49008E4403BC70470E4B70B500251E1C0D4CE41AA410A54204D0AB00F35898470135F8E700F052F8084B00251E1C084CE41AA410A54204D062
:40128000AB00F35898470135F8E770BD20130000201300002013000028130000002310B5934203D0CC5CC4540133F9E710BD031C8218934202D019700133FAE770470000DD
:4012C00080130000FE000000000000001820200850105404C608C808D40600009311A60411320101030405060708090A0B0C0E0F101112131415161718191B1C1D1E1F2054
:4013000021222325262728292A2B2E2F3031323334350000F8B5C046F8BC08BC9E4670477501000009020000F8B5C046F8BC08BC9E4670474D01000048130000D0000020FD
:4013400020000000E800000000000000C0120000C41200000000C05D80BB000030000000006CDC0204040400000000000000000000000000000000000000000000000000DF
:40138000000000000000000000000000000000000000000000000000000000000000000000000000000000000000000000000000000000000000000000000000000000002D
:4013C00000000000000000000000000000000000000000000000000000000000000000000000000000000000000000000000000000000000000000000000000000000000ED
:4014000000000000000000000000000000000000000000000000000000000000000000000000000000000000000000000000000000000000000000000000000000000000AC
:40144000000000000000000000000000000000000000000000000000000000000000000000000000000000000000000000000000000000000000000000000000000000006C
:407FC0000000000000000000000000000000000000000000010000000000000000000000000000000000000000000000000000000000000000000000000000000000000080
:0200000490303A
:020000005BA6FD
:0200000490402A
:200000000000000000000000000000000000000000000000000000000000000000000000E0
:0200000490501A
:0C000000000204A61193110004AC6D393D
:0200000490600A
:0100000001FE
:00000001FF