:400000000010002011000000D1010000D101000008B500F04FFA00F0DDF8C04638B5164C23688022D20213432360182000F072FE2268124B13402360114A124B1A60202228
:40004000114B1A60103A114B1A6080221206104B1A60002525600F4A0F4B1A600F4A104B1A6009200F4900F0EFFD092000F0CCFD0D4B1D6038BDC04600010B40FFFFFBFFA3
:400080000600008004010B400C0202402002024008010B4007000080000002401000008040000240250F00000C020B4010B572B6002410E01F4863001A19520082189188F7
:4000C0001B195B001A5AC31858880004104300F0EBF80134E4B2012CECD91649081C0C30103100F0C7F8144A144B1A6099221204134B1A609422D203124B1A60124B19787C
:4001000002220A431A70114802783C218A4328390A430270197816220A431A700E220C4B1A600C4A0C4B1A600C4B02221A60FFF775FF10BD80150000993300000C00014005
:4001400030500F4038500F4000700F4001700F4000030440B10D0000080304401803044010B5064C2378002B07D1054B002B02D0044800E000BF0123237010BDF000002026
:40018000000000007C15000008B5084B002B03D00748084900E000BF07480368002B00D108BD064B002BFBD09847F9E7000000007C150000F4000020D0000020000000004B
:4001C00008B562B600F0BCFF00F0E6FBFEE7C046FEE7C04670B50F4E0F4D13E029686B68AC68002202E001C901C30432A242FAD1E868002202E0002102C304328242FAD119
:400200001035013E002EE9D101F07CF9FFF7D8FFFEE7C046010000005C16000008B500230AE0032B03D89A000D49505800E00D4899000D4A885001332F2BF2D9FFF736FFD5
:4002400000220A4B1A600A4B1B68002B01D1084B1A608022D205116801230B43136008BD00000000D101000000000020C8000020C0000020F0B50025002711E0BB00C658DA
:40028000F3B2FF22964308E06A008A181478A419527822700135013BDBB2002BF4D10137002FEBD0F0BDC04608B50A1C002101F058F908BD002306E04218013A12789B185C
:4002C0009BB2013989B20029F6D1584280B270470047C04608B58022024B1A6000F0ECFC08BDC046C0000020F0B583B00D1C6B469E1DDA8001230B704870141CAA70130A4E
:40030000CB70171DB9B2281CFFF7D4FFE855631D000AE854A31D1722EA540734A1B2281C321C962300F094FE03B0F0BD70B5051C0E1C141C002802D0002000F083FC002098
:4003400004E0013CAB191B5D1818C0B2002CF8D170BDC04670B5A0B0051CC0097F232C1C9C43002304E01A5D6E46F25401339BB27F2BF8D97F231D406B4659550004000C4C
:40038000694600F055FB20B070BDC04608B50C2857D880003A4B1B589F46C9014942394B9C466144012351E0C9014942364B9C46614404234AE0C9014942344B9C46614410
:4003C000022343E0C9014942314B9C46614404233CE0C90149422F4B9C466144012335E0C90149422C4B9C46614401232EE0C90149422A4B9C466144022327E0C901494234
:40040000274B9C466144022320E0C9014942254B9C466144022319E0C9014942224B9C466144042312E0C9014942204B9C46614401230BE0C90149421D4B9C466144042311
:4004400004E0002000F0FEFB02230021012B02D10878C0B200E00020022B03D10A78487800021043042B0AD10A784B781B021A4388780004031C1343C8780006184308BD18
:40048000A0150000C07F0000C17F0000C57F0000C97F0000D07F0000D17F0000D67F0000D27F0000D47F0000D87F0000DC7F0000E07F000008B50D4B1B68DB0602D4002262
:4004C0000B4B1A600A4B1B68802B0ED10022084B1A6002200021FFF759FF002805D002200021FFF753FFFFF7F3FE08BD00030B40C000002070B5051C0320291CFFF746FFFF
:40050000441CE4010420291CFFF740FF24180620291CFFF73BFF012826D00320291CFFF735FF0130C0010023002608E001784A1ED2B2FD2A00D801265B18DBB20130A0428F
:40054000F4D35B42DCB20120291CFFF71FFF84420CD1002E0CD0ED016D42064BE8180121FFF7F8FE002004E0002002E0062000E0062070BDD17F0000F0B55F4656464D463E
:400580004446F0B4BB4CA544051C00F01DFD62B600239B46984600930A240027002D01D1FF2300E02B1C70A896214900B24A02AEB446624400F010FD002D01D0013CE4B296
:4005C000002C01D00028E9D1002800D0D2E1AA4B02AA944663441B88062B24D970AA1278012A22D170A9CA78120289780A43171C111C07329A421AD896235B009A4218D8B8
:400600007A1D70AB9E5C3202381D1E5C164306315B5C172B0FD181B270A8FFF74BFEB0420BD100260AE0042608E0042606E0032604E0032602E0042600E00826002E00D0CA
:400640004FE170AB1A7992465A78131C313BD9B20A2900D91AE18B008849CB589F464346012B00D03FE1002F00D03FE10020FFF741FF4342434170AA1371012273E14346A0
:40068000012B00D035E1012F00D035E15346002B00D034E17A4B1B681B68DA0BD2B2924502D15B041B0E05E0924501D9002301E080235B0070AA13711B0A5371FF239371BE
:4006C0000023D37104224EE1342A0DD14346012B00D017E1032F00D017E125A800214C3200F03FFF80239B464346012B00D00FE1022F00D80FE125A85844FA1EC021FF316D
:4007000002AB9C46614400F023FF3B1C5B449BB2832B00D002E170AA93791B02527913439B46FF2B00D90A26002E00D0FCE053461F025F44BFB2524B1B681A68D3099BB2E4
:40074000520601D001339BB29F4200D2EFE0009B002B0AD105A80021802200F002FFFF2005A900F065F901230093381C25A900F05FF9002800D00A2600239B46802700221A
:40078000F1E04346012B00D1F2E004260022EAE04346012B00D0D0E05B46DB1996225200934200D9CCE025A8584471A93A1C00F0CFFE5B46DB199BB29B460022D3E0002F6F
:4007C00000D0C0E005AA2F4B03CB03C271AA05AB03CB03C200239B46013398460822C2E04346012B00D0B1E0032F00D0B1E070AA93791B0252791343994653461902494460
:40080000C9014B46FF2B00D90A26002E00D0A3E000208022FFF78AFD031C0190524612024A4492B2514600290FD1FF2A0DD10520FFF7ACFD019B1B1ADBB29946062000214D
:40084000FFF7A4FD4B461B1ADBB25B4270AA1371012288E00020FFF74DFE002802D18022094B1A6000F0B4FB00F026FA0426002279E0C0460CFDFFFFE6020000D4150000CA
:40088000D400002000160000C0000020414B1B68002B63D04146012963D102A90A71CF8071AA049200210591069105AE079203A8311C9847B2882623FF339A4203D971ABDC
:4008C0000799994207D0079B002B01D1002A05D1059BDEB247E00E26002244E00E26002241E000223FE0042600223CE00426002239E00426002236E00426002233E00426C6
:40090000002230E0042600222DE0042600222AE00426002227E00426002224E000239B468027032600221EE0802700221BE000239B4680270A26002215E00426002212E04B
:40094000032600220FE0042600220CE00426002209E00426002206E0002204E00526002201E005260022301C70A9FFF7BDFC01E000239B46002D00D110E64346012B00D1AA
:400980000CE6BD239B009D443CBC90469946A246AB46F0BD0C01002038B50020FFF7AAFD002801D0062400E00024154D2B681A68C03A0020C021FFF7B9FC6B681B78C01A5B
:4009C000C0B24042C0B2834204D10D4B1B681B68002B02D1002000F035F90A4B1B68402B01D0002C05D00022064B1A600020FFF7C3FD1E20FFF7C0FDFFF76CFC38BDC0463B
:400A0000D4000020C0000020024B1A68024B1A600020704708010B4010010020024B1A68024B1A60002070471001002008010B40F0B5A7B0002325932493FF2800D9CDE0C3
:400A4000002900D1CAE0051C04A8802200F080FD022300200021002408E09A0002AE9259002A02D0891810431C1C0133212BF4D9002903D1002803D1002602E0002600E0D3
:400A80000126002E06D0A30002AA9F58002202A95A5000E00027544B02937F230393534B02AA1A605249534A1160C0461B681B0F0F2B04D14D4B1B68FF22134008E04B4B9F
:400AC0001B681B0F0A2B02D0484B1B6800E000232593259B002B00D082E000F04BFB0190FFF792FF2490259B002B1FD1424B0293029A2B04134302933C4B02AA1A603F496A
:400B00003C4A1160C0461B681B0F0F2B04D1374B1B68FF22134008E0344B1B681B0F0A2B02D0324B1B6800E000232593259B002B4AD1002E48D004A80021802200F011FDF4
:400B4000A40002ABE750284B02937F230393274B02AA1A602649274A1160C0461B681B0F0F2B04D1214B1B68FF22134008E01F4B1B681B0F0A2B02D01C4B1B6800E00023AC
:400B80002593259B002B1FD11D4B0293029B2D041D430295154B02AA1A601A49154A1160C0461B681B0F0F2B04D1104B1B68FF22134008E00D4B1B681B0F0A2B02D00B4BC9
:400BC0001B6800E000232593249B002B02D1FFF725FF2490019800F0D1FA01E004232593259827B0F0BDC046B6D70000080000400400008004000040B6D800000500008021
:400C0000B6D90000060000801F2318401E3B8340181C014B1860704700E100E01F2318401E3B8340181C014B1860704780E100E01F2318401E3B8340181C014B186070476E
:400C400080E200E001BE704738B5041C0D1C1F2802D90020FFF7F6FFA400034B9C4664442068256038BDC0464000002070B5041C0E1E032E02D90020FFF7E4FF1F2C02D9D9
:400C80000020FFF7DFFF03252540ED00063500F071FAA408A400074B9C46644423680322AA409343AE40351C1D43256000F066FA70BDC04600E400E0034A13681B041B0C1B
:400CC00002490B43136070470CED00E00400FA0510B5041C06E0084B186800F041FA074B9C46644480231B029C42F4D8024B5868604300F035FA10BDDC0000200080FFFF30
:400D000008B5034B1B7A584300F02AFA08BDC046DC000020F0B557464E46C0B483B0041C00F028FA0190E71E2D2F74D83F4B1B78DBB2A34208D33E4B1B78DBB29A463D4B35
:400D40001B78DBB2994631E03B4B1B78DBB2A34208D33A4B1B78DBB29A46394B1B78DBB2994623E0374B1B78DBB2A34208D3364B1B78DBB29A46354B1B78DBB2994615E09B
:400D8000334B1B78DBB2A34208D3324B1B78DBB29A46314B1B78DBB2994607E02F4B1B78DBB29A462E4B1B78DBB299462D4BDE5D2F2E09D92A2C07D919222B4B1A6005208C
:400DC00000F0CEF9192503E0274B1D683F231D40AE4206D2234BDA5D234B1A60052000F0BFF91F4B9C4664442378DBB21F4A13601F4B52461A601F4B4A461A600520FFF740
:400E00007FFFAE420AD9174BDA5D174B1A60052000F0A6F902E00020FFF714FF019800F0ADF903B00CBC91469A46F0BDC0F1FF0FC1F1FF0FC2F1FF0FC3F1FF0FC4F1FF0F5A
:400E4000C5F1FF0FC6F1FF0FC7F1FF0FC8F1FF0FC9F1FF0FCAF1FF0FCBF1FF0FCCF1FF0FCDF1FF0F081600002CFF0B4028FF0B401CFF0B4020FF0B40034B1868C0231B02C6
:400E8000184000D00120704700010B4008B500F071F9044A1368C02109020B43136000F06DF908BD00010B4010B500F063F908490A68084B1A408024E40122430A600A68A7
:400EC00013408022120213430B6000F057F910BD00010B40FF3FFFFF70B5061C00F04AF9041CFFF7C9FF002803D0FFF7DDFF012500E000250848331C0340084A1068084946
:400F00000840184310601368012D01D1FFF7BEFF201C00F033F970BD0404040010020B40FBFBFBFF10B5244B1B685B0715D5234B1B685B070ED5224BD969042001401F4CDA
:400F400022688A432260DA698243DA611B69002B00D098470420FFF7BFFF174B1B685B0518D5164B1B685B0510D5154BD9698022D2001140114802688A430260D969114ACE
:400F80000A40DA615B69002B00D098478020C000FFF7A2FF084B1B685B030CD5074B1B685B0304D5064B9B69002B00D098478020C002FFF791FF10BD10020B40EC000020A9
:400FC00014010020FFFBFFFF08B500F0FDF808BD08B500F009F908BDF0B583B000282FD0002930D0161C0D1C071C9C00E418640000F02AF9002810D000F026F9041CAB2032
:40100000FFF77EFE00F020F9A042F5D1A54200D9251C35800023019308E00120FFF758FE013C002CE4D1002510230193002404E03E1900F0EFF830700134AC42F8D304E019
:401040000123019301E001230193019803B0F0BD38B50C1C151C002806D0002906D000F03FF92C80002002E0012000E0012038BD0004000C014B18607047C0460801054017
:401080000004000C014B18607047C046140105400004000C014B18607047C0460C01054038B5041C0D1C00F065F8AC40024B1C6000F064F838BDC0460800054008B500F0E9
:4010C00059F8064A116801230B43136000F056F801201821FFF7E4FF08BDC04600000540014B18607047C0463801054010B50F4C8023DB042360236823600020FFF7B8FF71
:401100002368E022D20013432360C3229200084B1A600020FFF7E4FF3122064B1A600648FFF7AEFF0548FFF7B3FF10BD000105402401054028010540E2160000710B0000D7
:4011400008B5064B1B78002B04D1FFF7CFFF0122024B1A70FFF7B2FF08BDC046340100200230800804D0C0460138FDD1C046C046C0467047EFF3108072B6704780F3108889
:401180007047C046C046C04608B50B20FFF73CFD08BDC04608B500F01DF908BD08B500F02BF908BD08B500F0A7F808BD08B5054A1368802109060B431360FFF7E5FFFFF78D
:4011C000E9FF08BD0000074008B5064B1B78002B04D1FFF7E7FF0122024B1A70FFF7E6FF08BDC0463801002008B50B20FFF716FDFFF7D4FF054A13685B005B0813600022AE
:40120000034B1A600B20FFF713FD08BD00000740880F0740094B1A68094B1B689A420BD0074B1B680133412B00D10023054AD05CC0B2034A136000E000207047D4010020A5
:401240004C01002090010020074B1B68074A1268934203D3054A1068181A04E0034A10681B1A4133181C7047D40100204C010020144B1A68144B1B689A4208D1134B1B6814
:401280000F221340082B02D0114B186019E00D4B1A680132402A00D100220B4B1B689A42FBD002230B490B60C0B20B49885405490A600A4A1268134203D1084A11680B43A0
:4012C0001360704748010020440100200802074040020740800F074050010020880F074070B5061C0D1C002403E0305DFFF7C0FF0134AC42F9D370BD10B51E4A1E4B1A6012
:4013000000241E4B1C6001221D4B1A601D4B1E490B6007201D4908601D490C601D490A601D4A13601D4B1C600430FFF777FC0B200321FFF79BFC0B201949FFF785FC194B2F
:401340001C60194B1C60194B1C60194B1C600422184B1A60184B1C601A68184B1A80184B1C60184B1C60184B1C70184B1C60184B1C6010BD0B0000020000074040000740DD
:40138000480007400700008000030740040307401003074044000740000207400402074021140000880E0740C80E0740480F0740080F0740C80F0740880F0740400100207C
:4013C000D40100204C010020D1010020480100204401002005490B68F0229343603A13430B60034B1A88034B1A6070470C00014040010020880F0740064A1368F0218B4322
:401400001360054B1A68E423DB001340034A13807047C0460C000140880F07404001002008B5274B1B68002B00D09847254B1B685B071DD5244B1B680133412B00D10023B0
:40144000224A1268934205D1214B1B682022214B1A7006E01E4A1268D2B21F49CA541A4A13601E4B1B681B07E4D104221C4B1A601C4B1B689B0721D51B4B1A681B4B1B68EE
:401480009A4213D0194B1B680133402B00D10023174AD25CD2B217490A60144A1360164B1B680F221340082BE6D104E0134A136802218B4313600222114B1A6008BDC0460E
:4014C0003C010020CC0F0740D40100204C01002040030740D10100209001002008030740C00F07408C0F07404801002044010020500100204002074008020740880F07409D
:40150000800F07400E4B70B500251E1C0D4CE41AA410A54204D0AB00F35898470135F8E700F08AF8084B00251E1C084CE41AA410A54204D0AB00F35898470135F8E770BD4C
:401540004416000044160000441600004C160000002310B5934203D0CC5CC4540133F9E710BD031C8218934202D019700133FAE77047000000170000460000000000000038
:4015800000300F40000400400F40000407430F401820200850105404C608C808D4060000420400009A030000A8030000B6030000C4030000D2030000E0030000FC03000027
:4015C000EE0300000A0400001804000026040000340400005E0600007E0600008C080000C8060000820700008C08000090070000BE070000C8060000E0070000540800009A
:401600009311A60411320101030405060708090A0B0C0E0F101112131415161718191B1C1D1E1F2021222325262728292A2B2E2F3031323334350000F8B5C046F8BC08BCFC
:401640009E467047890100001D020000F8B5C046F8BC08BC9E4670476101000070160000D000002020000000E8000000000000000000000074150000781500000000E02E5C
:40168000C05D00001800000000366E010404040000000000000000000000000000000000000000000000000000000000000000000000000000000000000000000000000044
:4016C00000000000000000000000000000000000000000000000000000000000000000000000000000000000000000000000000000000000000000000000000000000000EA
:401700000010002011170000891C0000891C000008B5024B83F3088800F0D0FA0010002038B51D4C23688025ED022B432360302000F004FE194A1A4B1A602122194B1A6002
:40174000103A194B1A60013A184B1A602032184B1A60103A174B1A6082221206164B1A602560164A164B1A60164A174B1A6080221206164B1A60164A164B1A60164A174BAF
:401780001A600920164900F097FD092000F088FD0022144B1A6038BD00010B400600008004010B400C0202401C02024020020240240202403002024008010B40030000802C
:4017C000000002400D0000C04000024080000240090000800400024022000080440002404D2500000C020B4010B572B601223B4B1A70002410E03A4863001A19520082189C
:4018000091881B195B001A5AC31858880004104300F0BEFA0134E4B2012CECD93049081C0C302C3100F09AFA30222E4B1A6069322D4B1A6099231B042C4A13602C4A1360DC
:40184000C02109032B4A11602B4A13602B4A13600D222B4B1A60073A2A4B1A602A4B1878043A022101431970284C21783C2081432838014321701878162101431970032129
:40188000234B19600F31234B1960234B1A60A531FF31224B19603739FF39214B19606439204B1960902189011F4B196004211F4B19601F4B1A601F491F4B19601F4B1A60FF
:4018C0000C321F4B1A601F4A1F4B1A6010221F4B1A60FFF725FF00F071FA10BD1C700F40AC370000040001400C00014000500F4010500F4018500F4020500F4030500F403E
:401900002000004000800F4000700F4001700F40000004400800044000010440080104401801044000020440080204401802044000030440B10D00000803044018030440D5
:401940000004044094040000080404400C04044010B5064C2378002B07D1054B002B02D0044800E000BF0123237010BD5801002000000000A037000008B5084B002B03D014
:401980000748084900E000BF07480368002B00D108BD064B002BFBD09847F9E700000000A03700005C010020D0000020000000000122014B1A707047B801002008B500F0ED
:4019C00047FE012805D1064A138801339BB2138004E0034A1388013B9BB2138008BDC046B601002008B500F03DFC01280AD10B4A138801339BB21380094A138801339BB2BD
:401A0000138009E0054A1388013B9BB21380044A1388013B9BB2138008BDC046B6010020AC01002038B5104D2C78E4B200F0F8FBC0B20E4A10552B78DBB2D35C3B2B08D07D
:401A4000094A13780133DBB213700022084B1A7005E00022044B1A700132054B1A700422044B1A6038BDC046BA010020B0010020B9010020C00F0740F0B587B0002217239A
:401A80006B441A70012000F019FA00F03DFB00F0CDFA00F09DFE00F0DBFE012000F026FA00F0FCF9694800F037FE694800F0C2FE684800F0FDFD684800F0BCFD012000F045
:401AC000CDFD002000F0CAFD62B600250027002000F0BCFA011C002000F0CEFA061C5F4B1A782B18D5005D1BADB22AB25C4B9A4202DC002A03DA01E0594D00E00025594868
:401B00000288594B1C88141BA1B21A8892B202801B88DF19BFB23AB2FA231B019A4204DC131E524A934203DB03E0FA273F0100E04F4F4A4842784C4B1C8824B254438278CC
:401B40003BB25343E318C2780CB254431C1B03D4012000F0BFF903E06442002000F0BAF92411444B9C4200DD1C1C28B2201A002800DC012000F03CF93F4B1B78012B3DD1C9
:401B80003E4B1C78E4B2002305E05A1C3B49885C04A9C854131C042BF7DD04A801F01EF917236B441870642C17D002D8632C1CD021E0692C09D0702C1DD117206844274954
:401BC0000131012200F046FE15E01720684423490231012200F03EFE0DE0172068441F490331012200F036FE05E0172068441B49012200F02FFE00221F4B1A70204CB20043
:401C0000921902A8211C01F02DF9174B1A8812B2F532FF326846211C01F024F9194B1B78002B00D153E7242000F08CFA02A800F00DFB202000F086FA684600F007FB3B20AE
:401C400000F080FA00220F4B1A7040E7251A0000B1190000E5190000BD190000A4370000FE0F0000AC010020B601002060F0FFFF60F00000FF0F0000B9010020B00100200D
:401C8000A8370000B8010020FEE7C04608B5031C084A1068C318084A9A1A202A02DC054A136005E001F0A0F80C2303600120404208BDC046D4000020C801002070B50F4E43
:401CC0000F4D13E029686B68AC68002202E001C901C30432A242FAD1E868002202E0002102C304328242FAD11035013E002EE9D101F080F8FFF7C0FEFEE7C0460100000032
:401D0000203A000008B500230AE0032B03D89A000D49505800E00D4899000D4A885001332F2BF2D9FFF760FD00220A4B1A600A4B1B68002B01D1084B1A608022D2051168B0
:401D400001230B43136008BD00170000891C000000000020C8000020C0000020F0B50025002711E0BB00C658F3B2FF22964308E06A008A181478A419527822700135013BB0
:401D8000DBB2002BF4D10137072FEBD9F0BDC04608B50A1C002101F05CF808BD064B1B68002803D080221206134301E05B005B08014A13607047C04680031A4008B50422FA
:401DC000024B1A600120FFF7E9FF08BD00031A400004000C014B18607047C046480105400004000C014B18607047C046540105400004000C014B18607047C0464C0105408E
:401E000038B5041C0D1C00F041FAAC40024B1C6000F040FA38BDC0460800054008B500F035FA064A116802230B43136000F032FA02201821FFF7E4FF08BDC046000005402F
:401E4000014B18607047C0467801054010B5104C8023DB042360236880229202134323600020FFF7B5FF23682360C3229200094B1A600020FFF7E4FF1E22074B1A608020A1
:401E80004001FFF7ADFF0120FFF7B2FF10BDC04640010540640105406801054008B5064B1B78002B04D1FFF7D1FF0122024B1A70FFF7B4FF08BDC0467401002004490A689D
:401EC000FB231A408000F73B184010430860704700030440031C04490868FE220240012018401043086070470001044004490A68FB231A408000F73B184010430860704786
:401F00000001044008B50E20032100F0E7F90E20244900F0D1F90122234B1A60234B1B68002B01DA224900E02249234A13680B431360224A224B1A60224A234B1A6080227E
:401F40001206224B1A60224B224A1360224A1360224A1368802149020B4313600023204A1360204A136001331F4A136002211F4A11601F4908681F4A024013430B60002352
:401F80000DE09A001C498C4662440021116058001A4A815299001A481A4A88500133002BEFD008BDD520000020001A4080031A40E0021050E002005000001A40AC000A8032
:401FC00004001A400000DC0518001A401C001A400400040010001A4014001A4000031A4028021A4038021A4018021A40000F1A4030001A40FFFFFFDF80001A40C001002067
:402000007C300000BC01002008B5074B1B68002B08DB054A1368802109060B4313600A2000F082F908BDC04600001A4008B5064B1B78002B04D1FFF765FF0122024B1A708D
:40204000FFF7E2FF08BDC0467501002010B5041E02D0002000F02EF9002C07D1A400054B9C46644420680004000C00E0002000B210BDC04680011A4038B5041C0D1C002860
:4020800002D0002000F016F963000F4A995A691A09B20E48021C4A43002906DDA3000C495B58D80FC018431006E0A30008495B58D80FC3185B105B42D018A400044BE1580D
:4020C00000F09AFD00B238BDC001002010270000BC010020014B1A681A60704710021A4008B500F08BF808BD08B500F039F808BD08B5044A1368802109060B431360FFF7CD
:40210000EFFF08BD0000074008B5064B1B78002B04D1FFF7E9FF0122024B1A70FFF7E8FF08BDC04676010020014B18687047C04640030740024B1B680F2018407047C046C6
:4021400008030740044B1B680F221340082BF9D0024B18607047C046080207404002074010B5144A144B1A600023144A13600121134A1160134A144802600724134804607A
:40218000134803601348016013490A60134A1360134A1360134A1360134A1360134A13600421134A1160134A13601268124B1A8010BDC0460B0000020000074040000740ED
:4021C0004800074007000080000307400403074010030740440007400002074004020740880E0740C80E0740480F0740080F0740C80F0740880F07407801002005490B686A
:40220000F0229343603A13430B60034B1A88034B1A6070470C00014078010020880F074008B5FFF787FF002802D0FFF77DFF00E00020054B1A68D8239B001A4203D01A1CB6
:40224000014B1A60002008BDC00F074038B5051C002402E0FFF776FF0134285D0028F9D138BDC046024B18680007C00F7047C04604040440000000000230800804D0C04637
:402280000138FDD1C046C046C0467047EFF3108072B6704780F310887047C046C046C0461F2318401E3B8340181C014B1860704700E100E001BE704738B5041C0D1C1F2810
:4022C00002D90020FFF7F6FFA400034B9C4664442068256038BDC0464000002070B5041C0E1E032E02D90020FFF7E4FF1F2C02D90020FFF7DFFF03252540ED000635FFF7D9
:40230000C5FFA408A400074B9C46644423680322AA409343AE40351C1D432560FFF7BAFF70BDC04600E400E008B5034B1B7A5843FFF7A2FF08BDC046D8000020F0B557469C
:402340004E46C0B483B0041CFFF7A0FF0190E71E2D2F74D83F4B1B78DBB2A34208D33E4B1B78DBB29A463D4B1B78DBB2994631E03B4B1B78DBB2A34208D33A4B1B78DBB299
:402380009A46394B1B78DBB2994623E0374B1B78DBB2A34208D3364B1B78DBB29A46354B1B78DBB2994615E0334B1B78DBB2A34208D3324B1B78DBB29A46314B1B78DBB2E9
:4023C000994607E02F4B1B78DBB29A462E4B1B78DBB299462D4BDE5D2F2E09D92A2C07D919222B4B1A600520FFF746FF192503E0274B1D683F231D40AE4206D2234BDA5D2E
:40240000234B1A600520FFF737FF1F4B9C4664442378DBB21F4A13601F4B52461A601F4B4A461A600520FFF77FFFAE420AD9174BDA5D174B1A600520FFF71EFF02E0002060
:40244000FFF738FF0198FFF725FF03B00CBC91469A46F0BDC0F1FF0FC1F1FF0FC2F1FF0FC3F1FF0FC4F1FF0FC5F1FF0FC6F1FF0FC7F1FF0FC8F1FF0FC9F1FF0FCAF1FF0F31
:40248000CBF1FF0FCCF1FF0FCDF1FF0F943800002CFF0B4028FF0B401CFF0B4020FF0B40034B1868C0231B02184000D00120704700010B4008B5FFF7E9FE044A1368C021D9
:4024C00009020B431360FFF7E5FE08BD00010B4010B5FFF7DBFE08490A68084B1A408024E40122430A600A6813408022120213430B60FFF7CFFE10BD00010B40FF3FFFFF76
:4025000070B5061CFFF7C2FE041CFFF7C9FF002803D0FFF7DDFF012500E000250848331C0340084A106808490840184310601368012D01D1FFF7BEFF201CFFF7ABFE70BD82
:402540000404040010020B40FBFBFBFF10B5244B1B685B0715D5234B1B685B070ED5224BD969042001401F4C22688A432260DA698243DA611B69002B00D098470420FFF7B6
:40258000BFFF174B1B685B0518D5164B1B685B0510D5154BD9698022D2001140114802688A430260D969114A0A40DA615B69002B00D098478020C000FFF7A2FF084B1B681C
:4025C0005B030CD5074B1B685B0304D5064B9B69002B00D098478020C002FFF791FF10BD10020B40E80000207C010020FFFBFFFF014B18647047C0460000002010B5041C28
:40260000FFF744FE044A1368C0218B43A4011C431460FFF73FFE10BD00E400E00122014B1A60704700E100E00122014B1A60704780E100E010B5041CFFF7F6FF201CFFF76A
:40264000D7FF0020FFF7DAFFFFF7E8FF10BDC046014B1878C0B2704761000F40014B18707047C04670000F40014B98647047C0460000002010B5041CFFF708FE044A116813
:40268000044B0B40A4051C431460FFF703FE10BD00E400E0FFFF3FFF0422014B1A60704700E100E00422014B1A60704780E100E010B5041CFFF7F6FF201CFFF7D5FF002002
:4026C000FFF7D8FFFFF7E8FF10BDC046014BD8667047C0460000002010B5041CFFF7D6FD044A13689B009B08A4071C431460FFF7D1FD10BD08E400E080221201014B1A60EB
:402700007047C04600E100E080221201014B1A607047C04680E100E010B5041CFFF7F4FF201CFFF7D3FF0220FFF7D6FFFFF7E4FF10BDC0460004000C014B18607047C046A6
:40274000080105400004000C014B18607047C0461401054038B5041C0D1CFFF797FDAC40024B1C60FFF796FD38BDC0460800054008B5FFF78BFD064A116801230B431360F1
:40278000FFF788FD01201821FFF7E4FF08BDC04600000540014B18607047C0463801054008B5084A084B1A600C22084B1A600020FFF7F0FFFA208000FFF7C4FF0020FFF717
:4027C000B9FF08BD00070002000105402401054008B5064B1B78002B04D1FFF7E1FF0122024B1A70FFF7C4FF08BDC0469C010020014BD8647047C0460000002010B5041CA7
:40280000FFF744FD044A13689B009B08A4071C431460FFF73FFD10BD00E400E00822014B1A60704700E100E00822014B1A60704780E100E010B5041CFFF7F6FF201CFFF7C7
:40284000D7FF0320FFF7DAFFFFF7E8FF10BDC0467047C046F0B54F464646C0B4A1B00E1C8C181C4B9C422AD8171C8046CC0B49040B0E994624024C44E4010020002519E095
:40288000B44207D3BD4205D24246525D6946CA54013502E022786946CA540134013300E000237F2BECD94846694600F029F801239C46E144BD4203D20028F1D000E00120DD
:4028C000012801D90120404221B00CBC90469946F0BDC046FF7F0000024B1A68024B1A600020704708010B40A0010020024B1A68024B1A6000207047A001002008010B40AF
:40290000F0B5A7B0002325932493FF2800D9CDE0002900D1CAE0051C04A8802200F090FA022300200021002408E09A0002AE9259002A02D0891810431C1C0133212BF4D9B3
:40294000002903D1002803D1002602E0002600E00126002E06D0A30002AA9F58002202A95A5000E00027544B02937F230393534B02AA1A605249534A1160C0461B681B0FD5
:402980000F2B04D14D4B1B68FF22134008E04B4B1B681B0F0A2B02D0484B1B6800E000232593259B002B00D082E0FFF76FFC0190FFF792FF2490259B002B1FD1424B02932F
:4029C000029A2B04134302933C4B02AA1A603F493C4A1160C0461B681B0F0F2B04D1374B1B68FF22134008E0344B1B681B0F0A2B02D0324B1B6800E000232593259B002BF9
:402A00004AD1002E48D004A80021802200F021FAA40002ABE750284B02937F230393274B02AA1A602649274A1160C0461B681B0F0F2B04D1214B1B68FF22134008E01F4B93
:402A40001B681B0F0A2B02D01C4B1B6800E000232593259B002B1FD11D4B0293029B2D041D430295154B02AA1A601A49154A1160C0461B681B0F0F2B04D1104B1B68FF22E6
:402A8000134008E00D4B1B681B0F0A2B02D00B4B1B6800E000232593249B002B02D1FFF725FF24900198FFF7F5FB01E004232593259827B0F0BDC046B6D700000800004055
:402AC0000400008004000040B6D8000005000080B6D9000006000080002243088B4274D303098B425FD3030A8B4244D3030B8B4228D3030C8B420DD3FF22090212BA030CD0
:402B00008B4202D31212090265D0030B8B4219D300E0090AC30B8B4201D3CB03C01A5241830B8B4201D38B03C01A5241430B8B4201D34B03C01A5241030B8B4201D30B039A
:402B4000C01A5241C30A8B4201D3CB02C01A5241830A8B4201D38B02C01A5241430A8B4201D34B02C01A5241030A8B4201D30B02C01A5241CDD2C3098B4201D3CB01C01A96
:402B8000524183098B4201D38B01C01A524143098B4201D34B01C01A524103098B4201D30B01C01A5241C3088B4201D3CB00C01A524183088B4201D38B00C01A524143087D
:402BC0008B4201D34B00C01A5241411A00D20146524110467047FFE701B5002000F0FCF802BDC0460029F7D003B5FFF775FF0EBC4243891A1847C04603460B437FD400228E
:402C000043088B4274D303098B425FD3030A8B4244D3030B8B4228D3030C8B420DD3FF22090212BA030C8B4202D31212090265D0030B8B4219D300E0090AC30B8B4201D371
:402C4000CB03C01A5241830B8B4201D38B03C01A5241430B8B4201D34B03C01A5241030B8B4201D30B03C01A5241C30A8B4201D3CB02C01A5241830A8B4201D38B02C01ADE
:402C80005241430A8B4201D34B02C01A5241030A8B4201D30B02C01A5241CDD2C3098B4201D3CB01C01A524183098B4201D38B01C01A524143098B4201D34B01C01A5241A0
:402CC00003098B4201D30B01C01A5241C3088B4201D3CB00C01A524183088B4201D38B00C01A524143088B4201D34B00C01A5241411A00D201465241104670475DE0CA0F18
:402D000000D04942031000D34042534000229C4603098B422DD3030A8B4212D3FC22890112BA030A8B420CD3890192118B4208D3890192118B4204D389013AD0921100E0B7
:402D40008909C3098B4201D3CB01C01A524183098B4201D38B01C01A524143098B4201D34B01C01A524103098B4201D30B01C01A5241C3088B4201D3CB00C01A52418308FA
:402D80008B4201D38B00C01A5241D9D243088B4201D34B00C01A5241411A00D20146634652415B10104601D34042002B00D54942704763465B1000D3404201B5002000F0F3
:402DC0000BF802BD0029F8D003B5FFF715FF0EBC4243891A1847C0467047C04608B500210A2200F0F1F808BD014B18687047C0464C0100200E4B70B500251E1C0D4CE41A78
:402E0000A410A54204D0AB00F35898470135F8E700F0F4FD084B00251E1C084CE41AA410A54204D0AB00F35898470135F8E770BD083A0000083A0000083A0000103A0000BE
:402E4000002310B5934203D0CC5CC4540133F9E710BD031C8218934202D019700133FAE7704700000EB410B59DB002A9029008610B48822488604861012040421FABC88132
:402E8000084804CBA400006801938C8100F00AF90023029A13701DB010BC08BC03B01847FFFFFF7F4C010020F0B51E1C444B87B01B68059002930B1C039101921C78029AE9
:402EC0005D1C121950780822104001D02B1CF5E72D2C04D19D1C5C780123009304E000902B2C01D15C789D1C002E02D0102E0AD160E0302C5CD120222B789343582B52D119
:402F000010266C780235009F311C7B1E9F412D4BFF18381CFFF766FE381C0491311CFFF7DBFD0022071C131C029909194978480701D5303C07E00320084017D0372101285D
:402F400000D02031641AB44210DA511C0BD0BB4207D802D1049A944203DC73430122E31801E0012252422C780135DDE7181C511C0BD10098059A431E9841124BC018222316
:402F80001360019B002B0AD117E00099002900D05842019B002B10D0039B002A00D06B1E019A136009E03024002EACD10826AAE70A26A8E7302CA6D19DE707B0F0BDC046DC
:402FC00050010020FFFFFF7F38B5051C0C1C131C034A291C1068221CFFF766FF38BDC0464C010020F0B58E6885B0071C0C1C03920193B34245D390238A89DB001A423DD019
:4030000003250969236801985B1A029363695D43EB0F5D19029B6D1001331B189D4200D21D1C381C53050FD5291C00F01DFB061E13D0029A2169FFF703FFA289184B13409E
:4030400080221343A38111E02A1C00F065FB061E0CD1381C216900F0C1FA0C23402201203B60A38940421343A38117E0029B2661F61826606561019EED1AA560019BB342FD
:4030800000D2019E321C2068039900F092FA0020A3689B1BA36023689E19266005B0F0BD7FFBFFFFF0B59FB0029005938B890E1C171C1B0610D50B69002B0DD1402100F0C8
:4030C000D3FA30603061002804D10C23029A01381360D0E040237361002306AD6B6120336B761033AB763C1C2378002B03D1E31B049312D003E0252BF9D00134F4E7049B39
:403100000298311C3A1CFFF76DFF431C00D1ACE06A69049B944663446B612378002B00D1A3E00122002352426A6002A95432521801342B60EB60AB601370AB654F4F21783C
:40314000381C052200F02AFA002808D0C01B01278740381C2B68013418432860EEE72B68DA0604D55322202102A8121811701A0704D553222B2102A81218117022782A2ACD
:4031800001D0099B0EE0059A111D12680591002A01DB099204E05242EA60022213432B60013409E02278303A092A04D80A214B4301349B18F6E7099323782E2B18D1637864
:4031C0002A2B09D1059B02341A1D1B680592002B0DDA01235B420AE0002301342278303A092A04D80A214B4301349B18F6E70793234F2178381C032200F0D0F9002807D0FD
:40320000C01B40278740381C2B6801341843286021781C480622671C297600F0BFF9002812D0194B002B06D10722059B073393430833059314E005AB00930298291C321C17
:40324000124B00E000BF07E005AB00930298291C321C0E4B00F08AF80390039B013304D06B69039A9B186B613DE7B3890B985B0601D5012040421FB0F0BDC046C7390000A8
:40328000CD390000D139000000000000E52F0000F7B5171C01930A698B6800900C1C934200DA131C221C3B6043321278002A01D001333B6023689B0602D53B6802333B6063
:4032C000062523681D401ED0231C43331B785A1E9341226892061CD53020E1184031C870211C5A1C45310978A21840320233D1700FE0221C0123009801991932089EB0477D
:40330000431C0ED00135E3683A689B1A9D42F0DBDAE7221C009801994332089DA847431C02D10120404220E006232068E1683A6803400025042B03D18D1AEB43DB171D4094
:40334000A3682269934201DD9B1AED180027AF420ADA221C0123009801991A32089EB047431CDED00137F2E70020FEBDF0B58BB006920A1C43320793059004920A7E0C1C50
:40338000109B6E2A00D1A8E011D8632A22D009D8002A00D1B2E0582A00D0C2E045310A707C4A4FE0642A1DD0692A1BD0B9E0732A00D1A7E009D86F2A29D0702A00D0B0E0CE
:4033C000202209680A43226037E0752A1FD0782A33D0A6E00E1C1A684236111D196013683370A1E021681A68080606D4490604D5111D19600023D55E02E0111D19601568F3
:40340000002D3BDA2D23049A6D42137036E021681A68080606D4490604D51568111D1960ADB202E0111D196015685A4B227E03930A276F2A1DD108271BE0221C7821453265
:403440001170554A19680392081D226818600D68100602D4500600D5ADB2D30702D520231A4322601027002D03D1202322689A432260231C002243331A7002E00A27454BC9
:4034800003936368A360002B03DB0422216891432160002D02D1049E002B0ED0049E281C391CFFF79FFB039B013E5B5C281C3370391CFFF711FB051EF1D1082F09D12368D2
:4034C000DB0706D563682269934202DC3023013E3370049B9B1B23612BE009681A68080607D4490605D5111D19601368A28A1A8004E0111D1960136862691A600023049EF0
:40350000236116E01A68111D196016680021301C626800F043F8002801D0801B6060636803E0261C42363270012323610023049A1370079B05980093211C069B09AAFFF765
:40354000A7FE431C02D10120404221E0236905980699321C079DA847431CF4D023689B0705D4099BE068984212DA181C10E00025E368099A9B1A9D42F3DA221C01230598B5
:4035800006991932079EB047431CDCD00135EFE70BB0F0BDD8390000E9390000C9B28218904204D003788B4202D00130F8E70020704710B5814208D28B18984205D29B1AAC
:4035C000013A09D3995C8154FAE70023934203D0CC5CC4540133F9E710BD000030B500293ED004390B68002B00DAC9181D4A1368141C002B02D14B60116031E099420DD274
:4036000008680A189A4203D11368C3180B6053684B60216024E08A4203D8131C5A68002AF9D11D685C198C420BD10968691858181960904214D110685268091819605A6054
:403640000EE08C4202D90C23036009E008680C18944203D114685268001908604A60596030BDC046A8010020032370B5CC1C9C430834051C0C2C01D20C2405E0002C03DA8C
:403680000C2300202B6042E08C42F9D3204A1368101C191C002913D00A68121B0DD40B2A02D90A608B181FE08B4202D15A6802601BE04A685A600B1C17E00B1C4968E9E795
:4036C000144E3368002B03D1281C00F04BF83060281C211C00F046F8031C421CD0D00322C61C964386420AD11C60181C07210B301A1D8843821A0AD05142995007E0311A3F
:40370000281C00F02FF8431CBAD0331CECE770BDA8010020A4010020F8B5061C0C1C151C002904D1111CFFF79FFF041C18E0002A03D1FFF753FF2C1C12E000F025F8A842F2
:403740000ED2301C291CFFF78FFF071E07D0211C2A1CFFF775FB301C211CFFF73FFF3C1C201CF8BD38B50023064C051C081C2360FEF78CFA431C03D12368002B00D02B6080
:4037800038BDC046C40100200B1F1A68101F002A04DA891804390B68D018043870470000000000007F3201002564000000300F40000400400F4000041E300F401A310F4092
:4037C00004330F400B400F400D410F4002420F4006430F4002600F4038803C80580B5B045F01813383CC855587AA88038A1C940C9603980A99969A059B699C059E2AA50F91
:40380000A7F0B210B420B5FFB60FB75AD804D904DB04DF0106080E240F0119401E241F80240826402E0836103E043F0159405E80694079407B808C04C040C2E0CA40CC2043
:40384000CEC0D618DE09E210AA08AB01E004E6800340078018806F08704077088F08C030C610DA80DC601F0223085D80830289809F08ABC0C620C810D620E020E880EC80FF
:403880006A40DA02270882408B089640C804E60101011001030405060708090A0B0C0E0F101112131415161718191B1C1D1E1F2021222325262728292A2B2E2F30313233DB
:4038C0003435000043000020202020202020202028282828282020202020202020202020202020202020208810101010101010101010101010101004040404040404040458
:403900000410101010101010414141414141010101010101010101010101010101010101010110101010101042424242424202020202020202020202020202020202020269
:4039400002021010101020000000000000000000000000000000000000000000000000000000000000000000000000000000000000000000000000000000000000000000E3
:403980000000000000000000000000000000000000000000000000000000000000000000000000000000000000000000000000000000000000000000000000000000000007
:4039C00000000000000000232D302B2000686C4C0065666745464700303132333435363738394142434445460030313233343536373839616263646566000000F8B5C04621
:403A0000F8BC08BC9E46704779190000051D0000F8B5C046F8BC08BC9E46704751190000303A0000D0000020880000007000000000000000C80100200000C05D80BB0000FC
:403A400030000000006CDC02040404000000000000000000000000000000000000000000000000000000000000000000C438000000000000000000000000000000000000C4
:403A80000000000000000000000000000000000000000000000000000000000000000000000000000000000000000000EC000020C6380000000000000000000000000000FC
:403AC00000000000000000000000000000000000000000000000000000000000000000000000000000000000000000000000000000000000000000000000000000000000C6
:403B00000000000000000000000000000000000000000000000000000000000000000000000000000000000000000000000000000000000000000000000000000000000085
:403B40000000000000000000000000000000000000000000000000000000000000000000000000000000000000000000000000000000000000000000000000000000000045
:403B80000000000000000000000000000000000000000000000000000000000000000000000000000000000000000000000000000000000000000000000000000000000005
:407FC0002B111700002D00000000240000000000000000000000000000000000000000000000000000000000000000000000000000000000000000000000000000000000DD
:0200000490303A
:02000000873740
:0200000490402A
:200000000000000000000000000000000000000000000000000000000000000000000000E0
:0200000490501A
:0C000000000204A61193110004B898CA75
:0200000490600A
:0100000001FE
:00000001FF