:400000000010002011000000BB010000BB01000008B500F0A9F900F0D1F8000038B572B680220021D2002F4801F041F980222E480021D20001F03BF900232C4A2C48995C81
:40004000D2185278091802330A700E2BF5D12949294A022011609921284A0904116094213C25274AC90311602649274C0A7802430A702278AA43283D2A432270162480252A
:400080000A78ED0222430A70204A214C1360214A214B1A60214B186023682E302B43236000F028FD1E4A1F4B1F491A6020221F4B09201A601E4B103A1A6080221D4B120630
:4000C0001A601D4A1D4B25601A601D4A1D4B1A6000F09AFC092000F0C1FC00221A4B1A6038BDC04600300F4000400F40CC12000000430F40993300000C00014030500F40B1
:4001000038500F4000700F4001700F400003044000010B40B10D000008030440180304400600008004010B40BD0C00000C0202402002024008010B400F00008000000240F2
:4001400052000080400002400C020B4010B5064C2378002B07D1054B002B02D0044800E000BF0123237010BDF000002000000000C812000008B5084B002B03D007480849C9
:4001800000E000BF07480368002B00D108BD064B002BFBD09847F9E700000000C8120000F4000020D00000200000000008B562B600F06EFE00F01CFBFEE7FEE770B51049C1
:4001C000104B01394A1C15D000221E685C689D68A018AA4203D0B058A0500432F8E7021CDC68151AA54202D0002520C2F9E710330139E7E701F02CF8FFF7D8FFFEE7C046E1
:40020000010000003813000008B500239A000D49032B01D80C4989580C4801338150302BF4D1FFF7FBFE0022094B1A60094B1A68002A00D11A6080220121D20513680B435E
:40024000136008BDBB0100000000000000000020C8000020C0000020004770B5051C0E1C141C002802D0002000F016FC0020002C05D0013CAB191B5DC018C0B2F7E770BDB0
:40028000F0B57F23051C9D432E1C2B1CA3B00191C40980361A789446614602AA571BF9540133B342F6D17F2318406B461B79111C1354A0B200F0D0FA23B0F0BD013808B53A
:4002C0000B282FD8C901494200F0AEFF06080A0C0E10141216191B20174B13E0174B16E0174B0AE0174B12E0174B0BE0174B09E0174B02E0174B00E0174BC91816E0174BFA
:4003000005E0174BC9180878C0B213E0154BC9180A7848788B7800021B041843CB7810431B0606E0002000F0B7FB00210B7848780002184308BDC046C07F0000C17F000044
:40034000C57F0000C97F0000D07F0000D17F0000D67F0000D27F0000D47F0000D87F0000DC7F0000E07F00000C4B10B51A68102313400B4A00D113601368802B0DD1002463
:400380000220211C1460FFF799FFA04205D0211C0220FFF793FFFFF75FFF10BD00030B40C0000020F8B5041C0320211CFFF786FF211C061C0420FFF781FF211C071C0620C8
:4003C000FFF77CFF0025012828D00320211CFFF775FF0136F601F7192E1C0130C001B84209D203785A1ED2B2FD2A00D801265D19EDB20130F3E70120211CFFF75FFF6D420F
:40040000EBB20625834209D1002E07D0044BE4016042C0180121FFF733FF0025281CF8BDD17F0000F0B5C34CA544019000F096FC62B600250A23009503950293019AFF2351
:40044000002A00D0131C962128AC05AE201C4900321C00F08BFC019B002B03D0029B013BDBB20293029B002B02D00028E6D102E0002800D08CE03188062900D896E02278A7
:400480000423012A54D1E678A07836020643F21D8A4200D98CE0962149008A4200D987E0A419A07961792279172841D10020F3189BB2002B09D0BEAC9F4FE418E41924789D
:4004C000013B001980B29BB2F3E74042090280B20A43083382422BD16CE0342B00D0D0E0009B012B62D1032E60D173A80021802200F0DDFE8025972173AB581904ABAD19B6
:40050000F21EC918ADB200F0C9FE832D00D02EE1962204AB9B181D78013A04AB9B1818782D020543FF2D00D826E1012300930A23002404AAD480012128AA5370230AD37096
:40054000002311709470221D92B2002A09D0BEA97948891809180978013A5B189BB292B2F3E7BEAA754912195B4251189BB20B7073491B0A51180B70724B0734D2181723C9
:40058000137004AB9A1DA1B228A8962300F021FC019B002B00D151E7009B012B00D01EE1012300934AE7009B012B46D00423BFE70323BDE728AF7B783C79181C31380A2859
:4005C0002ED9614A1468002C26D0009A012A25D104AA568108AE137229AF00210C22301C079700F064FEB76006A8311CA0472623B488FF339C4202D9B368BB4207D0B2685B
:40060000002A01D1002C04D13368DBB291E70E238EE70E23141C8CE705238AE7052387E700F00CFEC1FF1400CFFF5BFF3500CFFF39004B005BFF5C009800002EB6D1301CA8
:40064000FFF7B0FE434243413B7170E0009B012BACD1012EAAD1002CA8D13C4B1B681B68DA0BD2B2DB09DBB2002A01D080235B003B711B0A7B71FF23BB7100230424FB711C
:4006800057E7009B012B91D1022E8FD933E7009B012B8BD19DE0009B012B87D12C33AC19FF339C4284DC73AB581929A9321C00F0F5FD0023A5B21C1C3BE7002E00D075E70F
:4006C00008AB191C224A351C11CA11C129AA03CB03C2012308240093331C2AE7009B012B00D063E7032E00D060E7BE797B7936021E43FF2E00D91AE721027118C901002075
:400700008022FFF7AAFD071C002C0DD1FF2E0BD1211C0520FFF7D2FD211C3F1A0620FFF7CDFDFFB23F1AFFB27F4228AB1F7100230124FEE604FDFFFFA7FDFFFFACFDFFFF4E
:40074000ADFDFFFFAEFDFFFF0C010020D4000020DC1200000020FFF725FE002802D18022214B1A6000F0FEFA00F098F91EE7012300250093023325E01C4B1B681A68D30991
:400780009BB2520601D001339BB224022D19ADB29D4219D3039B002B0AD1191C802208A800F085FDFF2008A900F056F801230393281C73A900F050F8002805D10123051C6C
:4007C0000093031C2C1CB4E60123002500930933F8E70025019BAB4200D12FE6E0E6BF239B009D44F0BDC046C0000020D400002038B50020FFF7D6FD431E98410625144C94
:400800004042236805401A680020C03AC021FFF724FD63681B78181AC0B2984203D123681B68002B02D1002000F036F9094C2368402B01D0002D03D000202060FFF7F2FD36
:400840001E20FFF7EFFD8023236000F027F938BDD4000020C0000020F0B50024ADB008940994FF2800D9AEE0A14200D1ABE0039080220CA800F012FD0222211C01940AAB9A
:400880009000C058002802D00918044301920132222AF4D1002903D1002C00D096E000E0002402947F224E494E4D0A914E4F5A604E4A2B603A60C0462B6805911B0F0692DB
:4008C0000F2B02D12B68DBB205E02A680023120F0A2A00D02B680893089E002E00D07CE000F0F0FA424A434B116809961960089B04900792002B19D13F4A03990A920A9A0F
:4009000009040A430AA90A9229603C49354A3960C0462968090F0F2902D11368DBB204E01168090F0A2900D013680893089E002E3DD1002C3BD00CA8311C802200F0B7FC39
:40094000019B029A0AAC9B001A51059B069A0A937F2363602C60234B3A60C0462A68120F0F2A02D11E68F6B204E01A68120F0A2A00D01E680896089B002B18D1204A03994E
:400980000A920A9A08041F4910430A90154A2C603960C0462968090F0F2902D11368DBB204E01168090F0A2900D013680893099B002B04D10F4A079912680A600993049809
:4009C00000F084FA09E00423089306E0019A0124920098589950029064E708982DB0F0BDB6D7000008000040040000400400008008010B4010010020B6D800000500008091
:400A0000B6D90000060000801F2800D901BE034B8000C318186819607047C0464000002038B5041C0D1E032D00D901BE1F2C00D901BE00F047FAA308074A9B009B18032280
:400A4000144094400634A240A540196891432943196000F03BFA38BD00E400E01F2318401E3B8340181C014B1860704700E100E01F2318401E3B8340181C014B18607047AA
:400A800080E100E01F2318401E3B8340181C014B1860704780E200E001BE7047034A044913689BB20B4313607047C0460CED00E00400FA0510B5041C8022074B1202944259
:400AC00005D9186800F0F4F9044BE418F4E75868604300F0EDF910BDDC0000200080FFFF08B5034B1B7A584300F0E2F908BDC046DC000020F0B5051C87B000F0E3F9EB1E76
:400B0000049003932D2B5CD8314B1B789D4204D8304B1C78304BE4B21EE0304B1B789D4204D82F4B1C782F4BE4B215E02E4B1B789D4204D82D4B1C782D4BE4B20CE02D4BF6
:400B40001B789D4204D82C4B1C782C4BE4B203E02B4B1C782B4BE4B21B78039ADBB20193294B2A4F9A5C059302922F2A04D92A2D02D919263E6008E03F233E681E40029B86
:400B8000B34205D2214B029A1A60052000F090F91C4B1F4AED182B780520DBB213601D4B019A1C601C4B1A60FFF79AFF029BB34208D9059B039A05209B5C3B6000F078F9F5
:400BC00000E001BE049800F081F907B0F0BDC046C0F1FF0FC1F1FF0FC2F1FF0FC3F1FF0FC4F1FF0FC5F1FF0FC6F1FF0FC7F1FF0FC8F1FF0FC9F1FF0FCAF1FF0FCBF1FF0FB0
:400C0000CCF1FF0FCDF1FF0FE41200002CFF0B4028FF0B401CFF0B4020FF0B4008B500F051F9C021034A090213680B43136000F04DF908BD00010B4010B5802400F042F928
:400C40000749084B0A68E4011A4022430A600A6813408022120213430B6000F037F910BD00010B40FF3FFFFF70B5051C00F02AF90E4B041C1A68C0231B02134011D10C48C3
:400C80000C490540281C0E680B4A3240104308600A68012B01D1FFF7C1FF201C00F016F970BDFFF7C9FF0123E9E7C04600010B400404040010020B40FBFBFBFF042238B560
:400CC000224C2368134213D021490B6813420CD0204BDD6908681540A8430860D9699143D9611B69002B00D098470420FFF7BCFF80232268DB001A4215D015490A681A42F4
:400D00000DD0144AD56908682B4098430860D169114B0B40D3615369002B00D098478020C000FFF7A1FF80232268DB021A420CD0074A12681A4204D0064B9B69002B00D0EE
:400D400098478020C002FFF78FFF38BD10020B40EC00002014010020FFFBFFFF08B500F0CBF808BD08B500F0D5F808BDF8B5012700282CD000292AD0161C0D1C041C0937D8
:400D80005F4300F0F7F8002811D000F0F3F8071CAD204000FFF7A4FE00F0ECF88742F4D13B1EAB4200D92B1C3380002707E00120013FFFF77FFE002FE3D13B1C1037E5182B
:400DC000AC4204D000F0BCF820700134F8E7381CF8BD38B50C1C151C0123002805D0002903D000F00DF900232C80181C38BD000080220021E0200D4BD2041A601A68C000E2
:400E00001A600B4A11601A6802431A60C322094B92001A603122084B1960084B1A60084A084B1A60084A094B1A607047000105400801054024010540380105402801054020
:400E4000E216000014010540710B00000C01054038B50D1C041CAC4000F034F8024B1C6000F034F838BDC0460800054010B5012400F028F8054A13682343136000F026F83C
:400E8000201C1821FFF7E4FF10BDC0460000054010B5054C2378002B03D1FFF7A9FF01232370FFF7E3FF10BD34010020000000000230800804D0C0460138FDD1C046C04626
:400EC000C0467047EFF3108072B6704780F310887047C046C046C0468021064A08B5136809060B4313600B20FFF7B8FD00F006F908BDC0460000074010B5054C2378002B64
:400F000003D100F089F801232370FFF7E5FF10BD3801002008B50B20FFF7AAFD00F000F9054A0B2013685B005B0813600022034B1A60FFF7A7FD08BD00000740880F0740B3
:400F4000094B0A491A680B6800209A420AD00B685A1C403B581E83415B421A40044B985C0A60C0B27047C046D40100204C01002090010020044B1868044B1A681B68904286
:400F800000D24130C01A7047D40100204C01002030B5144A144C11682368994208D1134B19680F230B40082B02D0114B186017E01368591C3F3B5D1EAB415B421940236822
:400FC0009942FCD002240B4BC0B21C600A4B58540A4B11601A68224202D11A6822431A6030BDC04648010020440100200802074040020740800F074050010020880F07403F
:4010000038B5041C4518AC4204D02078FFF7C0FF0134F8E738BD000010B500241E4A1F4B1F491A601F4B204A1C60012313601F4A0B20116007211E4A11601E4A14601E4A60
:4010400013601E4A1E4B1A601E4B1C60FFF710FD0B200321FFF7E4FC1B490B20FFF7D4FC04221A4B1C601A4B1C601A4B1C601A4B1C601A4B1A601A4B1C601A68194B1A8066
:40108000194B1C60194B1C60194B1C70194B1C60194B1C6010BDC04609000002000007400702008040000740480007400003074004030740100307404400074007000080F8
:4010C000000207400402074049110000880E0740C80E0740480F0740080F0740C80F0740880F074040010020D40100204C010020D10100204801002044010020F021054A2B
:4011000013688B4360390B431360034B1A88034B1A6070470C00014040010020880F0740F021064A13688B431360054B1A68E423DB001340034A13807047C0460C00014003
:40114000880F07404001002008B5264B1B68002B00D09847244B1B685B071CD523490B685A1C403B581E83415B421A40204B1868204B1B68824203D120221F4B1A7003E0D5
:401180001E48DBB283540A601D4B1B681B07E5D104221C4B1A601C4B1B689B0721D51B4B1B491A680B689A4213D00B685A1C3F3B581E83415B421A40164B17489B5CDBB259
:4011C0000360164B0A601A680F231340082BE6D104E00221124A13688B4313600222114B1A6008BD3C010020CC0F0740D40100204C01002040030740D101002090010020E4
:4012000008030740C00F07408C0F07404801002044010020500100204002074008020740880F0740800F074002B4714649084900095C49008E4402BC7047C04603B4714627
:40124000490840004900095E49008E4403BC70470E4B70B500251E1C0D4CE41AA410A54204D0AB00F35898470135F8E700F052F8084B00251E1C084CE41AA410A54204D062
:40128000AB00F35898470135F8E770BD20130000201300002013000028130000002310B5934203D0CC5CC4540133F9E710BD031C8218934202D019700133FAE770470000DD
:4012C00080130000FE000000000000001820200850105404C608C808D40600009311A60411320101030405060708090A0B0C0E0F101112131415161718191B1C1D1E1F2054
:4013000021222325262728292A2B2E2F3031323334350000F8B5C046F8BC08BC9E4670477501000009020000F8B5C046F8BC08BC9E4670474D01000048130000D0000020FD
:4013400020000000E800000000000000C0120000C41200000000C05D80BB000030000000006CDC0204040400000000000000000000000000000000000000000000000000DF
:401380000010002091130000C51B0000C51B000008B5024B83F3088800F016FC00100020F0B5474680B472B6624D01222E1C0024614B1A7063001B195B00E95AEB1858883B
:4013C000B288000408430134002101F05CFB0636032CEFD1291C59481431802201F04AFB3C239846564FC3333D1CB8449C46002746461435634628682A789843002A0ED0CF
:40140000511E7C1CCAB27B00A7187C00F31834191A785978121802331170A342F8D104354545E7D130259922464BC0211D60464B09031A609923454A1B041360444A454C9D
:401440001360454A04261160444A02211360444A802713600122434BFF021A60424B0132187801433C20197021788143283801432170162118783D4C01431970CB213C4B3C
:40148000302019603B493C4B1960DB213B4B49001A603B4B19603B4B3739FF3919603A4B643919609021394B89011960384B39491E60394B1A60394B1960394B1A6023681A
:4014C0003B43236001F00EF8364A374B37491A602122374B09201A60364B103A1A60364B364A1D6010231360354A13602022354B1A608222344B12061A60344B344A2760C0
:401500001360344A11608021334A09061160334A33491360334A344B1A6001F0A9F8092001F0D2F80022314B1A60314B1E6004BC9046F0BD2C2D00001C700F4080320F40C9
:40154000AC2D0000040001400C00014000500F4010500F4001700F4018500F4020500F4030500F402000004000700F4000010B40000004401205480008000440000104400E
:401580000801044018010440000204400802044018020440B10D00000003044008030440180304400600008004010B40030000C00C0202401C0202402002024024020240C7
:4015C000340202403C02024008010B400300008000000240400002408000024004000240E5270000F9000080440002400C020B4000031A4010B5064C2378002B07D1054B8A
:40160000002B02D0044800E000BF0123237010BD5001002000000000D42B000008B5084B002B03D00748084900E000BF07480368002B00D108BD064B002BFBD09847F9E700
:4016400000000000D42B000054010020D00000200000000008B500F081FD0122014B1A7008BDC046C401002008B5012000F058FB0122014B1A7008BDAC01002010B5002998
:4016800018DB302303700E4BCA174B43920F51188910591A841D431C0A0F0901303209091A708A00511801334900A342F4D10023837110BD2D234942037009B2E3E7C0469B
:4016C000DC680000F0B544465F4656464D46F0B400248BB006AB0120DC8000F0ADFC00F0CDFD00F0F9FB00F0C5FB00F0EFFC00F03BFD012000F026FB00F0D4FAD44800F08C
:40170000B9FCD44BD4481C6000F016FDD34800F0E9FDFA20800000F0E3FF012001F0B6F862B6002000F0BEFD002300259846CC4ECC4F04930393019305933378002BFCD0E4
:40174000002333703A7823B2934200DDC8E03A785242934200DAC3E0C34AC44912888A4200D954E1C04BC04A1B88059401339BB2138000230493039300F0F2FA002800D112
:40178000BBE000F0F5FA002800D1C5E000F04CFC002800D1CFE0002000F088FB401083B299464A467B7812B29B00D31ADB105D19ABB21DB2ED43ED171D40AD4A2BB29342A4
:4017C00001DDAC4B1D8800F073FD6A4650815389ADB29B46039B8246002B00D1B3E05B4618B24346A44A934200DA131C9846A34B984500DD98467988BB88FA889BB29C4664
:40180000019B89B292B2002B46D14143434660465843C311CB1851460C1B24B254431C1B3B7A002B00D192E0002C00DA01E1012000F07CFA924B24129C4200DD1C1C28B272
:40184000201A002800DCE0E0039B002B24D100F05FFA8C4B1B78012B25D08B4B1B78002B7BD08A4B1B78002B0AD00023874A13707B7A002B04D0844B1B78DBB2002B01D036
:401880005C465AE7012280495C460A70804A13600222704B1A6050E7012000F039FA794B1B78012BD9D17B4B1C780023E4B2A4460824784A0133D15C06A85A1E001981549F
:4018C000052BF5D1644608A801F0A8F82B3C06ABE4B2D8804A2C57D86F4BA4001B599F46002000F0A9FB012000F0DEFF0123019300F036FA002800D043E700F09DFB002061
:4019000000F0C4FF012000F0CFFF0123019300F02FFA002800D039E700F08EFB002000F0B5FF012000F0C0FF0123019300F07CFB002800D02FE700F07FFB012000F0B4FFC4
:401940000123019327E75B4618B2804449E7002C74DB002000F0EAF96CE75146F531FF3109B24E48FFF78AFE4B4699004944490009B24B48FFF782FE73E7391C06AB093167
:40198000981D012200F0F2FB00233E4A137064E7391C06AB0831981D012200F0E7FBF3E706ABB91C981D022200F0E0FBECE706AB391D981D022200F0D9FBE5E706AB981D63
:4019C000391C012200F0D2FBDEE706ABB91D981D022200F0CBFBD7E706AB791C981D012200F0C4FBD0E700F063FC06ABDB88C01880B200F057FCC7E700F05AFC06ABDB88DD
:401A0000C01A80B200F04EFCBEE701201CE7049A002A01D1013203926A461421525ED31A0333062B0CD900230F4A138001330493A2E60020644200F079F9FBE66442F6E67A
:401A400000F040FF0028EED10123049394E6C046391B0000880F07405516000069160000AC010020202D0000AE010020CF070000FE0F0000D82B000000F0D8FF001027002C
:401A8000FF0F0000C50100206C010020C4010020C00100209C010020DC2B0000B0010020B801002010B51E4A1378DBB2052B10D81C499B00CB589F461B4C2368052B0DD805
:401AC00023681A4AD05CC0B200F02AFA23680133236010BD144C2368052B1ED90023236013780133DBB21370F3E700243B20147000F016FA0E4B1C60EBE713782420013328
:401B0000DBB2137000F00CFAE3E7137820200133DBB2137000F004FADBE72368054AD1E76C010020082D0000C0010020B0010020880F0740B801002038B51C4B1B68082B4F
:401B40000DD01A4B1B68042B00D038BD0225184C23681D42F9D0FFF7A5FF2560F5E7154B1B685B07EDD500F049FAC0B23B2812D0114B1A780E2A0AD81A781049D2B288542F
:401B80001A780132D2B21A7000220D4B1A700422084B1A60D9E7084A08491378DBB2C854002313700122064B1A70F0E7000E0740800F0740C00F0740C60100209C01002064
:401BC000C5010020FEE7C046F8B5104E002E18D000200F4DA9682C686A68002905D00023E758043380C29942FAD1E9680023002903D0D05004339942FBD1013E1035002E61
:401C0000E8D100F011FFFFF75DFDFEE7010000000831000038B500220023114C1148124D04E00133A1500432302B08D0011C032BF7D851590133A1500432302BF6D1FFF78C
:401C4000AFFB0022094B1A60094B1A68002A00D11A6080220123D20511680B43136038BD00000020C51B000080130000C8000020C000002008B500F035FE0123074A11688A
:401C80000B43136000F032FE00F02CFE8022044B52041A6000F02AFE08BDC046000005400800054010B5124A117800291DD180208024104BC00418601868A4022043186056
:401CC0000D48016019681E201960C3210B4B8900196001230A490B600A49086080200A494001086009490B601370FFF7C3FF10BD6D01002000010540080105402401054030
:401D00003801054028010540140105400C010540024B0004000C18607047C0460C010540014B18607047C046300105400121044A084013688B43DBB2184310607047C0461A
:401D400000010440031C042004499B000A688243D2B21840104308607047C04600010440024B1868C006C00F7047C04604020440024B18680007C00F7047C0460402044010
:401D800008B50E20032100F07FFC0E20204900F06FFC01221F4B1A601F4B1B68002B34DB1E491F4A13680B4313601E4A1E4B80211A601E4A1E4B49021A6080221D4B1206D9
:401DC0001A601D4B1D4A13601D4A13601D4A13680B431360002201211B4B1A601B4B1A601B4B19601B4B013119601B491B4B08680340C020800403430B60194B1A60194BE2
:401E00001A80194A194B1A6008BD1949C9E7C046CD1E000020001A4080031A40C002005000001A40AC000A8004001A400000DC0518001A401C001A400400040010001A406D
:401E400014001A4000031A4028021A4038021A4018021A40000F1A4030001A40FFFFFFDF80001A40CC010020204E0000C8010020C002105010B50B4C2378002B0CD00A4BE9
:401E80001A68002A07DB80211A6809060A431A600A2000F049FC10BDFFF772FF01232370EDE7C0466E01002000001A4008B5002804D1054B186880B200B208BD002000F04B
:401EC0000DFC0020F8E7C04680011A40014B1A681A60704710021A4010B5084C2378002B03D100F02BF8012323708021044A090613680B43136000F06FF810BD7001002022
:401F000000000740014B18687047C046400307400F20024B1B6818407047C046080307400F2204490B681340082BFBD0024B18607047C0460802074040020740144A154B85
:401F400010B51A60002301210724134A13481360134A1160134A026013480460134803601348016013490A60134A1360134A1360134A1360134A1360134A13600422134B67
:401F80001A60134B023A1A601A68124B1A8010BD0900000200000740400007400003074048000740070000800403074010030740440007400002074004020740880E07406E
:401FC000C80E0740480F0740080F0740C80F0740880F074072010020F02205490B689343603A13430B60034B1A88034B1A6070470C00014072010020880F074008B5FFF755
:4020000087FF031C0020002B08D1D822054B92001968114201D000201A6008BDFFF772FFF3E7C046C00F0740024B18680007C00F7047C04604000440031C042004499B00C7
:402040000A688243D2B21840104308607047C0460000044010B5041C00F044FC044AA40713689B009B082343136000F03FFC10BD08E400E010B58024054B24011C60054B83
:40208000D8660120FFF7E6FF034B1C6010BDC04680E100E00000002000E100E008B500F021FC0223074A11680B43136000F01EFC00F018FC8022044B92041A6000F016FC9C
:4020C00008BDC046000005400800054008B50B4A1378002B0FD10A480A4908600C200A490860FA20094980000B600949086009490B6001331370FFF7D1FF08BD7401002042
:4021000000070002400105406401054078010540540105404801054010B5041C00F0E2FBC021044AA40113688B432343136000F0DDFB10BD00E400E010B50124044B1C60CA
:40214000044B18640220FFF7E7FF034B1C6010BD80E100E00000002000E100E00122014B1A60704780E200E07047C046F0B54D4644465F465646F0B480248D18031CA1B0DE
:4021800001202402A54232D84804000E8246CC0B24025444E401002A30D099466B4690460F1CEB4600251E1B221C803208E0A84508D94B465B5D013533550134944206D073
:4021C000A742F4D92378335501349442F8D15046594600F09BF801239C46E244454502D2803E0028E0D0012801D90120404221B03CBC90469946A246AB46F0BD0020F6E7B3
:40220000072108B5154B1A788A4302390A431A701A7802398A431A70114A13785B0605D510483D31038813781942FBD102230E4A5B4213800D4A138000220D4B1A70084BB2
:40224000013A1B780B4B1A8000F04CFB10230A4A11780B43137000F049FB08BD70000F4063000F4084100F4044100F4004100F4083000F4064100F4093000F4010B5074CA6
:402280002378002B03D1FFF7BBFF012323708023034A11780B43137010BDC0467501002070000F40014B18807047C04604100F40024B1B78024B188880B2704702000F40A0
:4022C00084100F4010B5041C00F00CFBC021044AA40113688B432343136000F007FB10BD10E400E010B58024054B64021C608023044AD0500320FFF7E5FF034B1C6010BD56
:4023000080E100E00000002000E100E0F0B55F4656464D4644460023F0B4A5B000930193FF2865D8002963D0071C802204A800F0A1FB002502230021002602AC9A00A258A5
:40234000002A02D01E1C891815430133222BF5D1002957D0002398469946584B584902937F23584A6360584B1C601160C0461A68120F0F2A51D01A68120F0A2A4BD01B68CF
:402380000093009D002D35D100F0ACFA4F4B504A1B6801951360009B83469246002B15D14C4B3A040293029B4B4913430293454A454B1C601160C0461A68120F0F2A30D0A3
:4023C0001A68120F0A2A67D01B680093009B002B02D14346002B29D1019B002B04D1524611683A4A11600193584600F07FFA01E004230093009825B03CBC90469946A24698
:40240000AB46F0BD002DA5D0B300E258E150012391469846A1E70023B2E71B68F0321340AEE71B68F03213400093CFE704A80021802200F028FB4B46B600A3511F4B2049C3
:4024400002937F231F4A63601F4B1C601160C0461A68120F0F2A22D01A68120F0A2A22D01B680093009B002BB6D11C4B3F040293029B1B491F43134A134B02971C601160BF
:40248000C0461A68120F0F2A12D01A68120F0A2A0BD01B6800939FE70023009396E71B68F0321340DDE70023DBE70023009393E71B68F032134000938EE7C046B6D7000073
:4024C00004000080040000400800004008010B4078010020B6D8000005000080B6D9000006000080F8B55F464D4644465646F0B4041C00F0F7F9E51E071C2D2D3BD8484BE2
:402500001B789C4241D8474B1B78DBB29A46464B1B78DBB29946454B9B465B5D98462F2B01D92A2C4BD83F26414B1A681640B04504D2424605201A6000F0CAF93D4B3E4ABD
:402540009C4664442378DBB2136052463B4B1A604A463B4B1A603B4B1B789800C01800F0B7F9B04508D95B465A5D314B05201A6000F0AEF900E001BE381C00F0B7F93CBC7A
:4025800090469946A246AB46F8BD2F4B1B789C420CD92E4B1B789C422BD82D4B1B78DBB29A462C4B1B78DBB29946B4E72A4B1B78DBB29A46294B1B78DBB29946ABE71922DD
:4025C0001B4B05201A6000F083F91A4B1A4A9C4664442378DBB213605246184B1A604A46174B1A60174B1B789800C01800F070F9B9E71B4B1B789C4208D81A4B1B78DBB201
:402600009A46194B1B78DBB2994684E7174B1B78DBB29A46074B1B78DBB299467BE7C046C0F1FF0FC1F1FF0FC2F1FF0FB02F00002CFF0B40CDF1FF0F28FF0B401CFF0B4098
:4026400020FF0B40D4000020C3F1FF0FC6F1FF0FC7F1FF0FC8F1FF0FC4F1FF0FC5F1FF0FC9F1FF0FCAF1FF0FCBF1FF0FCCF1FF0F1F2800D901BE034B8000C31818681960BA
:402680007047C0464000002038B5041C0D1E032D00D901BE1F2C00D901BE00F023F9094AA308944603221440E4000634A2409B0063441968A54091430A1C2A431A6000F044
:4026C00015F938BD00E400E01F2318401E3B8340181C014B1860704700E100E001BE7047F8B58025071C2D02A84214D9041C0B4E706800F0EDF80A4B9C466444AC42F7D83A
:40270000084BFB18DB0BDB036744FF1AB068784300F0DEF8F8BD014EF8E7C046D40000200080FFFFFF7FFFFF08B5034B1B78584300F0CEF808BDC046D400002008B500F0E0
:40274000D1F8C021034A090213680B43136000F0CDF808BD00010B4010B5802400F0C2F80749084B0A68E4011A4022430A600A6813408022120213430B6000F0B7F810BD77
:4027800000010B40FF3FFFFF38B5051C00F0AAF8104B041C1A68C0231B021A4210D0FFF7DBFF0D4A0D4811680D4B28400B40184310601368FFF7C2FF201C00F097F838BD0B
:4027C000054A06481168064B28400B40184310601368F1E700010B4010020B4004040400FBFBFBFF254B10B51A680423134206D0234A11680B4233D10420FFF7C5FF1F4B74
:402800001A688023DB001A4207D01D4A1168194217D18020C000FFF7B7FF184B1A688023DB021A420CD0164A12681A4204D0154B9B69002B00D098478020C002FFF7A4FF56
:4028400010BD1049CC691068234098431060CA690D4B1340CB614B69002BDAD09847D8E70849CC6910681C40A0431060CA699A430B69CA61002BBFD09847BDE710020B40B0
:40288000E40000207C010020FFFBFFFF031C042004499B000A688243D2B21840104308607047C04600030440031C08200449DB000A688243D2B21840104308607047C04688
:4028C00000030440014B1878C0B2704762000F400230800804D0C0460138FDD1C046C046C0467047EFF3108072B6704780F310887047C046C046C046002243088B4274D3D1
:4029000003098B425FD3030A8B4244D3030B8B4228D3030C8B420DD3FF22090212BA030C8B4202D31212090265D0030B8B4219D300E0090AC30B8B4201D3CB03C01A524198
:40294000830B8B4201D38B03C01A5241430B8B4201D34B03C01A5241030B8B4201D30B03C01A5241C30A8B4201D3CB02C01A5241830A8B4201D38B02C01A5241430A8B426F
:4029800001D34B02C01A5241030A8B4201D30B02C01A5241CDD2C3098B4201D3CB01C01A524183098B4201D38B01C01A524143098B4201D34B01C01A524103098B4201D3A3
:4029C0000B01C01A5241C3088B4201D3CB00C01A524183088B4201D38B00C01A524143088B4201D34B00C01A5241411A00D20146524110467047FFE701B5002000F00CF82E
:402A000002BDC0460029F7D003B5FFF775FF0EBC4243891A1847C0467047C04608B500210A2200F0C9F808BD0E4B70B500251E1C0D4CE41AA410A54204D0AB00F3589847B3
:402A40000135F8E700F04EFB084B00251E1C084CE41AA410A54204D0AB00F35898470135F8E770BDF0300000F0300000F0300000F8300000002310B5934203D0CC5CC45426
:402A80000133F9E710BD031C8218934202D019700133FAE770470000F0B51E1C444B87B01B68059002930B1C039101921C78029A5D1C121950780822104001D02B1CF5E7D6
:402AC0002D2C04D19D1C5C780123009304E000902B2C01D15C789D1C002E02D0102E0AD160E0302C5CD120222B789343582B52D110266C780235009F311C7B1E9F412D4BC9
:402B0000FF18381CFFF77EFF381C0491311CFFF7F3FE0022071C131C029909194978480701D5303C07E00320084017D03721012800D02031641AB44210DA511C0BD0BB4299
:402B400007D802D1049A944203DC73430122E31801E0012252422C780135DDE7181C511C0BD10098059A431E9841124BC01822231360019B002B0AD117E00099002900D040
:402B80005842019B002B10D0039B002A00D06B1E019A136009E03024002EACD10826AAE70A26A8E7302CA6D19DE707B0F0BDC0464C010020FFFFFF7F38B5051C0C1C131C30
:402BC000034A291C1068221CFFF766FF38BDC0464801002000000000FE0F0000E619000088190000F81900008819000088190000881900008819000088190000881900004A
:402C00008819000088190000881900008819000088190000881900008819000088190000881900008819000088190000881900008819000088190000881900008819000084
:402C40008819000088190000881900008819000088190000881900008819000088190000881900008819000088190000881900008819000088190000881900008819000044
:402C8000881900008819000088190000881900008819000088190000881900008819000088190000881900008819000088190000881900008819000088190000D8190000B4
:402CC000CA19000088190000BC1900008819000088190000AE190000881900008819000088190000881900008819000088190000A019000088190000901900008819000008
:402D0000881900007A190000D21A0000FA1A0000B81A00000A1B0000D41A0000EA1A0000FFFFC409000000000001000000300F40800200330F40000100400F400004000093
:402D40001F00000040070008180103120600112000064011200000000018000300102004100004400700080001001200000000004000202000401F1F000000000000450001
:402D8000500100000045C32E3FFFFFFF00AF0701180000000F00000004040404101100014000800040408000400080004020800000000000000000000000000000000000E0
:402DC00001000F4035300F402C310F4023320F403C330F400A400F400E410F4002420F4006430F4002600F40836F07020E02120113081904230529082F083104320133022B
:402E00003402350137083A0B3F415287580459045B045C315D105F01820183FF851987668D4B8F349201938094019507977898019980A001A12AA355A801A97FAB80AE0204
:402E4000B003B1FFBF01D608D804D904DB04DC01DD30DF01030206800A400E400F1815011608178019101A401B0D1F02204222282312278029122B022D012F8831013220B5
:402E8000350236283A043E883F025C095F606502668C67046828695471018740C011C278C4D0CAADCCE5CED2D6F0D8F0070415011702220129032B042D022F01310736014F
:402EC0004040410149FF4AFF4BFF4DA04F015018580459045A045B045C135D015F016040628064406540668068406A806C406D206E8000290140020209820B1010A8168021
:402F000019851F802009231027402A012E802F08308032223608388039143F044340474248914A205040518A521159855B205C4061086210810283209040915493049A807E
:402F40009B02A029A208A308A780AF20B409C00FC20DC41ECA31CC4DCE4ED098D208D61FD806E004E280E840EC10000804020B010F046F048404C030C2C0DA80E4401B027F
:402F800027045E2083028A109F04AF04B401B701C610C820D620E020E8406A40DA022002824088019640C808E201010A100A0000030405060708090A0B0C0E0F101112135B
:402FC0001415161718191B1C1D1E1F2021222325262728292A2B2E2F3031323334350000430000202020202020202020282828282820202020202020202020202020202084
:403000002020208810101010101010101010101010101004040404040404040404101010101010104141414141410101010101010101010101010101010101010101101066
:4030400010101010424242424242020202020202020202020202020202020202020210101010200000000000000000000000000000000000000000000000000000000000FC
:403080000000000000000000000000000000000000000000000000000000000000000000000000000000000000000000000000000000000000000000000000000000000010
:4030C000000000000000000000000000000000000000000000000000000000000000000000000000F8B5C046F8BC08BC9E4670471D160000151C0000F8B5C046F8BC08BC7B
:403100009E467047F515000018310000D0000020800000008000000000000000300000000000C05D80BB0000006CDC020404040000000000000000000000000000000000D3
:4031400000000000000000000000000000000000E02F0000000000000000000000000000000000000000000000000000000000000000000000000000000000000000000040
:4031800000000000000000000000000000000000E8000020E22F000000000000000000000000000000000000000000000000000000000000000000000000000000000000F6
:4031C00000000000000000000000000000000000000000000000000000000000000000000000000000000000000000000000000000000000000000000000000000000000CF
:40320000000000000000000000000000000000000000000000000000000000000000000000000000000000000000000000000000000000000000000000000000000000008E
:40324000000000000000000000000000000000000000000000000000000000000000000000000000000000000000000000000000000000000000000000000000000000004E
:40328000000000000000000000000000000000000000000000000000000000000000000000000000000000000000000000000000000000000000000000000000000000000E
:407FC000449113000026000000801E0000000000000000000000000000000000000000000000000000000000000000000000000000000000000000000000000000000000D5
:0200000490303A
:020000004D0DA4
:0200000490402A
:200000000000000000000000000000000000000000000000000000000000000000000000E0
:0200000490501A
:0C000000000204A61193110004B55EA0DC
:0200000490600A
:0100000001FE
:00000001FF