:400000000010002011000000C5010000C501000008B500F049FA00F0D7F8C04638B5144C23688025ED022B432360302000F06CFE104A114B1A601022104B1A601032104B63
:400040001A60802212060F4B1A6025600E4A0F4B1A600F4A0F4B1A6009200F4900F0EEFD092000F0CBFD00220C4B1A6038BDC04600010B400600008004010B400C020240FD
:400080002002024008010B4003000080000002400F00008040000240190F00000C020B4010B572B6002410E01F4863001A195200821891881B195B001A5AC318588800046C
:4000C000104300F0EBF80134E4B2012CECD91649081C0C30103100F0C7F8144A144B1A6099221204134B1A609422D203124B1A60124B197802220A431A70114802783C2113
:400100008A4328390A430270197816220A431A700E220C4B1A600C4A0C4B1A600C4B02221A60FFF77BFF10BD80150000993300000C00014030500F4038500F4000700F40C5
:4001400001700F4000030440B10D0000080304401803044010B5064C2378002B07D1054B002B02D0044800E000BF0123237010BDF0000020000000007C15000008B5084BEA
:40018000002B03D00748084900E000BF07480368002B00D108BD064B002BFBD09847F9E7000000007C150000F4000020D00000200000000008B562B600F0BCFF00F0E6FB9B
:4001C000FEE7C046FEE7C04670B50F4E0F4D13E029686B68AC68002202E001C901C30432A242FAD1E868002202E0002102C304328242FAD11035013E002EE9D101F082F992
:40020000FFF7D8FFFEE7C046010000005C16000008B500230AE0032B03D89A000D49505800E00D4899000D4A885001332F2BF2D9FFF736FF00220A4B1A600A4B1B68002BB3
:4002400001D1084B1A608022D205116801230B43136008BD00000000C501000000000020C8000020C0000020F0B50025002711E0BB00C658F3B2FF22964308E06A008A1847
:400280001478A419527822700135013BDBB2002BF4D10137002FEBD0F0BDC04608B50A1C002101F05EF908BD002306E04218013A12789B189BB2013989B20029F6D158429D
:4002C00080B270470047C04608B58022024B1A6000F0ECFC08BDC046C0000020F0B583B00D1C6B469E1DDA8001230B704870141CAA70130ACB70171DB9B2281CFFF7D4FFB3
:40030000E855631D000AE854A31D1722EA540734A1B2281C321C962300F094FE03B0F0BD70B5051C0E1C141C002802D0002000F083FC002004E0013CAB191B5D1818C0B280
:40034000002CF8D170BDC04670B5A0B0051CC0097F232C1C9C43002304E01A5D6E46F25401339BB27F2BF8D97F231D406B4659550004000C694600F055FB20B070BDC04659
:4003800008B50C2857D880003A4B1B589F46C9014942394B9C466144012351E0C9014942364B9C46614404234AE0C9014942344B9C466144022343E0C9014942314B9C4607
:4003C000614404233CE0C90149422F4B9C466144012335E0C90149422C4B9C46614401232EE0C90149422A4B9C466144022327E0C9014942274B9C466144022320E0C90147
:400400004942254B9C466144022319E0C9014942224B9C466144042312E0C9014942204B9C46614401230BE0C90149421D4B9C466144042304E0002000F0FEFB02230021C6
:40044000012B02D10878C0B200E00020022B03D10A78487800021043042B0AD10A784B781B021A4388780004031C1343C8780006184308BDA0150000C07F0000C17F000017
:40048000C57F0000C97F0000D07F0000D17F0000D67F0000D27F0000D47F0000D87F0000DC7F0000E07F000008B50D4B1B68DB0602D400220B4B1A600A4B1B68802B0ED164
:4004C0000022084B1A6002200021FFF759FF002805D002200021FFF753FFFFF7F3FE08BD00030B40C000002070B5051C0320291CFFF746FF441CE4010420291CFFF740FF4E
:4005000024180620291CFFF73BFF012826D00320291CFFF735FF0130C0010023002608E001784A1ED2B2FD2A00D801265B18DBB20130A042F4D35B42DCB20120291CFFF724
:400540001FFF84420CD1002E0CD0ED016D42064BE8180121FFF7F8FE002004E0002002E0062000E0062070BDD17F0000F0B55F4656464D464446F0B4BB4CA544051C00F05D
:400580001DFD62B600239B46984600930A240027002D01D1FF2300E02B1C70A896214900B24A02AEB446624400F010FD002D01D0013CE4B2002C01D00028E9D1002800D0EE
:4005C000D2E1AA4B02AA944663441B88062B24D970AA1278012A22D170A9CA78120289780A43171C111C07329A421AD896235B009A4218D87A1D70AB9E5C3202381D1E5CE0
:40060000164306315B5C172B0FD181B270A8FFF74BFEB0420BD100260AE0042608E0042606E0032604E0032602E0042600E00826002E00D04FE170AB1A7992465A78131CC2
:40064000313BD9B20A2900D91AE18B008849CB589F464346012B00D03FE1002F00D03FE10020FFF741FF4342434170AA1371012273E14346012B00D035E1012F00D035E12F
:400680005346002B00D034E17A4B1B681B68DA0BD2B2924502D15B041B0E05E0924501D9002301E080235B0070AA13711B0A5371FF2393710023D37104224EE1342A0DD1EE
:4006C0004346012B00D017E1032F00D017E125A800214C3200F045FF80239B464346012B00D00FE1022F00D80FE125A85844FA1EC021FF3102AB9C46614400F029FF3B1CBC
:400700005B449BB2832B00D002E170AA93791B02527913439B46FF2B00D90A26002E00D0FCE053461F025F44BFB2524B1B681A68D3099BB2520601D001339BB29F4200D224
:40074000EFE0009B002B0AD105A80021802200F008FFFF2005A900F065F901230093381C25A900F05FF9002800D00A2600239B4680270022F1E04346012B00D1F2E004261E
:400780000022EAE04346012B00D0D0E05B46DB1996225200934200D9CCE025A8584471A93A1C00F0D5FE5B46DB199BB29B460022D3E0002F00D0C0E005AA2F4B03CB03C290
:4007C00071AA05AB03CB03C200239B46013398460822C2E04346012B00D0B1E0032F00D0B1E070AA93791B02527913439946534619024944C9014B46FF2B00D90A26002ED0
:4008000000D0A3E000208022FFF78AFD031C0190524612024A4492B2514600290FD1FF2A0DD10520FFF7ACFD019B1B1ADBB2994606200021FFF7A4FD4B461B1ADBB25B4282
:4008400070AA1371012288E00020FFF74DFE002802D18022094B1A6000F0B4FB00F026FA0426002279E0C0460CFDFFFFE6020000D4150000D400002000160000C000002067
:40088000414B1B68002B63D04146012963D102A90A71CF8071AA049200210591069105AE079203A8311C9847B2882623FF339A4203D971AB0799994207D0079B002B01D1D5
:4008C000002A05D1059BDEB247E00E26002244E00E26002241E000223FE0042600223CE00426002239E00426002236E00426002233E00426002230E0042600222DE0042602
:4009000000222AE00426002227E00426002224E000239B468027032600221EE0802700221BE000239B4680270A26002215E00426002212E0032600220FE0042600220CE08E
:400940000426002209E00426002206E0002204E00526002201E005260022301C70A9FFF7BDFC01E000239B46002D00D110E64346012B00D10CE6BD239B009D443CBC904600
:400980009946A246AB46F0BD0C01002038B50020FFF7AAFD002801D0062400E00024154D2B681A68C03A0020C021FFF7B9FC6B681B78C01AC0B24042C0B2834204D10D4B1F
:4009C0001B681B68002B02D1002000F035F90A4B1B68402B01D0002C05D00022064B1A600020FFF7C3FD1E20FFF7C0FDFFF76CFC38BDC046D4000020C0000020024B1A68F0
:400A0000024B1A600020704708010B4010010020024B1A68024B1A60002070471001002008010B40F0B5A7B0002325932493FF2800D9CDE0002900D1CAE0051C04A8802253
:400A400000F086FD022300200021002408E09A0002AE9259002A02D0891810431C1C0133212BF4D9002903D1002803D1002602E0002600E00126002E06D0A30002AA9F586F
:400A8000002202A95A5000E00027544B02937F230393534B02AA1A605249534A1160C0461B681B0F0F2B04D14D4B1B68FF22134008E04B4B1B681B0F0A2B02D0484B1B6846
:400AC00000E000232593259B002B00D082E000F04DFB0190FFF792FF2490259B002B1FD1424B0293029A2B04134302933C4B02AA1A603F493C4A1160C0461B681B0F0F2B4E
:400B000004D1374B1B68FF22134008E0344B1B681B0F0A2B02D0324B1B6800E000232593259B002B4AD1002E48D004A80021802200F017FDA40002ABE750284B02937F23A0
:400B40000393274B02AA1A602649274A1160C0461B681B0F0F2B04D1214B1B68FF22134008E01F4B1B681B0F0A2B02D01C4B1B6800E000232593259B002B1FD11D4B02934E
:400B8000029B2D041D430295154B02AA1A601A49154A1160C0461B681B0F0F2B04D1104B1B68FF22134008E00D4B1B681B0F0A2B02D00B4B1B6800E000232593249B002B31
:400BC00002D1FFF725FF2490019800F0D3FA01E004232593259827B0F0BDC046B6D70000080000400400008004000040B6D8000005000080B6D90000060000801F23184098
:400C00001E3B8340181C014B1860704700E100E01F2318401E3B8340181C014B1860704780E100E01F2318401E3B8340181C014B1860704780E200E001BE704738B5041C58
:400C40000D1C1F2802D90020FFF7F6FFA400034B9C4664442068256038BDC0464000002070B5041C0E1E032E02D90020FFF7E4FF1F2C02D90020FFF7DFFF03252540ED0030
:400C8000063500F073FAA408A400074B9C46644423680322AA409343AE40351C1D43256000F068FA70BDC04600E400E0034A13681B041B0C02490B43136070470CED00E0E9
:400CC0000400FA0510B5041C06E0084B186800F043FA074B9C46644480231B029C42F4D8024B5868604300F037FA10BDDC0000200080FFFF08B5034B1B7A584300F02CFA77
:400D000008BDC046DC000020F0B557464E46C0B483B0041C00F02AFA0190E71E2D2F74D83F4B1B78DBB2A34208D33E4B1B78DBB29A463D4B1B78DBB2994631E03B4B1B7859
:400D4000DBB2A34208D33A4B1B78DBB29A46394B1B78DBB2994623E0374B1B78DBB2A34208D3364B1B78DBB29A46354B1B78DBB2994615E0334B1B78DBB2A34208D3324BE9
:400D80001B78DBB29A46314B1B78DBB2994607E02F4B1B78DBB29A462E4B1B78DBB299462D4BDE5D2F2E09D92A2C07D919222B4B1A60052000F0D0F9192503E0274B1D6896
:400DC0003F231D40AE4206D2234BDA5D234B1A60052000F0C1F91F4B9C4664442378DBB21F4A13601F4B52461A601F4B4A461A600520FFF77FFFAE420AD9174BDA5D174BC1
:400E00001A60052000F0A8F902E00020FFF714FF019800F0AFF903B00CBC91469A46F0BDC0F1FF0FC1F1FF0FC2F1FF0FC3F1FF0FC4F1FF0FC5F1FF0FC6F1FF0FC7F1FF0F53
:400E4000C8F1FF0FC9F1FF0FCAF1FF0FCBF1FF0FCCF1FF0FCDF1FF0F081600002CFF0B4028FF0B401CFF0B4020FF0B40034B1868C0231B02184000D00120704700010B40C9
:400E800008B500F073F9044A1368C02109020B43136000F06FF908BD00010B4010B500F065F908490A68084B1A408024E40122430A600A6813408022120213430B6000F033
:400EC00059F910BD00010B40FF3FFFFF70B5061C00F04CF9041CFFF7C9FF002803D0FFF7DDFF012500E000250848331C0340084A106808490840184310601368012D01D16E
:400F0000FFF7BEFF201C00F035F970BD0404040010020B40FBFBFBFF10B5244B1B685B0715D5234B1B685B070ED5224BD969042001401F4C22688A432260DA698243DA614A
:400F40001B69002B00D098470420FFF7BFFF174B1B685B0518D5164B1B685B0510D5154BD9698022D2001140114802688A430260D969114A0A40DA615B69002B00D09847C7
:400F80008020C000FFF7A2FF084B1B685B030CD5074B1B685B0304D5064B9B69002B00D098478020C002FFF791FF10BD10020B40EC00002014010020FFFBFFFF08B500F0F2
:400FC000FFF808BD08B500F00BF908BDF0B583B000282FD0002930D0161C0D1C071C9C00E418640000F02CF9002810D000F028F9041C1620FFF77EFE00F022F9A042F5D174
:40100000A54200D9251C35800023019308E00120FFF758FE013C002CE4D1002510230193002404E03E1900F0F1F830700134AC42F8D304E00123019301E001230193019850
:4010400003B0F0BD38B50C1C151C002806D0002906D000F041F92C80002002E0012000E0012038BD0004000C014B18607047C046080105400004000C014B18607047C0466E
:40108000140105400004000C014B18607047C0460C01054038B5041C0D1C00F067F8AC40024B1C6000F066F838BDC0460800054008B500F05BF8064A116801230B43136075
:4010C00000F058F801201821FFF7E4FF08BDC04600000540014B18607047C0463801054010B50F4C8023DB042360236823600020FFF7B8FF2368E022D20013432360C32251
:401100009200084B1A600020FFF7E4FF3122064B1A600648FFF7AEFF0548FFF7B3FF10BD000105402401054028010540E2160000710B000008B5064B1B78002B04D1FFF75D
:40114000CFFF0122024B1A70FFF7B2FF08BDC04634010020000000000230800804D0C0460138FDD1C046C046C0467047EFF3108072B6704780F310887047C046C046C04657
:4011800008B50B20FFF73AFD08BDC04608B500F021F908BD08B500F02FF908BD08B500F0A7F808BD08B5054A1368802109060B431360FFF7E5FFFFF7E9FF08BD000007405C
:4011C00008B5064B1B78002B04D1FFF7E7FF0122024B1A70FFF7E6FF08BDC0463801002008B50B20FFF714FDFFF7D4FF054A13685B005B0813600022034B1A600B20FFF7BB
:4012000011FD08BD00000740880F0740094B1A68094B1B689A420BD0074B1B680133412B00D10023054AD05CC0B2034A136000E000207047D40100204C0100209001002072
:40124000074B1B68074A1268934203D3054A1068181A04E0034A10681B1A4133181C7047D40100204C010020144B1A68144B1B689A4208D1134B1B680F221340082B02D0A9
:40128000114B186019E00D4B1A680132402A00D100220B4B1B689A42FBD002230B490B60C0B20B49885405490A600A4A1268134203D1084A11680B43136070474801002096
:4012C000440100200802074040020740800F074050010020880F074070B5061C0D1C002403E0305DFFF7C0FF0134AC42F9D370BD10B51F4A1F4B1A6000241F4B1C60012375
:401300001E4A13601E491F4A116007211E4A11601E4A14601E4A13601E4A1F4B1A601F4B1C600B20FFF774FC0B200321FFF798FC0B201B49FFF782FC1A4B1C601A4B1C6078
:401340001A4B1C601A4B1C6004221A4B1A601A4B1C601A68194B1A80194B1C60194B1C60194B1C70194B1C60194B1C6010BDC0460C00000200000740400007404800074097
:40138000070200800003074004030740100307404400074007000080000207400402074021140000880E0740C80E0740480F0740080F0740C80F0740880F07404001002082
:4013C000D40100204C010020D1010020480100204401002005490B68F0229343603A13430B60034B1A88034B1A6070470C00014040010020880F0740064A1368F0218B4322
:401400001360054B1A68E423DB001340034A13807047C0460C000140880F07404001002008B5274B1B68002B00D09847254B1B685B071DD5244B1B680133412B00D10023B0
:40144000224A1268934205D1214B1B682022214B1A7006E01E4A1268D2B21F49CA541A4A13601E4B1B681B07E4D104221C4B1A601C4B1B689B0721D51B4B1A681B4B1B68EE
:401480009A4213D0194B1B680133402B00D10023174AD25CD2B217490A60144A1360164B1B680F221340082BE6D104E0134A136802218B4313600222114B1A6008BDC0460E
:4014C0003C010020CC0F0740D40100204C01002040030740D10100209001002008030740C00F07408C0F07404801002044010020500100204002074008020740880F07409D
:40150000800F07400E4B70B500251E1C0D4CE41AA410A54204D0AB00F35898470135F8E700F08AF8084B00251E1C084CE41AA410A54204D0AB00F35898470135F8E770BD4C
:401540004416000044160000441600004C160000002310B5934203D0CC5CC4540133F9E710BD031C8218934202D019700133FAE770470000001700006B0000000000000013
:4015800000300F40000400400F40000407430F401820200850105404C608C808D4060000360400008E0300009C030000AA030000B8030000C6030000D4030000F003000087
:4015C000E2030000FE0300000C0400001A04000028040000520600007206000080080000BC060000760700008008000084070000B2070000BC060000D4070000480800005B
:401600009311A60411320101030405060708090A0B0C0E0F101112131415161718191B1C1D1E1F2021222325262728292A2B2E2F3031323334350000F8B5C046F8BC08BCFC
:401640009E4670477D01000011020000F8B5C046F8BC08BC9E4670475501000070160000D000002020000000E8000000000000000000000074150000781500000000C05D71
:4016800080BB000030000000006CDC020404040000000000000000000000000000000000000000000000000000000000000000000000000000000000000000000000000069
:4016C00000000000000000000000000000000000000000000000000000000000000000000000000000000000000000000000000000000000000000000000000000000000EA
:401700000010002011170000B11E0000B11E000008B5024B83F3088800F0CCFB00100020F0B5474680B472B601225B4B00211A7080225A48D20001F0B2FB802258480021A3
:40174000D20001F0ACFB28239846564DD733A84400279C464646634628682A789843002A0ED0511E7C1CCAB27B00A7187C00F31834191A785978121802331170A342F8D168
:4017800004354545E7D130259922474BC0211D60464B09031A609923454A1B041360454A454C1360454A04261160454A02211360444A802713600622434BFF021A600223DA
:4017C000424A1360424A107801433C20117021788143283801432170162110783D4C01431170CB213C4A302011603C493C4A116080213C4A49011160DB213B4A4900136048
:401800003A4A11603A4A3739FF391160394A643911609021384A89011160384A38491660384A1360384A1160384A136023683B43236000F0BDFD364A364B80211A6011227C
:40184000354B09061A60354B0F321D60344B09201A601023334A1360334A13608222334B12061A60324B334A27601360324A1160324A33491360334A334B1A6000F05EFE2B
:40188000092000F087FE0022304B1A60304B1E6004BC9046F0BDC0461C700F4000300F4000400F4028310000040001400C00014000500F4010500F4001700F4018500F4098
:4018C00020500F4030500F402000004000800F4000700F4000010B400000044012054800080004400C00044000010440080104401801044000020440080204401802044000
:40190000B10D00000003044008030440180304400600008004010B400C0202401C02024020020240240202403002024008010B4003000080000002404000024080000240D1
:40194000C5260000F9000080040002400C020B4000031A4010B5064C2378002B07D1054B002B02D0044800E000BF0123237010BD5001002000000000EC2F000008B5084BFA
:40198000002B03D00748084900E000BF07480368002B00D108BD064B002BFBD09847F9E700000000EC2F000054010020D0000020000000000122014B1A707047B001002068
:4019C000002208B5074B1A8000F0E0FC064A1368002804D1013B136000F0E0FC08BD01331360F9E7AA010020AC01002038B50F4C257800F091FC0E4AEDB2C0B2505523781E
:401A0000DBB2D35C3B2B0AD0002223780133DBB22370084B1A700422074B1A6038BD002301222370034B1A70F5E7C046B2010020A4010020B1010020C00F074030B50029B4
:401A400050DB302303700023294D4370A9420CDD012400E0141C274B621C9C4661448BB219B2D2B2AB42F5D844700023224D8370A9420CDD012400E0141C204B621C9C4656
:401A800061448BB219B2D2B2AB42F5D884700023C37063290ADD012400E0141C64398BB2621C19B2D2B2632BF7D8C4700023037109290ADD012400E0141C0A398BB2621C2E
:401AC00019B2D2B2092BF7D80471002341718371431C06301A7830321A7001338342F9D1012030BD2D234942037009B2ABE7C0460F270000F0D8FFFFE703000018FCFFFFD9
:401B0000F0B55F4656464D4644460023F0B491B008AA0120D37100F02BFC00F047FF00F067FB00F033FB00F07FFE00F0C7FE012000F094FA00F02CFACD4800F049FECD488E
:401B400000F0AAFECC4800F021FEFA20800000F037FD012000F05AFA62B6002300269A46069305930293019307930393C34FC44B00249B463B78B0469A4500DDD3E03B78CB
:401B80005B429A4500DACEE0BE4BBF4A1B88934200D94DE1BB4BBB4A1B8801339BB2138000230693059300F067FA002800D1C7E000F06AFA002800D1D1E000F0D1FB0028A7
:401BC00000D1DBE0002000F0FDFA019A401094467B7885B229B29B00CB1ADB1063449AB213B2DB43DB171340A8491AB28A4201DDA74B1B889BB2019300F0F2FE6A465B46F4
:401C000010821E68128A8146B61AB6B2B3B29846039BA048F11889B20B1C09B2814200DA031C9D4918B2884200DD0B1C99B20391414609B2B8788A46F978C0B2C9B28C4677
:401C40003979C9B204910299002900D0E4E05146484361461BB24B43141B049924B261439B12C3185C1A7B79002B00D1D8E0002C00DAEFE0012000F0E5F9884B9C4200DDE8
:401C80001C1C6B460420185E201A002800DCCDE0059B002B00D0BFE000F0B0F9804B1B78012B26D17F4B1C780023E4B2A44608247C4A0133D15C08A85A1E00198154052BC8
:401CC000F5D164460AA801F0B5F82B3CC0B208ABE4B2D8714A2C09D8734BA4001B599F4608ABB91DD81D012200F0EAFD00236C4A13704146F531FF3109B20EA8FFF79EFEF3
:401D0000A90069184D0029B20CA8FFF797FE674B1B78002B02D0BB79002B37D14C463B789A4500DC2BE7002000F022FB012000F07BF90123029300F09FF9002800D037E74E
:401D400000F016FB002000F061F9012000F06CF90123029300F098F9002800D02DE700F007FB002000F052F9012000F05DF90123029300F0F5FA002800D023E700F0F8FA0C
:401D8000012000F051F9012302931BE7242000F053FA0EA800F0D6FA202000F04DFA0CA800F0D0FA3B2000F047FA00233F4A4C461370B4E708AB791DD81D012200F080FD7B
:401DC00094E708ABB91CD81D012200F079FD8DE708ABF91CD81D012200F072FD86E73618B3B298461BB29A4680E708ABD81D391C012200F065FD79E708AB391DD81D0122AA
:401E000000F05EFD72E708AB791CD81D012200F057FD6BE7361AE3E7012000F0EFF83DE7002C1CDB002000F00DF926E701202FE7069B002B15D06B461C229B5E52469B1A6F
:401E4000012203330692062B00D8ACE600230D4A1380A8E60020644200F0F4F80DE7644208E7434607930123069305939BE6C046ED190000B5190000C11900002031000012
:401E8000AC010020AA010020CF070000FE0F0000F02F0000F0D8FFFF10270000FF0F0000B1010020A4010020F42F0000B0010020FEE7C046F8B5104E002E18D000200F4D6A
:401EC000A9682C686A68002905D00023E758043380C29942FAD1E9680023002903D0D05004339942FBD1013E1035002EE8D100F0A7FFFFF705FEFEE7010000003835000031
:401F000038B500220023114C1148124D04E00133A1500432302B08D0011C032BF7D851590133A1500432302BF6D1FFF7F9FB0022094B1A60094B1A68002A00D11A608022E0
:401F40000123D20511680B43136038BD00000020B11E000000170000C8000020C000002008B500F0DFFD0123074A11680B43136000F0DCFD00F0D6FD8022044B52041A60E4
:401F800000F0D4FD08BDC046000005400800054010B512490A78002A1DD180208024104BC00418601868A402204318600D48026018681860C3200C4B800018600B4B1A60BC
:401FC0000B4B1E321A6080220A4B52011A600123094A13600B70FFF7C3FF10BD6C0100200001054008010540240105403801054028010540140105400C010540024B00049F
:40200000000C18607047C0460C010540031C042004499B000A688243D2B21840104308607047C04600030440031C08200449DB000A688243D2B21840104308607047C04616
:40204000000304400121044A084013688B43DBB2184310607047C04600010440031C042004499B000A688243D2B21840104308607047C04600010440024B1868C006C00F61
:402080007047C04604020440024B18680007C00F7047C0460402044008B50E20032100F059FA0E20204900F049FA01221F4B1A601F4B1B68002B34DB1E491F4A13680B438C
:4020C00013601E4A1E4B80211A601E4A1E4B49021A6080221D4B12061A601D4B1D4A13601D4A13601D4A13680B431360002201211B4B1A601B4B1A601B4B19601B4B013115
:4021000019601B491B4B08680340C020800403430B60194B1A60194B1A80194A194B1A6008BD1949C9E7C046E521000020001A4080031A40C002005000001A40AC000A809B
:4021400004001A400000DC0518001A401C001A400400040010001A4014001A4000031A4028021A4038021A4018021A40000F1A4030001A40FFFFFFDF80001A40B8010020ED
:40218000204E0000B4010020C002105010B50B4C2378002B0CD00A4B1A68002A07DB80211A6809060A431A600A2000F02DFA10BDFFF772FF01232370EDE7C0466D0100208C
:4021C00000001A4008B5002804D1054B186880B200B208BD002000F0F1F90020F8E7C04680011A40014B1A681A60704710021A4010B5084C2378002B03D100F02BF8012323
:4022000023708021044A090613680B43136000F071F810BD6E01002000000740014B18687047C046400307400F20024B1B6818407047C046080307400F2204490B68134018
:40224000082BFBD0024B18607047C0460802074040020740144A154B15491A600023154A1548136001220A601449086007201449086014490B6014490A601449144A116023
:402280000421144A1360144A1360144A1360144A1360144A1360144A1160144A13601268134B1A807047C046090000020000074048000740400007400702008000030740DA
:4022C000040307401003074044000740070000800002074004020740880E0740C80E0740480F0740080F0740C80F0740880F074070010020F02205490B689343603A134372
:402300000B60034B1A88034B1A6070470C00014070010020880F074008B5FFF785FF031C0020002B08D1D822054B92001968114201D000201A6008BDFFF770FFF3E7C04668
:40234000C00F074010B5041C00780134002806D00134FFF771FF631E18780028F8D110BD024B18680007C00F7047C04604000440031C042004499B000A688243D2B2184067
:40238000104308607047C04600000440024B18680006C00F7047C046040004404020034A1368184010608009C0B2704710000440F8B55F464D4644465646F0B4041C00F005
:4023C000B1FBE51E071C2D2D3BD8484B1B789C4241D8474B1B78DBB29A46464B1B78DBB29946454B9B465B5D98462F2B01D92A2C4BD83F26414B1A681640B04504D242468F
:4024000005201A6000F084FB3D4B3E4A9C4664442378DBB2136052463B4B1A604A463B4B1A603B4B1B789800C01800F071FBB04508D95B465A5D314B05201A6000F068FBB0
:4024400000E001BE381C00F071FB3CBC90469946A246AB46F8BD2F4B1B789C420CD92E4B1B789C422BD82D4B1B78DBB29A462C4B1B78DBB29946B4E72A4B1B78DBB29A4617
:40248000294B1B78DBB29946ABE719221B4B05201A6000F03DFB1A4B1A4A9C4664442378DBB213605246184B1A604A46174B1A60174B1B789800C01800F02AFBB9E71B4B60
:4024C0001B789C4208D81A4B1B78DBB29A46194B1B78DBB2994684E7174B1B78DBB29A46074B1B78DBB299467BE7C046C0F1FF0FC1F1FF0FC2F1FF0FE03300002CFF0B4074
:40250000CDF1FF0F28FF0B401CFF0B4020FF0B40D4000020C3F1FF0FC6F1FF0FC7F1FF0FC8F1FF0FC4F1FF0FC5F1FF0FC9F1FF0FCAF1FF0FCBF1FF0FCCF1FF0F1F2800D9B8
:4025400001BE034B8000C318186819607047C0464000002038B5041C0D1E032D00D901BE1F2C00D901BE00F0DDFA094AA308944603221440E4000634A2409B00634419681F
:40258000A54091430A1C2A431A6000F0CFFA38BD00E400E01F2318401E3B8340181C014B1860704700E100E01F2318401E3B8340181C014B1860704780E100E001BE7047A1
:4025C000F8B58025071C2D02A84214D9041C0B4E706800F09DFA0A4B9C466444AC42F7D8084BFB18DB0BDB036744FF1AB068784300F08EFAF8BD014EF8E7C046D4000020D6
:402600000080FFFFFF7FFFFF08B5034B1B78584300F07EFA08BDC046D400002008B500F081FAC021034A090213680B43136000F07DFA08BD00010B4010B5802400F072FA66
:402640000749084B0A68E4011A4022430A600A6813408022120213430B6000F067FA10BD00010B40FF3FFFFF38B5051C00F05AFA104B041C1A68C0231B021A4210D0FFF7D4
:40268000DBFF0D4A0D4811680D4B28400B40184310601368FFF7C2FF201C00F047FA38BD054A06481168064B28400B40184310601368F1E700010B4010020B4004040400C4
:4026C000FBFBFBFF254B10B51A680423134206D0234A11680B4233D10420FFF7C5FF1F4B1A688023DB001A4207D01D4A1168194217D18020C000FFF7B7FF184B1A68802378
:40270000DB021A420CD0164A12681A4204D0154B9B69002B00D098478020C002FFF7A4FF10BD1049CC691068234098431060CA690D4B1340CB614B69002BDAD09847D8E78F
:402740000849CC6910681C40A0431060CA699A430B69CA61002BBFD09847BDE710020B40E400002074010020FFFBFFFF10B5041C00F0D8F9C021044AA40113688B432343A9
:40278000136000F0D3F910BD00E400E010B50124044B1C60044B18640020FFF7E7FF034B1C6010BD80E100E00000002000E100E010B5041C00F0B6F9044AA40713689B0091
:4027C0009B082343136000F0B1F910BD08E400E010B58024054B24011C60054BD8660120FFF7E6FF034B1C6010BDC04680E100E00000002000E100E008B500F093F9022329
:40280000074A11680B43136000F090F900F08AF98022044B92041A6000F088F908BDC046000005400800054008B50B4A1378002B0FD10A480A4908600C200A490860FA209C
:40284000094980000B600949086009490B6001331370FFF7D1FF08BD9401002000070002400105406401054078010540540105404801054010B5041C00F054F90449054AD0
:402880000B68A405134023430B6000F04FF910BD00E400E0FFFF3FFF10B50424044B1C60044B98640220FFF7E5FF034B1C6010BD80E100E00000002000E100E07047C0465E
:4028C000F0B54D4644465F465646F0B4214C8D18031CA1B00120A54232D84804000E8246CC0B24025444E401002A30D099466B4690460F1CEB4600251E1B221C803208E0DF
:40290000A84508D94B465B5D013533550134944206D0A742F4D92378335501349442F8D15046594600F008F901239C46E244454502D2803E0028E0D0012801D90120404248
:4029400021B03CBC90469946A246AB46F0BD0020F6E7C046FF7F000008B50120FFF724FE04490120FFF7EAFD01200021FFF7F2FD08BDC0460D2A00000F2208B5084B1A709D
:40298000084B1B7800F0CEF81023074A11780B43137000F0CBF80120FFF7FCFD08BDC04680000F4060000F4090000F4010B500F08BF88020000200F09BF80022064B074C8F
:4029C0001A602378002B03D1FFF7C6FF01232370FFF7D2FF10BDC046980100209501002010B50120FFF7E0FD00F088F8054B1C68054B9C46604400B204190120FFF7CAFDC8
:402A0000201C10BD980100200080FFFF0C4B1B78DBB2DA070BD50B480B4984460A6862440A605B0702D50022074B1A6070479A07F7D50648044984460A6862440A60F0E722
:402A400060000F40FF7F0000980100200080FFFF072108B5134B1A788A431A701A7804398A431A70104A13785B0605D50F483D31038813781942FBD100210D4B0D4A13801B
:402A80000D4A13800D4A1170074A12780C4A138000F048F810230B4A11780B43137000F045F808BD72000F4062000F4080100F400080FFFF40100F4000100F4082000F40EE
:402AC00060100F4092000F4010B5074C2378002B03D1FFF7BDFF012323708023034A11780B43137010BDC0469C01002072000F40014B18807047C04600100F40024B1B78A0
:402B0000024B188880B2704700000F4080100F400230800804D0C0460138FDD1C046C046C0467047EFF3108072B6704780F310887047C046C046C046F0B55F4656464D468F
:402B400044460023F0B4A5B000930193FF2865D8002963D0071C802204A800F097F9002502230021002602AC9A00A258002A02D01E1C891815430133222BF5D1002957D03E
:402B8000002398469946584B584902937F23584A6360584B1C601160C0461A68120F0F2A51D01A68120F0A2A4BD01B680093009D002D35D1FFF7B6FF4F4B504A1B680195F2
:402BC0001360009B83469246002B15D14C4B3A040293029B4B4913430293454A454B1C601160C0461A68120F0F2A30D01A68120F0A2A67D01B680093009B002B02D143465B
:402C0000002B29D1019B002B04D1524611683A4A116001935846FFF789FF01E004230093009825B03CBC90469946A246AB46F0BD002DA5D0B300E258E15001239146984649
:402C4000A1E70023B2E71B68F0321340AEE71B68F03213400093CFE704A80021802200F01EF94B46B600A3511F4B204902937F231F4A63601F4B1C601160C0461A68120F5B
:402C80000F2A22D01A68120F0A2A22D01B680093009B002BB6D11C4B3F040293029B1B491F43134A134B02971C601160C0461A68120F0F2A12D01A68120F0A2A0BD01B68E1
:402CC00000939FE70023009396E71B68F0321340DDE70023DBE70023009393E71B68F032134000938EE7C046B6D7000004000080040000400800004008010B40A0010020FF
:402D0000B6D8000005000080B6D9000006000080002243088B4274D303098B425FD3030A8B4244D3030B8B4228D3030C8B420DD3FF22090212BA030C8B4202D31212090284
:402D400065D0030B8B4219D300E0090AC30B8B4201D3CB03C01A5241830B8B4201D38B03C01A5241430B8B4201D34B03C01A5241030B8B4201D30B03C01A5241C30A8B4222
:402D800001D3CB02C01A5241830A8B4201D38B02C01A5241430A8B4201D34B02C01A5241030A8B4201D30B02C01A5241CDD2C3098B4201D3CB01C01A524183098B4201D39B
:402DC0008B01C01A524143098B4201D34B01C01A524103098B4201D30B01C01A5241C3088B4201D3CB00C01A524183088B4201D38B00C01A524143088B4201D34B00C01A35
:402E00005241411A00D20146524110467047FFE701B5002000F00CF802BDC0460029F7D003B5FFF775FF0EBC4243891A1847C0467047C04608B500210A2200F0C9F808BDD0
:402E40000E4B70B500251E1C0D4CE41AA410A54204D0AB00F35898470135F8E700F05AFB084B00251E1C084CE41AA410A54204D0AB00F35898470135F8E770BD20350000A1
:402E8000203500002035000028350000002310B5934203D0CC5CC4540133F9E710BD031C8218934202D019700133FAE770470000F0B51E1C444B87B01B68059002930B1C2C
:402EC000039101921C78029A5D1C121950780822104001D02B1CF5E72D2C04D19D1C5C780123009304E000902B2C01D15C789D1C002E02D0102E0AD160E0302C5CD12022E1
:402F00002B789343582B52D110266C780235009F311C7B1E9F412D4BFF18381CFFF77EFF381C0491311CFFF7F3FE0022071C131C029909194978480701D5303C07E00320BC
:402F4000084017D03721012800D02031641AB44210DA511C0BD0BB4207D802D1049A944203DC73430122E31801E0012252422C780135DDE7181C511C0BD10098059A431EB9
:402F80009841124BC01822231360019B002B0AD117E00099002900D05842019B002B10D0039B002A00D06B1E019A136009E03024002EACD10826AAE70A26A8E7302CA6D177
:402FC0009DE707B0F0BDC0464C010020FFFFFF7F38B5051C0C1C131C034A291C1068221CFFF766FF38BDC0464801002000000000FE0F0000DE1D0000EC1C0000141E00004C
:40300000EC1C0000EC1C0000EC1C0000EC1C0000EC1C0000EC1C0000EC1C0000EC1C0000EC1C0000EC1C0000EC1C0000EC1C0000EC1C0000EC1C0000EC1C0000EC1C000010
:40304000EC1C0000EC1C0000EC1C0000EC1C0000EC1C0000EC1C0000EC1C0000EC1C0000EC1C0000EC1C0000EC1C0000EC1C0000EC1C0000EC1C0000EC1C0000EC1C0000D0
:40308000EC1C0000EC1C0000EC1C0000EC1C0000EC1C0000EC1C0000EC1C0000EC1C0000EC1C0000EC1C0000EC1C0000EC1C0000EC1C0000EC1C0000EC1C0000EC1C000090
:4030C000EC1C0000EC1C0000EC1C0000EC1C0000EC1C0000061E0000F81D0000EC1C0000EA1D0000EC1C0000EC1C0000D01D0000EC1C0000EC1C0000EC1C0000EC1C000043
:40310000EC1C0000EC1C0000C21D0000EC1C0000B41D0000EC1C0000EC1C0000E01C0000FFFF0A000000000002000F4060300F4039310F4048320F4045330F400A400F40A1
:403140000C410F4002420F4006430F4002600F40800F826F0C0811021B031C011D0C2403250827042B0C2C032E0C3004310132023304340835083601370238883E503F5412
:403180004031410649FF4AFF4BFF4DA04F015018540F5604580459045A045B045F016040628064406540668068406A806C406D206E80806C82018303840886018C37970474
:4031C000986C9A029D019E0FA280AC5BAE04B070B280B301B40FB504B702B802BF04C035C106C50CC623C74EC83DC9FFCAFFCBFFCDAFCE07CF01D018D804D904DA04DF01E6
:40320000E040E280E440E540E680E840EA80EC40ED20EE800302044005060B020D200E02102011801401168218011A061B061C401D241F21201021022210230226982B143A
:4032400030203102328036843A203B103F0240014108450849204D204E014F04542055405628570158095A205B40634087408E80C0B1C2C1C495CA06CC5DCE80D04AD234A9
:40328000D60FD801E410005001FE02A40301043406C007010A080CF4119613681401150E17F01A011CC41E3021A32201235C24A425C52650273A2A022C702D7F30023201D9
:4032C000340C35FF36F03E043F105280540F580459045B045F0580C0817382248607870F8C848E1090B79130924093C9959497609801999E9AF29B609DFD9F02A1CFA3301C
:40330000A4C1A612AA08AC77B0F0B3FFB40FBF04D804D904DF0100840102054507080A080B800E280F02101011401208141015601680180419221B111C8A1D491E081F4098
:403340002208270829022C102D422F213145320433203505360138043B023C0A3E025E445F126608670476807F0185109244931699049A089B029D229E02A210A320A5088C
:40338000A605A710B458B648B740C0FDC2EAC4F7CAD1CCCFCEC3D6F0D860DE10E004E280000107806E80730886408C01C030DA80DC20E6401B0227085E20830287808A10ED
:4033C0009B809F08C610C820D620E0606A40DA022002824088019640C808E20101011001030405060708090A0B0C0E0F101112131415161718191B1C1D1E1F202122232517
:40340000262728292A2B2E2F30313233343500004300002020202020202020202828282828202020202020202020202020202020202020881010101010101010101010105A
:4034400010101004040404040404040404101010101010104141414141410101010101010101010101010101010101010101101010101010424242424242020202020202F2
:403480000202020202020202020202020202101010102000000000000000000000000000000000000000000000000000000000000000000000000000000000000000000090
:4034C00000000000000000000000000000000000000000000000000000000000000000000000000000000000000000000000000000000000000000000000000000000000CC
:403500000000000000000000000000000000000000000000F8B5C046F8BC08BC9E4670477D190000011F0000F8B5C046F8BC08BC9E4670475519000048350000D00000206E
:40354000800000007000000000000000300000000000C05D80BB0000006CDC020404040000000000000000000000000000000000000000000000000000000000000000007D
:4035800010340000000000000000000000000000000000000000000000000000000000000000000000000000000000000000000000000000000000000000000000000000C7
:4035C000E80000201234000000000000000000000000000000000000000000000000000000000000000000000000000000000000000000000000000000000000000000007D
:40360000000000000000000000000000000000000000000000000000000000000000000000000000000000000000000000000000000000000000000000000000000000008A
:40364000000000000000000000000000000000000000000000000000000000000000000000000000000000000000000000000000000000000000000000000000000000004A
:40368000000000000000000000000000000000000000000000000000000000000000000000000000000000000000000000000000000000000000000000000000000000000A
:4036C00000000000000000000000000000000000000000000000000000000000000000000000000000000000000000000000000000000000000000000000000000000000CA
:407FC00019111700002D000000001F0000000000000000000000000000000000000000000000000000000000000000000000000000000000000000000000000000000000F4
:0200000490303A
:02000000D22804
:0200000490402A
:200000000000000000000000000000000000000000000000000000000000000000000000E0
:0200000490501A
:0C000000000204A61193110004B6E3BB3B
:0200000490600A
:0100000001FE
:00000001FF