:400000000010002011000000A1010000A101000010B500F01FFA00F0C5F8C04670B5144C23688025ED022B432360302000F06AFE104A114B1A602022104B1A60103A104B91
:400040001A60802212060F4B1A6025600E4A0F4B1A600F4A0F4B1A600F49092000F0ECFD092000F0C9FD00220C4B1A6070BDC04600010B400600008004010B400C020240C9
:400080002402024008010B400F000080000002406700008040000240150F00000C020B4010B572B600240FE015486200131959000B00411889881A5AC3185888000410438E
:4000C00000F068F80134E4B2012CEDD90D4A0E4B1A60992212040D4B1A600D4A117806230B43DBB213700E220A4B1A600A4A0B4B1A6002220A4B1A60FFF790FF10BDC04650
:400100007C150000998800000C00014030500F4000700F4000030440B10D0000080304401803044010B5064C2378002B07D1054B002B02D0044800E000BF0123237010BD0E
:40014000E80000200000000078150000084B10B5002B03D00749084800E000BF07480368002B00D110BD064B002BFBD09847F9E700000000EC00002078150000C80000208B
:400180000000000010B562B600F0D4FF00F0E4FBFEE7C04610B50A00002101F0E0F910BDFEE7C04670B50F4E0F4D13E029686B68AC68002202E001C901C30432A242FAD1B3
:4001C000E868002202E0002102C304328242FAD11035013E002EE9D101F092F9FFF7D2FFFEE7C046010000004416000010B500230AE0032B03D89A000C49505800E00C4865
:4002000099000C4A885001332F2BF2D9FFF748FF094B1B68002B02D10022074B1A608022D205116801230B43136010BD00000000A101000000000020C0000020002306E04F
:400240004218013A12789B189BB2013989B20029F6D1584280B270470047C04610B58022024B1A6000F020FD10BDC046C0000020F0B583B00D006B469E1DDA8001230B70F2
:4002800048701400AA70130ACB70171DB9B22800FFF7D4FFE855631D000AE854A31D1722EA540734A1B296233200280000F0CAFE03B0F0BD70B505000E001400002802D037
:4002C000002000F0B7FC002004E0013CAB19E35CC018C0B2002CF8D170BDC04670B5A0B00500C0097F232C009C43002304E01A5D6E46F25401339BB27F2BF8D97F231D4022
:400300006B4659550004000C694600F071FB20B070BDC04610B50C2863D88000404B1B589F464B06591ACB013E4A9446634401225CE04B06591ACB013B4A944663440422F5
:4003400054E04B06591ACB01384A9446634402224CE04B06591ACB01354A94466344042244E04B06591ACB01324A9446634401223CE04B06591ACB012F4A94466344012213
:4003800034E04B06591ACB012C4A9446634402222CE04B06591ACB01294A94466344022224E04B06591ACB01264A9446634402221CE04B06591ACB01234A94466344042281
:4003C00014E04B06591ACB01204A9446634401220CE04B06591ACB011D4A94466344042204E0002000F026FC02220023012A02D11878C0B200E00020022A03D11978587823
:4004000000020843042A09D11A785878000210439A7812041043DB781B06184310BDC04688150000C07F0000C17F0000C57F0000C97F0000D07F0000D17F0000D67F0000F7
:40044000D27F0000D47F0000D87F0000DC7F0000E07F000010B50D4B1B68DB0602D400220B4B1A600A4B1B68802B0ED10022084B1A6000210220FFF74DFF002805D000218A
:400480000220FFF747FFFFF7E7FE10BD00030B40C000002070B5050001000320FFF73AFF441CE40129000420FFF734FF241829000620FFF72FFF012828D029000320FFF7BE
:4004C00029FF421CD2010023002608E01078411EC9B2FD2900D801261B18DBB20132A242F4D35B42DCB229000120FFF713FF84420ED1002E0ED06B065D1BE801064B9C461A
:4005000060440121FFF7EAFE002004E0002002E0062000E0062070BDD17F0000F0B55F4656464D464446F0B4BD4CA544050000F043FD62B600239A46984600930A240027B9
:40054000002D01D1FF2300E02B00B64A02A98C4662449621490070A800F036FD002D01D0013CE4B2002C01D00028E9D1002800D0E0E1AC4B02AA944663441B88062B24D993
:4005800070AA1278012A22D170A9CA78120289780A431700110007329A421AD896235B009A4218D87A1D70AB9E5C3202381D1E5C164306315B5C172B0FD181B270A8FFF754
:4005C0003DFE86420BD100260AE0042608E0042606E0032604E0032602E0042600E00826002E00D058E170AB1A7993465A781300313BD9B20A2900D91EE18B008A49CB5874
:400600009F464346012B00D048E1002F00D048E10020FFF73FFF4342434170AA1371012281E14346012B00D03EE1012F00D03EE15B46002B00D03DE17C4B1B681B68DA0B50
:40064000D2B2934503D1DB09FF22134005E0934501D9002301E080235B0070AA13711B0A5371FF2393710023D37104225BE1342A0DD14346012B00D01FE1032F00D01FE120
:400680004C32002125A800F06AFF80239A464346012B00D017E1022F00D817E125A85044FA1EC021FF3102AB9C46614400F04EFF3B0053449BB2832B00D00AE170AA9379CB
:4006C0001B02527913439A46FF2B00D90A26002E00D004E15B461F025744BFB2534B1B681A68D3099BB2520601D001339BB2BB4200D9F7E0009B002B0AD18022002105A8C4
:4007000000F02DFF05A9FF2000F072F90123009325A9380000F06CF9002800D1E8E000239A4680270A260022FDE04346012B00D1FEE004260022F6E04346012B00D0DCE002
:400740005346FB1896225200934200D9D8E025A850443A0071A900F0F9FE5346FB189BB29A460022DFE0002F00D0CCE005AA304B03CB03C271AA05AB03CB03C200239A463E
:40078000013398460822CEE04346012B00D0BDE0032F00D0BDE070AA93791B025279134399465B4619024944C9014B46FF2B00D90A26002E00D0AFE080220020FFF77AFDB8
:4007C000030001905A4612024A4492B25946002911D1FF2A0FD10520FFF79CFDC0B2019B1B1ADBB2994600210620FFF793FDC3B24A46D31ADBB25B4270AA1371012292E0AD
:400800000020FFF747FE002802D18022094B1A6000F0D6FB00F048FA0426002283E0C0460CFDFFFFE6020000BC150000CC000020E8150000C0000020464B1E68002E6DD03F
:400840004346012B6DD102AB1A71DF8071AB04930C22002105A800F082FE05AB9B4671AA0792190003A8B0475B469A882623FF339A4203D971AB0799994207D0079B002B9E
:4008800001D1002A05D1059BDEB24CE00E26002249E00E26002246E0002244E00426002241E0042600223EE0042600223BE00426002238E00426002235E00426002232E068
:4008C000042600222FE0042600222CE00426002229E000239A4680270326002223E08027002220E000239A4680270A2600221AE000239A468027002215E00426002212E03A
:40090000032600220FE0042600220CE00426002209E00426002206E0002204E00526002201E00526002270A93000FFF7A1FC01E000239A46002D00D102E64346012B00D131
:40094000FEE5BD239B009D443CBC90469946A246AB46F0BD0401002070B50020FFF79AFD002801D0062400E00024154D2B681A68C03AC0210020FFF79DFC6B681B78C01AA6
:40098000C0B24042C0B2834204D10D4B1B681B68002B02D1002000F04DF90A4B1B68402B01D0002C05D00022064B1A600020FFF7B5FD1E20FFF7B2FDFFF750FC70BDC04663
:4009C000CC000020C0000020024B1A68024B1A600020704708010B4008010020024B1A68024B1A60002070470801002008010B40F0B5A7B00500002325932493FF2800D9C4
:400A0000E4E0002900D1E1E0802204A800F09EFD022300200021002408E09A0002AE9259002A02D0891810431C000133212BF4D9002903D1002803D1002602E0002600E057
:400A40000126002E06D0A30002AA9F58002202A95A5000E00027604B02937F2303935F4B02AA1A605E495F4A1160C0461B681B0F1B07F0221206934204D1584B1B68FF228E
:400A800013400BE0554B1B681B0F1B07A0221206934202D0514B1B6800E000232593259B002B00D094E000F061FB0190FFF78CFF2490259B002B25D14B4B0293029A2B0416
:400AC00013430293454B02AA1A604849454A1160C0461B681B0F1B07F0221206934204D13E4B1B68FF2213400BE03C4B1B681B0F1B07A0221206934202D0384B1B6800E0F3
:400B000000232593259B002B56D1002E54D08022002104A800F023FDA40002ABE7502E4B02937F2303932D4B02AA1A602C492D4A1160C0461B681B0F1B07F022120693425A
:400B400004D1264B1B68FF2213400BE0234B1B681B0F1B07A0221206934202D01F4B1B6800E000232593259B002B25D1204B0293029B2D041D430295184B02AA1A601D4952
:400B8000184A1160C0461B681B0F1B07F0221206934204D1114B1B68FF2213400BE00F4B1B681B0F1B07A0221206934202D00B4B1B6800E000232593249B002B02D1FFF78A
:400BC0000DFF2490019800F0D5FA01E004232593259827B0F0BDC046B6D70000080000400400008004000040B6D8000005000080B6D90000060000801F2318401E3B83405B
:400C0000014A13607047C04600E100E01F2318401E3B8340014A13607047C04680E100E01F2318401E3B8340014A13607047C04680E200E001BE704770B504000D001F28A0
:400C400002D90020FFF7F6FF1034A40080239B059C4664442068256070BDC04670B504000E00032902D90020FFF7E4FF1F2C02D90020FFF7DFFF03252540ED00063500F0A3
:400C800075FAA408A400074B9C46644421680323AB4099430B003100A9401943216000F069FA70BD00E400E0034A13681B041B0C02490B43136070470CED00E00400FA0530
:400CC00010B5040006E0084B186800F045FA074B9C46644480231B029C42F4D8024B5868604300F039FA10BDD40000200080FFFF10B5034B1B7A584300F02EFA10BDC046BD
:400D0000D4000020F0B557464E46C0B483B0040000F02CFA0190E71E2D2F74D83F4B1B78DBB29C4208D83E4B1B78DBB29A463D4B1B78DBB2994631E03B4B1B78DBB29C42DD
:400D400008D83A4B1B78DBB29A46394B1B78DBB2994623E0374B1B78DBB29C4208D8364B1B78DBB29A46354B1B78DBB2994615E0334B1B78DBB29C4208D8324B1B78DBB23A
:400D80009A46314B1B78DBB2994607E02F4B1B78DBB29A462E4B1B78DBB299462D4BDE5D2F2E09D92A2C07D919222B4B1A60052000F0D2F9192503E0274B1D683F231D40F5
:400DC000B54206D9234BDA5D234B1A60052000F0C3F91F4B9C4664442378DBB21F4A13601F4B52461A601F4B4A461A600520FFF77FFFB5420AD2174BDA5D174B1A600520D1
:400E000000F0AAF902E00020FFF714FF019800F0B1F903B00CBC91469A46F0BDC0F1FF0FC1F1FF0FC2F1FF0FC3F1FF0FC4F1FF0FC5F1FF0FC6F1FF0FC7F1FF0FC8F1FF0F27
:400E4000C9F1FF0FCAF1FF0FCBF1FF0FCCF1FF0FCDF1FF0FF01500002CFF0B4028FF0B401CFF0B4020FF0B40034B1868C0231B02184000D00120704700010B4010B500F0F4
:400E800075F9044A1368C02109020B43136000F071F910BD00010B4010B500F067F908490A68084B1A408024E40122430A600A6813408022120213430B6000F05BF910BDB1
:400EC00000010B40FF3FFFFF70B5050000F04EF90400FFF7C9FF002803D0FFF7DDFF012100E0002108482840084A1568084B2B40184310601368012901D1FFF7BFFF2000FC
:400F000000F038F970BDC0460404040010020B40FBFBFBFF10B5244B1B685B0715D5234B1B685B070ED5224BD969042001401F4C22688A432260DA698243DA611B69002B81
:400F400000D098470420FFF7BFFF174B1B685B0518D5164B1B685B0510D5154BD9698022D2001140114802688A430260D969114A0A40DA615B69002B00D098478020C00016
:400F8000FFF7A2FF084B1B685B030CD5074B1B685B0304D5064B9B69002B00D098478020C002FFF791FF10BD10020B40E40000200C010020FFFBFFFF10B500F0FFF810BD96
:400FC00010B500F00BF910BDF0B583B007000E00019200282ED000292FD09A00D3185C0000F02CF9002812D000F028F905005C20FF30FFF77DFE00F021F98542F4D1B542DE
:4010000000D93500019B1D800023019308E00120FFF756FE013C002CE2D1002510230193002404E03E1900F0EFF830700134A542F8D804E00123019301E0012301930198C7
:4010400003B0F0BD70B50C001500002806D0002906D000F03FF92C80002002E0012000E0012070BD0004000C014B18607047C046480105400004000C014B18607047C046F8
:40108000540105400004000C014B18607047C0464C01054070B504000D0000F067F8AC40024B1C6000F066F870BDC0460800054010B500F05BF8064A116802230B431360B4
:4010C00000F058F818210220FFF7E4FF10BDC04600000540014B18607047C0467801054010B50F4C8023DB042360236823600020FFF7B8FF2368E022D20013432360C32208
:401100009200084B1A600020FFF7E4FF3122064B1A600648FFF7AEFF0548FFF7B3FF10BD400105406401054068010540E2160000710B000010B5064B1B78002B04D1FFF795
:40114000CFFF0122024B1A70FFF7B2FF10BDC0462C010020000000000230800804D0C0460138FDD1C046C046C0467047EFF3108072B6704780F310887047C04610B50B2073
:40118000FFF73AFD10BDC04610B500F021F910BD10B500F02FF910BD10B500F0A7F810BD10B5054A1368802109060B431360FFF7E5FFFFF7E9FF10BD0000074010B5064BE6
:4011C0001B78002B04D1FFF7E7FF0122024B1A70FFF7E6FF10BDC0463001002010B50B20FFF714FDFFF7D4FF054A13685B005B0813600022034B1A600B20FFF711FD10BDE6
:4012000000000740880F0740094B1A68094B1B689A420BD0074B1B680133412B00D10023054AD05CC0B2034A136000E000207047CC0100204401002088010020074B1B6888
:40124000074A1268934203D3054A1068181A04E0034A10681B1A413318007047CC01002044010020144B1A68144B1B689A4208D1134B1B680F221340082B02D0114B1860D6
:4012800019E00D4B1A680132402A00D100220B4B1B689A42FBD002230B490B60C0B20B49885405490A600A4A1268134203D1084A11680B4313607047400100203C01002015
:4012C0000802074040020740800F074048010020880F074070B506000D00002403E0305DFFF7C0FF0134AC42F9D370BD10B51F4A1F4B1A6000241F4B1C6001231E4A13603F
:401300001E491F4A116007211E4A11601E4A14601E4A13601E4A1F4B1A601F4B1C600B20FFF774FC03210B20FFF798FC1B490B20FFF782FC1A4B1C601A4B1C601A4B1C6072
:401340001A4B1C6004221A4B1A601A4B1C601A68194B1A80194B1C60194B1C60194B1C70194B1C60194B1C6010BDC0460700000200000740400007404800074007020080F4
:40138000000307400403074010030740440007400700008000020740040207401D140000880E0740C80E0740480F0740080F0740C80F0740880F074038010020CC0100202A
:4013C00044010020C9010020400100203C01002005490B68F0229343603A13430B60034B1A88034B1A6070470C00014038010020880F0740064A1368F0218B431360054B7C
:401400001A68E423DB001340034A13807047C0460C000140880F07403801002010B5274B1B68002B00D09847254B1B685B071DD5244B1B680133412B00D10023224A12688D
:40144000934205D1214B1B682022214B1A7006E01E4A1268D2B21F49CA541A4A13601E4B1B681B07E4D104221C4B1A601C4B1B689B0721D51B4B1A681B4B1B689A4213D015
:40148000194B1B680133402B00D10023174AD25CD2B217490A60144A1360164B1B680F221340082BE6D104E0134A136802218B4313600222114B1A6010BDC0463401002070
:4014C000CC0F0740CC0100204401002040030740C90100208801002008030740C00F07408C0F0740400100203C010020480100204002074008020740880F0740800F07405C
:401500000E4B70B500251E000D4CE41AA410A54204D0AB00F35898470135F8E700F080F8084B00251E00084CE41AA410A54204D0AB00F35898470135F8E770BD2C16000022
:401540002C1600002C16000034160000002310B59A4203D0CC5CC4540133F9E710BD03008218934202D019700133FAE770470000801600001B0000000000000000300F401C
:40158000000400400F400004E20300002203000032030000420300005203000062030000720300009203000082030000A2030000B2030000C2030000D203000002060000CB
:4015C00022060000380800006E0600002A0700003808000038070000660700006E06000088070000000800009311A60411320101030405060708090A0B0C0E0F10111213A6
:401600001415161718191B1C1D1E1F2021222325262728292A2B2E2F3031323334350000F8B5C046F8BC08BC9E4670474D010000ED010000F8B5C046F8BC08BC9E467047A0
:401640002501000058160000C800002020000000E8000000000000000000000070150000741500000000C05D80BB000030000000006CDC02040404000000000000000000FA
:40168000000000000000000000000000000000000000000000000000000000000000000000000000000000000000000000000000000000000000000000000000000000002A
:4016C00000000000000000000000000000000000000000000000000000000000000000000000000000000000000000000000000000000000000000000000000000000000EA
:4017000000000000000000000000000000000000000000000000000000000000000000000000000000000000000000000000000000000000000000000000000000000000A9
:401740000000000000000000000000000000000000000000000000000000000000000000000000000000000000000000000000000000000000000000000000000000000069
:407FC0000000000000000000000000000000000000000000010000000000000000000000000000000000000000000000000000000000000000000000000000000000000080
:0200000490303A
:02000000439922
:0200000490402A
:200000000000000000000000000000000000000000000000000000000000000000000000E0
:0200000490501A
:0C000000000204A61193110004AD552C61
:0200000490600A
:0100000001FE
:00000001FF